
demedukit-accelerometer-oled-ntc-example.elf:     file format elf32-littlearm

Sections:
Idx Name          Size      VMA       LMA       File off  Algn
  0 .isr_vector   000000b8  08000000  08000000  00010000  2**0
                  CONTENTS, ALLOC, LOAD, READONLY, DATA
  1 .text         0000b7a8  080000b8  080000b8  000100b8  2**2
                  CONTENTS, ALLOC, LOAD, READONLY, CODE
  2 .rodata       00002a9c  0800b860  0800b860  0001b860  2**3
                  CONTENTS, ALLOC, LOAD, READONLY, DATA
  3 .ARM.extab    00000000  0800e2fc  0800e2fc  000201f0  2**0
                  CONTENTS
  4 .ARM          00000008  0800e2fc  0800e2fc  0001e2fc  2**2
                  CONTENTS, ALLOC, LOAD, READONLY, DATA
  5 .preinit_array 00000000  0800e304  0800e304  000201f0  2**0
                  CONTENTS, ALLOC, LOAD, DATA
  6 .init_array   00000004  0800e304  0800e304  0001e304  2**2
                  CONTENTS, ALLOC, LOAD, DATA
  7 .fini_array   00000004  0800e308  0800e308  0001e308  2**2
                  CONTENTS, ALLOC, LOAD, DATA
  8 .data         000001f0  20000000  0800e30c  00020000  2**2
                  CONTENTS, ALLOC, LOAD, DATA
  9 .bss          0000071c  200001f0  0800e4fc  000201f0  2**3
                  ALLOC
 10 ._user_heap_stack 00000604  2000090c  0800e4fc  0002090c  2**0
                  ALLOC
 11 .ARM.attributes 00000028  00000000  00000000  000201f0  2**0
                  CONTENTS, READONLY
 12 .debug_info   0001e7f4  00000000  00000000  00020218  2**0
                  CONTENTS, READONLY, DEBUGGING, OCTETS
 13 .debug_abbrev 00003718  00000000  00000000  0003ea0c  2**0
                  CONTENTS, READONLY, DEBUGGING, OCTETS
 14 .debug_aranges 00001650  00000000  00000000  00042128  2**3
                  CONTENTS, READONLY, DEBUGGING, OCTETS
 15 .debug_ranges 000014e0  00000000  00000000  00043778  2**3
                  CONTENTS, READONLY, DEBUGGING, OCTETS
 16 .debug_macro  00019ac1  00000000  00000000  00044c58  2**0
                  CONTENTS, READONLY, DEBUGGING, OCTETS
 17 .debug_line   0001943b  00000000  00000000  0005e719  2**0
                  CONTENTS, READONLY, DEBUGGING, OCTETS
 18 .debug_str    00099372  00000000  00000000  00077b54  2**0
                  CONTENTS, READONLY, DEBUGGING, OCTETS
 19 .comment      00000053  00000000  00000000  00110ec6  2**0
                  CONTENTS, READONLY
 20 .debug_frame  000063e8  00000000  00000000  00110f1c  2**2
                  CONTENTS, READONLY, DEBUGGING, OCTETS

Disassembly of section .text:

080000b8 <__do_global_dtors_aux>:
 80000b8:	b510      	push	{r4, lr}
 80000ba:	4c06      	ldr	r4, [pc, #24]	; (80000d4 <__do_global_dtors_aux+0x1c>)
 80000bc:	7823      	ldrb	r3, [r4, #0]
 80000be:	2b00      	cmp	r3, #0
 80000c0:	d107      	bne.n	80000d2 <__do_global_dtors_aux+0x1a>
 80000c2:	4b05      	ldr	r3, [pc, #20]	; (80000d8 <__do_global_dtors_aux+0x20>)
 80000c4:	2b00      	cmp	r3, #0
 80000c6:	d002      	beq.n	80000ce <__do_global_dtors_aux+0x16>
 80000c8:	4804      	ldr	r0, [pc, #16]	; (80000dc <__do_global_dtors_aux+0x24>)
 80000ca:	e000      	b.n	80000ce <__do_global_dtors_aux+0x16>
 80000cc:	bf00      	nop
 80000ce:	2301      	movs	r3, #1
 80000d0:	7023      	strb	r3, [r4, #0]
 80000d2:	bd10      	pop	{r4, pc}
 80000d4:	200001f0 	.word	0x200001f0
 80000d8:	00000000 	.word	0x00000000
 80000dc:	0800b848 	.word	0x0800b848

080000e0 <frame_dummy>:
 80000e0:	4b04      	ldr	r3, [pc, #16]	; (80000f4 <frame_dummy+0x14>)
 80000e2:	b510      	push	{r4, lr}
 80000e4:	2b00      	cmp	r3, #0
 80000e6:	d003      	beq.n	80000f0 <frame_dummy+0x10>
 80000e8:	4903      	ldr	r1, [pc, #12]	; (80000f8 <frame_dummy+0x18>)
 80000ea:	4804      	ldr	r0, [pc, #16]	; (80000fc <frame_dummy+0x1c>)
 80000ec:	e000      	b.n	80000f0 <frame_dummy+0x10>
 80000ee:	bf00      	nop
 80000f0:	bd10      	pop	{r4, pc}
 80000f2:	46c0      	nop			; (mov r8, r8)
 80000f4:	00000000 	.word	0x00000000
 80000f8:	200001f4 	.word	0x200001f4
 80000fc:	0800b848 	.word	0x0800b848

08000100 <strlen>:
 8000100:	2300      	movs	r3, #0
 8000102:	5cc2      	ldrb	r2, [r0, r3]
 8000104:	3301      	adds	r3, #1
 8000106:	2a00      	cmp	r2, #0
 8000108:	d1fb      	bne.n	8000102 <strlen+0x2>
 800010a:	1e58      	subs	r0, r3, #1
 800010c:	4770      	bx	lr
	...

08000110 <__gnu_thumb1_case_uqi>:
 8000110:	b402      	push	{r1}
 8000112:	4671      	mov	r1, lr
 8000114:	0849      	lsrs	r1, r1, #1
 8000116:	0049      	lsls	r1, r1, #1
 8000118:	5c09      	ldrb	r1, [r1, r0]
 800011a:	0049      	lsls	r1, r1, #1
 800011c:	448e      	add	lr, r1
 800011e:	bc02      	pop	{r1}
 8000120:	4770      	bx	lr
 8000122:	46c0      	nop			; (mov r8, r8)

08000124 <__gnu_thumb1_case_shi>:
 8000124:	b403      	push	{r0, r1}
 8000126:	4671      	mov	r1, lr
 8000128:	0849      	lsrs	r1, r1, #1
 800012a:	0040      	lsls	r0, r0, #1
 800012c:	0049      	lsls	r1, r1, #1
 800012e:	5e09      	ldrsh	r1, [r1, r0]
 8000130:	0049      	lsls	r1, r1, #1
 8000132:	448e      	add	lr, r1
 8000134:	bc03      	pop	{r0, r1}
 8000136:	4770      	bx	lr

08000138 <__udivsi3>:
 8000138:	2200      	movs	r2, #0
 800013a:	0843      	lsrs	r3, r0, #1
 800013c:	428b      	cmp	r3, r1
 800013e:	d374      	bcc.n	800022a <__udivsi3+0xf2>
 8000140:	0903      	lsrs	r3, r0, #4
 8000142:	428b      	cmp	r3, r1
 8000144:	d35f      	bcc.n	8000206 <__udivsi3+0xce>
 8000146:	0a03      	lsrs	r3, r0, #8
 8000148:	428b      	cmp	r3, r1
 800014a:	d344      	bcc.n	80001d6 <__udivsi3+0x9e>
 800014c:	0b03      	lsrs	r3, r0, #12
 800014e:	428b      	cmp	r3, r1
 8000150:	d328      	bcc.n	80001a4 <__udivsi3+0x6c>
 8000152:	0c03      	lsrs	r3, r0, #16
 8000154:	428b      	cmp	r3, r1
 8000156:	d30d      	bcc.n	8000174 <__udivsi3+0x3c>
 8000158:	22ff      	movs	r2, #255	; 0xff
 800015a:	0209      	lsls	r1, r1, #8
 800015c:	ba12      	rev	r2, r2
 800015e:	0c03      	lsrs	r3, r0, #16
 8000160:	428b      	cmp	r3, r1
 8000162:	d302      	bcc.n	800016a <__udivsi3+0x32>
 8000164:	1212      	asrs	r2, r2, #8
 8000166:	0209      	lsls	r1, r1, #8
 8000168:	d065      	beq.n	8000236 <__udivsi3+0xfe>
 800016a:	0b03      	lsrs	r3, r0, #12
 800016c:	428b      	cmp	r3, r1
 800016e:	d319      	bcc.n	80001a4 <__udivsi3+0x6c>
 8000170:	e000      	b.n	8000174 <__udivsi3+0x3c>
 8000172:	0a09      	lsrs	r1, r1, #8
 8000174:	0bc3      	lsrs	r3, r0, #15
 8000176:	428b      	cmp	r3, r1
 8000178:	d301      	bcc.n	800017e <__udivsi3+0x46>
 800017a:	03cb      	lsls	r3, r1, #15
 800017c:	1ac0      	subs	r0, r0, r3
 800017e:	4152      	adcs	r2, r2
 8000180:	0b83      	lsrs	r3, r0, #14
 8000182:	428b      	cmp	r3, r1
 8000184:	d301      	bcc.n	800018a <__udivsi3+0x52>
 8000186:	038b      	lsls	r3, r1, #14
 8000188:	1ac0      	subs	r0, r0, r3
 800018a:	4152      	adcs	r2, r2
 800018c:	0b43      	lsrs	r3, r0, #13
 800018e:	428b      	cmp	r3, r1
 8000190:	d301      	bcc.n	8000196 <__udivsi3+0x5e>
 8000192:	034b      	lsls	r3, r1, #13
 8000194:	1ac0      	subs	r0, r0, r3
 8000196:	4152      	adcs	r2, r2
 8000198:	0b03      	lsrs	r3, r0, #12
 800019a:	428b      	cmp	r3, r1
 800019c:	d301      	bcc.n	80001a2 <__udivsi3+0x6a>
 800019e:	030b      	lsls	r3, r1, #12
 80001a0:	1ac0      	subs	r0, r0, r3
 80001a2:	4152      	adcs	r2, r2
 80001a4:	0ac3      	lsrs	r3, r0, #11
 80001a6:	428b      	cmp	r3, r1
 80001a8:	d301      	bcc.n	80001ae <__udivsi3+0x76>
 80001aa:	02cb      	lsls	r3, r1, #11
 80001ac:	1ac0      	subs	r0, r0, r3
 80001ae:	4152      	adcs	r2, r2
 80001b0:	0a83      	lsrs	r3, r0, #10
 80001b2:	428b      	cmp	r3, r1
 80001b4:	d301      	bcc.n	80001ba <__udivsi3+0x82>
 80001b6:	028b      	lsls	r3, r1, #10
 80001b8:	1ac0      	subs	r0, r0, r3
 80001ba:	4152      	adcs	r2, r2
 80001bc:	0a43      	lsrs	r3, r0, #9
 80001be:	428b      	cmp	r3, r1
 80001c0:	d301      	bcc.n	80001c6 <__udivsi3+0x8e>
 80001c2:	024b      	lsls	r3, r1, #9
 80001c4:	1ac0      	subs	r0, r0, r3
 80001c6:	4152      	adcs	r2, r2
 80001c8:	0a03      	lsrs	r3, r0, #8
 80001ca:	428b      	cmp	r3, r1
 80001cc:	d301      	bcc.n	80001d2 <__udivsi3+0x9a>
 80001ce:	020b      	lsls	r3, r1, #8
 80001d0:	1ac0      	subs	r0, r0, r3
 80001d2:	4152      	adcs	r2, r2
 80001d4:	d2cd      	bcs.n	8000172 <__udivsi3+0x3a>
 80001d6:	09c3      	lsrs	r3, r0, #7
 80001d8:	428b      	cmp	r3, r1
 80001da:	d301      	bcc.n	80001e0 <__udivsi3+0xa8>
 80001dc:	01cb      	lsls	r3, r1, #7
 80001de:	1ac0      	subs	r0, r0, r3
 80001e0:	4152      	adcs	r2, r2
 80001e2:	0983      	lsrs	r3, r0, #6
 80001e4:	428b      	cmp	r3, r1
 80001e6:	d301      	bcc.n	80001ec <__udivsi3+0xb4>
 80001e8:	018b      	lsls	r3, r1, #6
 80001ea:	1ac0      	subs	r0, r0, r3
 80001ec:	4152      	adcs	r2, r2
 80001ee:	0943      	lsrs	r3, r0, #5
 80001f0:	428b      	cmp	r3, r1
 80001f2:	d301      	bcc.n	80001f8 <__udivsi3+0xc0>
 80001f4:	014b      	lsls	r3, r1, #5
 80001f6:	1ac0      	subs	r0, r0, r3
 80001f8:	4152      	adcs	r2, r2
 80001fa:	0903      	lsrs	r3, r0, #4
 80001fc:	428b      	cmp	r3, r1
 80001fe:	d301      	bcc.n	8000204 <__udivsi3+0xcc>
 8000200:	010b      	lsls	r3, r1, #4
 8000202:	1ac0      	subs	r0, r0, r3
 8000204:	4152      	adcs	r2, r2
 8000206:	08c3      	lsrs	r3, r0, #3
 8000208:	428b      	cmp	r3, r1
 800020a:	d301      	bcc.n	8000210 <__udivsi3+0xd8>
 800020c:	00cb      	lsls	r3, r1, #3
 800020e:	1ac0      	subs	r0, r0, r3
 8000210:	4152      	adcs	r2, r2
 8000212:	0883      	lsrs	r3, r0, #2
 8000214:	428b      	cmp	r3, r1
 8000216:	d301      	bcc.n	800021c <__udivsi3+0xe4>
 8000218:	008b      	lsls	r3, r1, #2
 800021a:	1ac0      	subs	r0, r0, r3
 800021c:	4152      	adcs	r2, r2
 800021e:	0843      	lsrs	r3, r0, #1
 8000220:	428b      	cmp	r3, r1
 8000222:	d301      	bcc.n	8000228 <__udivsi3+0xf0>
 8000224:	004b      	lsls	r3, r1, #1
 8000226:	1ac0      	subs	r0, r0, r3
 8000228:	4152      	adcs	r2, r2
 800022a:	1a41      	subs	r1, r0, r1
 800022c:	d200      	bcs.n	8000230 <__udivsi3+0xf8>
 800022e:	4601      	mov	r1, r0
 8000230:	4152      	adcs	r2, r2
 8000232:	4610      	mov	r0, r2
 8000234:	4770      	bx	lr
 8000236:	e7ff      	b.n	8000238 <__udivsi3+0x100>
 8000238:	b501      	push	{r0, lr}
 800023a:	2000      	movs	r0, #0
 800023c:	f000 f8f0 	bl	8000420 <__aeabi_idiv0>
 8000240:	bd02      	pop	{r1, pc}
 8000242:	46c0      	nop			; (mov r8, r8)

08000244 <__aeabi_uidivmod>:
 8000244:	2900      	cmp	r1, #0
 8000246:	d0f7      	beq.n	8000238 <__udivsi3+0x100>
 8000248:	e776      	b.n	8000138 <__udivsi3>
 800024a:	4770      	bx	lr

0800024c <__divsi3>:
 800024c:	4603      	mov	r3, r0
 800024e:	430b      	orrs	r3, r1
 8000250:	d47f      	bmi.n	8000352 <__divsi3+0x106>
 8000252:	2200      	movs	r2, #0
 8000254:	0843      	lsrs	r3, r0, #1
 8000256:	428b      	cmp	r3, r1
 8000258:	d374      	bcc.n	8000344 <__divsi3+0xf8>
 800025a:	0903      	lsrs	r3, r0, #4
 800025c:	428b      	cmp	r3, r1
 800025e:	d35f      	bcc.n	8000320 <__divsi3+0xd4>
 8000260:	0a03      	lsrs	r3, r0, #8
 8000262:	428b      	cmp	r3, r1
 8000264:	d344      	bcc.n	80002f0 <__divsi3+0xa4>
 8000266:	0b03      	lsrs	r3, r0, #12
 8000268:	428b      	cmp	r3, r1
 800026a:	d328      	bcc.n	80002be <__divsi3+0x72>
 800026c:	0c03      	lsrs	r3, r0, #16
 800026e:	428b      	cmp	r3, r1
 8000270:	d30d      	bcc.n	800028e <__divsi3+0x42>
 8000272:	22ff      	movs	r2, #255	; 0xff
 8000274:	0209      	lsls	r1, r1, #8
 8000276:	ba12      	rev	r2, r2
 8000278:	0c03      	lsrs	r3, r0, #16
 800027a:	428b      	cmp	r3, r1
 800027c:	d302      	bcc.n	8000284 <__divsi3+0x38>
 800027e:	1212      	asrs	r2, r2, #8
 8000280:	0209      	lsls	r1, r1, #8
 8000282:	d065      	beq.n	8000350 <__divsi3+0x104>
 8000284:	0b03      	lsrs	r3, r0, #12
 8000286:	428b      	cmp	r3, r1
 8000288:	d319      	bcc.n	80002be <__divsi3+0x72>
 800028a:	e000      	b.n	800028e <__divsi3+0x42>
 800028c:	0a09      	lsrs	r1, r1, #8
 800028e:	0bc3      	lsrs	r3, r0, #15
 8000290:	428b      	cmp	r3, r1
 8000292:	d301      	bcc.n	8000298 <__divsi3+0x4c>
 8000294:	03cb      	lsls	r3, r1, #15
 8000296:	1ac0      	subs	r0, r0, r3
 8000298:	4152      	adcs	r2, r2
 800029a:	0b83      	lsrs	r3, r0, #14
 800029c:	428b      	cmp	r3, r1
 800029e:	d301      	bcc.n	80002a4 <__divsi3+0x58>
 80002a0:	038b      	lsls	r3, r1, #14
 80002a2:	1ac0      	subs	r0, r0, r3
 80002a4:	4152      	adcs	r2, r2
 80002a6:	0b43      	lsrs	r3, r0, #13
 80002a8:	428b      	cmp	r3, r1
 80002aa:	d301      	bcc.n	80002b0 <__divsi3+0x64>
 80002ac:	034b      	lsls	r3, r1, #13
 80002ae:	1ac0      	subs	r0, r0, r3
 80002b0:	4152      	adcs	r2, r2
 80002b2:	0b03      	lsrs	r3, r0, #12
 80002b4:	428b      	cmp	r3, r1
 80002b6:	d301      	bcc.n	80002bc <__divsi3+0x70>
 80002b8:	030b      	lsls	r3, r1, #12
 80002ba:	1ac0      	subs	r0, r0, r3
 80002bc:	4152      	adcs	r2, r2
 80002be:	0ac3      	lsrs	r3, r0, #11
 80002c0:	428b      	cmp	r3, r1
 80002c2:	d301      	bcc.n	80002c8 <__divsi3+0x7c>
 80002c4:	02cb      	lsls	r3, r1, #11
 80002c6:	1ac0      	subs	r0, r0, r3
 80002c8:	4152      	adcs	r2, r2
 80002ca:	0a83      	lsrs	r3, r0, #10
 80002cc:	428b      	cmp	r3, r1
 80002ce:	d301      	bcc.n	80002d4 <__divsi3+0x88>
 80002d0:	028b      	lsls	r3, r1, #10
 80002d2:	1ac0      	subs	r0, r0, r3
 80002d4:	4152      	adcs	r2, r2
 80002d6:	0a43      	lsrs	r3, r0, #9
 80002d8:	428b      	cmp	r3, r1
 80002da:	d301      	bcc.n	80002e0 <__divsi3+0x94>
 80002dc:	024b      	lsls	r3, r1, #9
 80002de:	1ac0      	subs	r0, r0, r3
 80002e0:	4152      	adcs	r2, r2
 80002e2:	0a03      	lsrs	r3, r0, #8
 80002e4:	428b      	cmp	r3, r1
 80002e6:	d301      	bcc.n	80002ec <__divsi3+0xa0>
 80002e8:	020b      	lsls	r3, r1, #8
 80002ea:	1ac0      	subs	r0, r0, r3
 80002ec:	4152      	adcs	r2, r2
 80002ee:	d2cd      	bcs.n	800028c <__divsi3+0x40>
 80002f0:	09c3      	lsrs	r3, r0, #7
 80002f2:	428b      	cmp	r3, r1
 80002f4:	d301      	bcc.n	80002fa <__divsi3+0xae>
 80002f6:	01cb      	lsls	r3, r1, #7
 80002f8:	1ac0      	subs	r0, r0, r3
 80002fa:	4152      	adcs	r2, r2
 80002fc:	0983      	lsrs	r3, r0, #6
 80002fe:	428b      	cmp	r3, r1
 8000300:	d301      	bcc.n	8000306 <__divsi3+0xba>
 8000302:	018b      	lsls	r3, r1, #6
 8000304:	1ac0      	subs	r0, r0, r3
 8000306:	4152      	adcs	r2, r2
 8000308:	0943      	lsrs	r3, r0, #5
 800030a:	428b      	cmp	r3, r1
 800030c:	d301      	bcc.n	8000312 <__divsi3+0xc6>
 800030e:	014b      	lsls	r3, r1, #5
 8000310:	1ac0      	subs	r0, r0, r3
 8000312:	4152      	adcs	r2, r2
 8000314:	0903      	lsrs	r3, r0, #4
 8000316:	428b      	cmp	r3, r1
 8000318:	d301      	bcc.n	800031e <__divsi3+0xd2>
 800031a:	010b      	lsls	r3, r1, #4
 800031c:	1ac0      	subs	r0, r0, r3
 800031e:	4152      	adcs	r2, r2
 8000320:	08c3      	lsrs	r3, r0, #3
 8000322:	428b      	cmp	r3, r1
 8000324:	d301      	bcc.n	800032a <__divsi3+0xde>
 8000326:	00cb      	lsls	r3, r1, #3
 8000328:	1ac0      	subs	r0, r0, r3
 800032a:	4152      	adcs	r2, r2
 800032c:	0883      	lsrs	r3, r0, #2
 800032e:	428b      	cmp	r3, r1
 8000330:	d301      	bcc.n	8000336 <__divsi3+0xea>
 8000332:	008b      	lsls	r3, r1, #2
 8000334:	1ac0      	subs	r0, r0, r3
 8000336:	4152      	adcs	r2, r2
 8000338:	0843      	lsrs	r3, r0, #1
 800033a:	428b      	cmp	r3, r1
 800033c:	d301      	bcc.n	8000342 <__divsi3+0xf6>
 800033e:	004b      	lsls	r3, r1, #1
 8000340:	1ac0      	subs	r0, r0, r3
 8000342:	4152      	adcs	r2, r2
 8000344:	1a41      	subs	r1, r0, r1
 8000346:	d200      	bcs.n	800034a <__divsi3+0xfe>
 8000348:	4601      	mov	r1, r0
 800034a:	4152      	adcs	r2, r2
 800034c:	4610      	mov	r0, r2
 800034e:	4770      	bx	lr
 8000350:	e05d      	b.n	800040e <__divsi3+0x1c2>
 8000352:	0fca      	lsrs	r2, r1, #31
 8000354:	d000      	beq.n	8000358 <__divsi3+0x10c>
 8000356:	4249      	negs	r1, r1
 8000358:	1003      	asrs	r3, r0, #32
 800035a:	d300      	bcc.n	800035e <__divsi3+0x112>
 800035c:	4240      	negs	r0, r0
 800035e:	4053      	eors	r3, r2
 8000360:	2200      	movs	r2, #0
 8000362:	469c      	mov	ip, r3
 8000364:	0903      	lsrs	r3, r0, #4
 8000366:	428b      	cmp	r3, r1
 8000368:	d32d      	bcc.n	80003c6 <__divsi3+0x17a>
 800036a:	0a03      	lsrs	r3, r0, #8
 800036c:	428b      	cmp	r3, r1
 800036e:	d312      	bcc.n	8000396 <__divsi3+0x14a>
 8000370:	22fc      	movs	r2, #252	; 0xfc
 8000372:	0189      	lsls	r1, r1, #6
 8000374:	ba12      	rev	r2, r2
 8000376:	0a03      	lsrs	r3, r0, #8
 8000378:	428b      	cmp	r3, r1
 800037a:	d30c      	bcc.n	8000396 <__divsi3+0x14a>
 800037c:	0189      	lsls	r1, r1, #6
 800037e:	1192      	asrs	r2, r2, #6
 8000380:	428b      	cmp	r3, r1
 8000382:	d308      	bcc.n	8000396 <__divsi3+0x14a>
 8000384:	0189      	lsls	r1, r1, #6
 8000386:	1192      	asrs	r2, r2, #6
 8000388:	428b      	cmp	r3, r1
 800038a:	d304      	bcc.n	8000396 <__divsi3+0x14a>
 800038c:	0189      	lsls	r1, r1, #6
 800038e:	d03a      	beq.n	8000406 <__divsi3+0x1ba>
 8000390:	1192      	asrs	r2, r2, #6
 8000392:	e000      	b.n	8000396 <__divsi3+0x14a>
 8000394:	0989      	lsrs	r1, r1, #6
 8000396:	09c3      	lsrs	r3, r0, #7
 8000398:	428b      	cmp	r3, r1
 800039a:	d301      	bcc.n	80003a0 <__divsi3+0x154>
 800039c:	01cb      	lsls	r3, r1, #7
 800039e:	1ac0      	subs	r0, r0, r3
 80003a0:	4152      	adcs	r2, r2
 80003a2:	0983      	lsrs	r3, r0, #6
 80003a4:	428b      	cmp	r3, r1
 80003a6:	d301      	bcc.n	80003ac <__divsi3+0x160>
 80003a8:	018b      	lsls	r3, r1, #6
 80003aa:	1ac0      	subs	r0, r0, r3
 80003ac:	4152      	adcs	r2, r2
 80003ae:	0943      	lsrs	r3, r0, #5
 80003b0:	428b      	cmp	r3, r1
 80003b2:	d301      	bcc.n	80003b8 <__divsi3+0x16c>
 80003b4:	014b      	lsls	r3, r1, #5
 80003b6:	1ac0      	subs	r0, r0, r3
 80003b8:	4152      	adcs	r2, r2
 80003ba:	0903      	lsrs	r3, r0, #4
 80003bc:	428b      	cmp	r3, r1
 80003be:	d301      	bcc.n	80003c4 <__divsi3+0x178>
 80003c0:	010b      	lsls	r3, r1, #4
 80003c2:	1ac0      	subs	r0, r0, r3
 80003c4:	4152      	adcs	r2, r2
 80003c6:	08c3      	lsrs	r3, r0, #3
 80003c8:	428b      	cmp	r3, r1
 80003ca:	d301      	bcc.n	80003d0 <__divsi3+0x184>
 80003cc:	00cb      	lsls	r3, r1, #3
 80003ce:	1ac0      	subs	r0, r0, r3
 80003d0:	4152      	adcs	r2, r2
 80003d2:	0883      	lsrs	r3, r0, #2
 80003d4:	428b      	cmp	r3, r1
 80003d6:	d301      	bcc.n	80003dc <__divsi3+0x190>
 80003d8:	008b      	lsls	r3, r1, #2
 80003da:	1ac0      	subs	r0, r0, r3
 80003dc:	4152      	adcs	r2, r2
 80003de:	d2d9      	bcs.n	8000394 <__divsi3+0x148>
 80003e0:	0843      	lsrs	r3, r0, #1
 80003e2:	428b      	cmp	r3, r1
 80003e4:	d301      	bcc.n	80003ea <__divsi3+0x19e>
 80003e6:	004b      	lsls	r3, r1, #1
 80003e8:	1ac0      	subs	r0, r0, r3
 80003ea:	4152      	adcs	r2, r2
 80003ec:	1a41      	subs	r1, r0, r1
 80003ee:	d200      	bcs.n	80003f2 <__divsi3+0x1a6>
 80003f0:	4601      	mov	r1, r0
 80003f2:	4663      	mov	r3, ip
 80003f4:	4152      	adcs	r2, r2
 80003f6:	105b      	asrs	r3, r3, #1
 80003f8:	4610      	mov	r0, r2
 80003fa:	d301      	bcc.n	8000400 <__divsi3+0x1b4>
 80003fc:	4240      	negs	r0, r0
 80003fe:	2b00      	cmp	r3, #0
 8000400:	d500      	bpl.n	8000404 <__divsi3+0x1b8>
 8000402:	4249      	negs	r1, r1
 8000404:	4770      	bx	lr
 8000406:	4663      	mov	r3, ip
 8000408:	105b      	asrs	r3, r3, #1
 800040a:	d300      	bcc.n	800040e <__divsi3+0x1c2>
 800040c:	4240      	negs	r0, r0
 800040e:	b501      	push	{r0, lr}
 8000410:	2000      	movs	r0, #0
 8000412:	f000 f805 	bl	8000420 <__aeabi_idiv0>
 8000416:	bd02      	pop	{r1, pc}

08000418 <__aeabi_idivmod>:
 8000418:	2900      	cmp	r1, #0
 800041a:	d0f8      	beq.n	800040e <__divsi3+0x1c2>
 800041c:	e716      	b.n	800024c <__divsi3>
 800041e:	4770      	bx	lr

08000420 <__aeabi_idiv0>:
 8000420:	4770      	bx	lr
 8000422:	46c0      	nop			; (mov r8, r8)

08000424 <__aeabi_cdrcmple>:
 8000424:	4684      	mov	ip, r0
 8000426:	1c10      	adds	r0, r2, #0
 8000428:	4662      	mov	r2, ip
 800042a:	468c      	mov	ip, r1
 800042c:	1c19      	adds	r1, r3, #0
 800042e:	4663      	mov	r3, ip
 8000430:	e000      	b.n	8000434 <__aeabi_cdcmpeq>
 8000432:	46c0      	nop			; (mov r8, r8)

08000434 <__aeabi_cdcmpeq>:
 8000434:	b51f      	push	{r0, r1, r2, r3, r4, lr}
 8000436:	f001 fa8b 	bl	8001950 <__ledf2>
 800043a:	2800      	cmp	r0, #0
 800043c:	d401      	bmi.n	8000442 <__aeabi_cdcmpeq+0xe>
 800043e:	2100      	movs	r1, #0
 8000440:	42c8      	cmn	r0, r1
 8000442:	bd1f      	pop	{r0, r1, r2, r3, r4, pc}

08000444 <__aeabi_dcmpeq>:
 8000444:	b510      	push	{r4, lr}
 8000446:	f001 f9d5 	bl	80017f4 <__eqdf2>
 800044a:	4240      	negs	r0, r0
 800044c:	3001      	adds	r0, #1
 800044e:	bd10      	pop	{r4, pc}

08000450 <__aeabi_dcmplt>:
 8000450:	b510      	push	{r4, lr}
 8000452:	f001 fa7d 	bl	8001950 <__ledf2>
 8000456:	2800      	cmp	r0, #0
 8000458:	db01      	blt.n	800045e <__aeabi_dcmplt+0xe>
 800045a:	2000      	movs	r0, #0
 800045c:	bd10      	pop	{r4, pc}
 800045e:	2001      	movs	r0, #1
 8000460:	bd10      	pop	{r4, pc}
 8000462:	46c0      	nop			; (mov r8, r8)

08000464 <__aeabi_dcmple>:
 8000464:	b510      	push	{r4, lr}
 8000466:	f001 fa73 	bl	8001950 <__ledf2>
 800046a:	2800      	cmp	r0, #0
 800046c:	dd01      	ble.n	8000472 <__aeabi_dcmple+0xe>
 800046e:	2000      	movs	r0, #0
 8000470:	bd10      	pop	{r4, pc}
 8000472:	2001      	movs	r0, #1
 8000474:	bd10      	pop	{r4, pc}
 8000476:	46c0      	nop			; (mov r8, r8)

08000478 <__aeabi_dcmpgt>:
 8000478:	b510      	push	{r4, lr}
 800047a:	f001 f9f7 	bl	800186c <__gedf2>
 800047e:	2800      	cmp	r0, #0
 8000480:	dc01      	bgt.n	8000486 <__aeabi_dcmpgt+0xe>
 8000482:	2000      	movs	r0, #0
 8000484:	bd10      	pop	{r4, pc}
 8000486:	2001      	movs	r0, #1
 8000488:	bd10      	pop	{r4, pc}
 800048a:	46c0      	nop			; (mov r8, r8)

0800048c <__aeabi_dcmpge>:
 800048c:	b510      	push	{r4, lr}
 800048e:	f001 f9ed 	bl	800186c <__gedf2>
 8000492:	2800      	cmp	r0, #0
 8000494:	da01      	bge.n	800049a <__aeabi_dcmpge+0xe>
 8000496:	2000      	movs	r0, #0
 8000498:	bd10      	pop	{r4, pc}
 800049a:	2001      	movs	r0, #1
 800049c:	bd10      	pop	{r4, pc}
 800049e:	46c0      	nop			; (mov r8, r8)

080004a0 <__aeabi_uldivmod>:
 80004a0:	2b00      	cmp	r3, #0
 80004a2:	d111      	bne.n	80004c8 <__aeabi_uldivmod+0x28>
 80004a4:	2a00      	cmp	r2, #0
 80004a6:	d10f      	bne.n	80004c8 <__aeabi_uldivmod+0x28>
 80004a8:	2900      	cmp	r1, #0
 80004aa:	d100      	bne.n	80004ae <__aeabi_uldivmod+0xe>
 80004ac:	2800      	cmp	r0, #0
 80004ae:	d002      	beq.n	80004b6 <__aeabi_uldivmod+0x16>
 80004b0:	2100      	movs	r1, #0
 80004b2:	43c9      	mvns	r1, r1
 80004b4:	1c08      	adds	r0, r1, #0
 80004b6:	b407      	push	{r0, r1, r2}
 80004b8:	4802      	ldr	r0, [pc, #8]	; (80004c4 <__aeabi_uldivmod+0x24>)
 80004ba:	a102      	add	r1, pc, #8	; (adr r1, 80004c4 <__aeabi_uldivmod+0x24>)
 80004bc:	1840      	adds	r0, r0, r1
 80004be:	9002      	str	r0, [sp, #8]
 80004c0:	bd03      	pop	{r0, r1, pc}
 80004c2:	46c0      	nop			; (mov r8, r8)
 80004c4:	ffffff5d 	.word	0xffffff5d
 80004c8:	b403      	push	{r0, r1}
 80004ca:	4668      	mov	r0, sp
 80004cc:	b501      	push	{r0, lr}
 80004ce:	9802      	ldr	r0, [sp, #8]
 80004d0:	f000 f806 	bl	80004e0 <__udivmoddi4>
 80004d4:	9b01      	ldr	r3, [sp, #4]
 80004d6:	469e      	mov	lr, r3
 80004d8:	b002      	add	sp, #8
 80004da:	bc0c      	pop	{r2, r3}
 80004dc:	4770      	bx	lr
 80004de:	46c0      	nop			; (mov r8, r8)

080004e0 <__udivmoddi4>:
 80004e0:	b5f0      	push	{r4, r5, r6, r7, lr}
 80004e2:	4657      	mov	r7, sl
 80004e4:	464e      	mov	r6, r9
 80004e6:	4645      	mov	r5, r8
 80004e8:	46de      	mov	lr, fp
 80004ea:	b5e0      	push	{r5, r6, r7, lr}
 80004ec:	0004      	movs	r4, r0
 80004ee:	000d      	movs	r5, r1
 80004f0:	4692      	mov	sl, r2
 80004f2:	4699      	mov	r9, r3
 80004f4:	b083      	sub	sp, #12
 80004f6:	428b      	cmp	r3, r1
 80004f8:	d830      	bhi.n	800055c <__udivmoddi4+0x7c>
 80004fa:	d02d      	beq.n	8000558 <__udivmoddi4+0x78>
 80004fc:	4649      	mov	r1, r9
 80004fe:	4650      	mov	r0, sl
 8000500:	f002 f9a4 	bl	800284c <__clzdi2>
 8000504:	0029      	movs	r1, r5
 8000506:	0006      	movs	r6, r0
 8000508:	0020      	movs	r0, r4
 800050a:	f002 f99f 	bl	800284c <__clzdi2>
 800050e:	1a33      	subs	r3, r6, r0
 8000510:	4698      	mov	r8, r3
 8000512:	3b20      	subs	r3, #32
 8000514:	469b      	mov	fp, r3
 8000516:	d433      	bmi.n	8000580 <__udivmoddi4+0xa0>
 8000518:	465a      	mov	r2, fp
 800051a:	4653      	mov	r3, sl
 800051c:	4093      	lsls	r3, r2
 800051e:	4642      	mov	r2, r8
 8000520:	001f      	movs	r7, r3
 8000522:	4653      	mov	r3, sl
 8000524:	4093      	lsls	r3, r2
 8000526:	001e      	movs	r6, r3
 8000528:	42af      	cmp	r7, r5
 800052a:	d83a      	bhi.n	80005a2 <__udivmoddi4+0xc2>
 800052c:	42af      	cmp	r7, r5
 800052e:	d100      	bne.n	8000532 <__udivmoddi4+0x52>
 8000530:	e078      	b.n	8000624 <__udivmoddi4+0x144>
 8000532:	465b      	mov	r3, fp
 8000534:	1ba4      	subs	r4, r4, r6
 8000536:	41bd      	sbcs	r5, r7
 8000538:	2b00      	cmp	r3, #0
 800053a:	da00      	bge.n	800053e <__udivmoddi4+0x5e>
 800053c:	e075      	b.n	800062a <__udivmoddi4+0x14a>
 800053e:	2200      	movs	r2, #0
 8000540:	2300      	movs	r3, #0
 8000542:	9200      	str	r2, [sp, #0]
 8000544:	9301      	str	r3, [sp, #4]
 8000546:	2301      	movs	r3, #1
 8000548:	465a      	mov	r2, fp
 800054a:	4093      	lsls	r3, r2
 800054c:	9301      	str	r3, [sp, #4]
 800054e:	2301      	movs	r3, #1
 8000550:	4642      	mov	r2, r8
 8000552:	4093      	lsls	r3, r2
 8000554:	9300      	str	r3, [sp, #0]
 8000556:	e028      	b.n	80005aa <__udivmoddi4+0xca>
 8000558:	4282      	cmp	r2, r0
 800055a:	d9cf      	bls.n	80004fc <__udivmoddi4+0x1c>
 800055c:	2200      	movs	r2, #0
 800055e:	2300      	movs	r3, #0
 8000560:	9200      	str	r2, [sp, #0]
 8000562:	9301      	str	r3, [sp, #4]
 8000564:	9b0c      	ldr	r3, [sp, #48]	; 0x30
 8000566:	2b00      	cmp	r3, #0
 8000568:	d001      	beq.n	800056e <__udivmoddi4+0x8e>
 800056a:	601c      	str	r4, [r3, #0]
 800056c:	605d      	str	r5, [r3, #4]
 800056e:	9800      	ldr	r0, [sp, #0]
 8000570:	9901      	ldr	r1, [sp, #4]
 8000572:	b003      	add	sp, #12
 8000574:	bcf0      	pop	{r4, r5, r6, r7}
 8000576:	46bb      	mov	fp, r7
 8000578:	46b2      	mov	sl, r6
 800057a:	46a9      	mov	r9, r5
 800057c:	46a0      	mov	r8, r4
 800057e:	bdf0      	pop	{r4, r5, r6, r7, pc}
 8000580:	4642      	mov	r2, r8
 8000582:	2320      	movs	r3, #32
 8000584:	1a9b      	subs	r3, r3, r2
 8000586:	4652      	mov	r2, sl
 8000588:	40da      	lsrs	r2, r3
 800058a:	4641      	mov	r1, r8
 800058c:	0013      	movs	r3, r2
 800058e:	464a      	mov	r2, r9
 8000590:	408a      	lsls	r2, r1
 8000592:	0017      	movs	r7, r2
 8000594:	4642      	mov	r2, r8
 8000596:	431f      	orrs	r7, r3
 8000598:	4653      	mov	r3, sl
 800059a:	4093      	lsls	r3, r2
 800059c:	001e      	movs	r6, r3
 800059e:	42af      	cmp	r7, r5
 80005a0:	d9c4      	bls.n	800052c <__udivmoddi4+0x4c>
 80005a2:	2200      	movs	r2, #0
 80005a4:	2300      	movs	r3, #0
 80005a6:	9200      	str	r2, [sp, #0]
 80005a8:	9301      	str	r3, [sp, #4]
 80005aa:	4643      	mov	r3, r8
 80005ac:	2b00      	cmp	r3, #0
 80005ae:	d0d9      	beq.n	8000564 <__udivmoddi4+0x84>
 80005b0:	07fb      	lsls	r3, r7, #31
 80005b2:	0872      	lsrs	r2, r6, #1
 80005b4:	431a      	orrs	r2, r3
 80005b6:	4646      	mov	r6, r8
 80005b8:	087b      	lsrs	r3, r7, #1
 80005ba:	e00e      	b.n	80005da <__udivmoddi4+0xfa>
 80005bc:	42ab      	cmp	r3, r5
 80005be:	d101      	bne.n	80005c4 <__udivmoddi4+0xe4>
 80005c0:	42a2      	cmp	r2, r4
 80005c2:	d80c      	bhi.n	80005de <__udivmoddi4+0xfe>
 80005c4:	1aa4      	subs	r4, r4, r2
 80005c6:	419d      	sbcs	r5, r3
 80005c8:	2001      	movs	r0, #1
 80005ca:	1924      	adds	r4, r4, r4
 80005cc:	416d      	adcs	r5, r5
 80005ce:	2100      	movs	r1, #0
 80005d0:	3e01      	subs	r6, #1
 80005d2:	1824      	adds	r4, r4, r0
 80005d4:	414d      	adcs	r5, r1
 80005d6:	2e00      	cmp	r6, #0
 80005d8:	d006      	beq.n	80005e8 <__udivmoddi4+0x108>
 80005da:	42ab      	cmp	r3, r5
 80005dc:	d9ee      	bls.n	80005bc <__udivmoddi4+0xdc>
 80005de:	3e01      	subs	r6, #1
 80005e0:	1924      	adds	r4, r4, r4
 80005e2:	416d      	adcs	r5, r5
 80005e4:	2e00      	cmp	r6, #0
 80005e6:	d1f8      	bne.n	80005da <__udivmoddi4+0xfa>
 80005e8:	9800      	ldr	r0, [sp, #0]
 80005ea:	9901      	ldr	r1, [sp, #4]
 80005ec:	465b      	mov	r3, fp
 80005ee:	1900      	adds	r0, r0, r4
 80005f0:	4169      	adcs	r1, r5
 80005f2:	2b00      	cmp	r3, #0
 80005f4:	db24      	blt.n	8000640 <__udivmoddi4+0x160>
 80005f6:	002b      	movs	r3, r5
 80005f8:	465a      	mov	r2, fp
 80005fa:	4644      	mov	r4, r8
 80005fc:	40d3      	lsrs	r3, r2
 80005fe:	002a      	movs	r2, r5
 8000600:	40e2      	lsrs	r2, r4
 8000602:	001c      	movs	r4, r3
 8000604:	465b      	mov	r3, fp
 8000606:	0015      	movs	r5, r2
 8000608:	2b00      	cmp	r3, #0
 800060a:	db2a      	blt.n	8000662 <__udivmoddi4+0x182>
 800060c:	0026      	movs	r6, r4
 800060e:	409e      	lsls	r6, r3
 8000610:	0033      	movs	r3, r6
 8000612:	0026      	movs	r6, r4
 8000614:	4647      	mov	r7, r8
 8000616:	40be      	lsls	r6, r7
 8000618:	0032      	movs	r2, r6
 800061a:	1a80      	subs	r0, r0, r2
 800061c:	4199      	sbcs	r1, r3
 800061e:	9000      	str	r0, [sp, #0]
 8000620:	9101      	str	r1, [sp, #4]
 8000622:	e79f      	b.n	8000564 <__udivmoddi4+0x84>
 8000624:	42a3      	cmp	r3, r4
 8000626:	d8bc      	bhi.n	80005a2 <__udivmoddi4+0xc2>
 8000628:	e783      	b.n	8000532 <__udivmoddi4+0x52>
 800062a:	4642      	mov	r2, r8
 800062c:	2320      	movs	r3, #32
 800062e:	2100      	movs	r1, #0
 8000630:	1a9b      	subs	r3, r3, r2
 8000632:	2200      	movs	r2, #0
 8000634:	9100      	str	r1, [sp, #0]
 8000636:	9201      	str	r2, [sp, #4]
 8000638:	2201      	movs	r2, #1
 800063a:	40da      	lsrs	r2, r3
 800063c:	9201      	str	r2, [sp, #4]
 800063e:	e786      	b.n	800054e <__udivmoddi4+0x6e>
 8000640:	4642      	mov	r2, r8
 8000642:	2320      	movs	r3, #32
 8000644:	1a9b      	subs	r3, r3, r2
 8000646:	002a      	movs	r2, r5
 8000648:	4646      	mov	r6, r8
 800064a:	409a      	lsls	r2, r3
 800064c:	0023      	movs	r3, r4
 800064e:	40f3      	lsrs	r3, r6
 8000650:	4644      	mov	r4, r8
 8000652:	4313      	orrs	r3, r2
 8000654:	002a      	movs	r2, r5
 8000656:	40e2      	lsrs	r2, r4
 8000658:	001c      	movs	r4, r3
 800065a:	465b      	mov	r3, fp
 800065c:	0015      	movs	r5, r2
 800065e:	2b00      	cmp	r3, #0
 8000660:	dad4      	bge.n	800060c <__udivmoddi4+0x12c>
 8000662:	4642      	mov	r2, r8
 8000664:	002f      	movs	r7, r5
 8000666:	2320      	movs	r3, #32
 8000668:	0026      	movs	r6, r4
 800066a:	4097      	lsls	r7, r2
 800066c:	1a9b      	subs	r3, r3, r2
 800066e:	40de      	lsrs	r6, r3
 8000670:	003b      	movs	r3, r7
 8000672:	4333      	orrs	r3, r6
 8000674:	e7cd      	b.n	8000612 <__udivmoddi4+0x132>
 8000676:	46c0      	nop			; (mov r8, r8)

08000678 <__aeabi_fdiv>:
 8000678:	b5f0      	push	{r4, r5, r6, r7, lr}
 800067a:	464f      	mov	r7, r9
 800067c:	4646      	mov	r6, r8
 800067e:	46d6      	mov	lr, sl
 8000680:	0245      	lsls	r5, r0, #9
 8000682:	b5c0      	push	{r6, r7, lr}
 8000684:	0047      	lsls	r7, r0, #1
 8000686:	1c0c      	adds	r4, r1, #0
 8000688:	0a6d      	lsrs	r5, r5, #9
 800068a:	0e3f      	lsrs	r7, r7, #24
 800068c:	0fc6      	lsrs	r6, r0, #31
 800068e:	2f00      	cmp	r7, #0
 8000690:	d066      	beq.n	8000760 <__aeabi_fdiv+0xe8>
 8000692:	2fff      	cmp	r7, #255	; 0xff
 8000694:	d06c      	beq.n	8000770 <__aeabi_fdiv+0xf8>
 8000696:	2300      	movs	r3, #0
 8000698:	00ea      	lsls	r2, r5, #3
 800069a:	2580      	movs	r5, #128	; 0x80
 800069c:	4699      	mov	r9, r3
 800069e:	469a      	mov	sl, r3
 80006a0:	04ed      	lsls	r5, r5, #19
 80006a2:	4315      	orrs	r5, r2
 80006a4:	3f7f      	subs	r7, #127	; 0x7f
 80006a6:	0260      	lsls	r0, r4, #9
 80006a8:	0061      	lsls	r1, r4, #1
 80006aa:	0a43      	lsrs	r3, r0, #9
 80006ac:	4698      	mov	r8, r3
 80006ae:	0e09      	lsrs	r1, r1, #24
 80006b0:	0fe4      	lsrs	r4, r4, #31
 80006b2:	2900      	cmp	r1, #0
 80006b4:	d048      	beq.n	8000748 <__aeabi_fdiv+0xd0>
 80006b6:	29ff      	cmp	r1, #255	; 0xff
 80006b8:	d010      	beq.n	80006dc <__aeabi_fdiv+0x64>
 80006ba:	2280      	movs	r2, #128	; 0x80
 80006bc:	00d8      	lsls	r0, r3, #3
 80006be:	04d2      	lsls	r2, r2, #19
 80006c0:	4302      	orrs	r2, r0
 80006c2:	4690      	mov	r8, r2
 80006c4:	2000      	movs	r0, #0
 80006c6:	397f      	subs	r1, #127	; 0x7f
 80006c8:	464a      	mov	r2, r9
 80006ca:	0033      	movs	r3, r6
 80006cc:	1a7f      	subs	r7, r7, r1
 80006ce:	4302      	orrs	r2, r0
 80006d0:	496c      	ldr	r1, [pc, #432]	; (8000884 <__aeabi_fdiv+0x20c>)
 80006d2:	0092      	lsls	r2, r2, #2
 80006d4:	588a      	ldr	r2, [r1, r2]
 80006d6:	4063      	eors	r3, r4
 80006d8:	b2db      	uxtb	r3, r3
 80006da:	4697      	mov	pc, r2
 80006dc:	2b00      	cmp	r3, #0
 80006de:	d16d      	bne.n	80007bc <__aeabi_fdiv+0x144>
 80006e0:	2002      	movs	r0, #2
 80006e2:	3fff      	subs	r7, #255	; 0xff
 80006e4:	e033      	b.n	800074e <__aeabi_fdiv+0xd6>
 80006e6:	2300      	movs	r3, #0
 80006e8:	4698      	mov	r8, r3
 80006ea:	0026      	movs	r6, r4
 80006ec:	4645      	mov	r5, r8
 80006ee:	4682      	mov	sl, r0
 80006f0:	4653      	mov	r3, sl
 80006f2:	2b02      	cmp	r3, #2
 80006f4:	d100      	bne.n	80006f8 <__aeabi_fdiv+0x80>
 80006f6:	e07f      	b.n	80007f8 <__aeabi_fdiv+0x180>
 80006f8:	2b03      	cmp	r3, #3
 80006fa:	d100      	bne.n	80006fe <__aeabi_fdiv+0x86>
 80006fc:	e094      	b.n	8000828 <__aeabi_fdiv+0x1b0>
 80006fe:	2b01      	cmp	r3, #1
 8000700:	d017      	beq.n	8000732 <__aeabi_fdiv+0xba>
 8000702:	0038      	movs	r0, r7
 8000704:	307f      	adds	r0, #127	; 0x7f
 8000706:	2800      	cmp	r0, #0
 8000708:	dd5f      	ble.n	80007ca <__aeabi_fdiv+0x152>
 800070a:	076b      	lsls	r3, r5, #29
 800070c:	d004      	beq.n	8000718 <__aeabi_fdiv+0xa0>
 800070e:	230f      	movs	r3, #15
 8000710:	402b      	ands	r3, r5
 8000712:	2b04      	cmp	r3, #4
 8000714:	d000      	beq.n	8000718 <__aeabi_fdiv+0xa0>
 8000716:	3504      	adds	r5, #4
 8000718:	012b      	lsls	r3, r5, #4
 800071a:	d503      	bpl.n	8000724 <__aeabi_fdiv+0xac>
 800071c:	0038      	movs	r0, r7
 800071e:	4b5a      	ldr	r3, [pc, #360]	; (8000888 <__aeabi_fdiv+0x210>)
 8000720:	3080      	adds	r0, #128	; 0x80
 8000722:	401d      	ands	r5, r3
 8000724:	28fe      	cmp	r0, #254	; 0xfe
 8000726:	dc67      	bgt.n	80007f8 <__aeabi_fdiv+0x180>
 8000728:	01ad      	lsls	r5, r5, #6
 800072a:	0a6d      	lsrs	r5, r5, #9
 800072c:	b2c0      	uxtb	r0, r0
 800072e:	e002      	b.n	8000736 <__aeabi_fdiv+0xbe>
 8000730:	001e      	movs	r6, r3
 8000732:	2000      	movs	r0, #0
 8000734:	2500      	movs	r5, #0
 8000736:	05c0      	lsls	r0, r0, #23
 8000738:	4328      	orrs	r0, r5
 800073a:	07f6      	lsls	r6, r6, #31
 800073c:	4330      	orrs	r0, r6
 800073e:	bce0      	pop	{r5, r6, r7}
 8000740:	46ba      	mov	sl, r7
 8000742:	46b1      	mov	r9, r6
 8000744:	46a8      	mov	r8, r5
 8000746:	bdf0      	pop	{r4, r5, r6, r7, pc}
 8000748:	2b00      	cmp	r3, #0
 800074a:	d12b      	bne.n	80007a4 <__aeabi_fdiv+0x12c>
 800074c:	2001      	movs	r0, #1
 800074e:	464a      	mov	r2, r9
 8000750:	0033      	movs	r3, r6
 8000752:	494e      	ldr	r1, [pc, #312]	; (800088c <__aeabi_fdiv+0x214>)
 8000754:	4302      	orrs	r2, r0
 8000756:	0092      	lsls	r2, r2, #2
 8000758:	588a      	ldr	r2, [r1, r2]
 800075a:	4063      	eors	r3, r4
 800075c:	b2db      	uxtb	r3, r3
 800075e:	4697      	mov	pc, r2
 8000760:	2d00      	cmp	r5, #0
 8000762:	d113      	bne.n	800078c <__aeabi_fdiv+0x114>
 8000764:	2304      	movs	r3, #4
 8000766:	4699      	mov	r9, r3
 8000768:	3b03      	subs	r3, #3
 800076a:	2700      	movs	r7, #0
 800076c:	469a      	mov	sl, r3
 800076e:	e79a      	b.n	80006a6 <__aeabi_fdiv+0x2e>
 8000770:	2d00      	cmp	r5, #0
 8000772:	d105      	bne.n	8000780 <__aeabi_fdiv+0x108>
 8000774:	2308      	movs	r3, #8
 8000776:	4699      	mov	r9, r3
 8000778:	3b06      	subs	r3, #6
 800077a:	27ff      	movs	r7, #255	; 0xff
 800077c:	469a      	mov	sl, r3
 800077e:	e792      	b.n	80006a6 <__aeabi_fdiv+0x2e>
 8000780:	230c      	movs	r3, #12
 8000782:	4699      	mov	r9, r3
 8000784:	3b09      	subs	r3, #9
 8000786:	27ff      	movs	r7, #255	; 0xff
 8000788:	469a      	mov	sl, r3
 800078a:	e78c      	b.n	80006a6 <__aeabi_fdiv+0x2e>
 800078c:	0028      	movs	r0, r5
 800078e:	f002 f83f 	bl	8002810 <__clzsi2>
 8000792:	2776      	movs	r7, #118	; 0x76
 8000794:	1f43      	subs	r3, r0, #5
 8000796:	409d      	lsls	r5, r3
 8000798:	2300      	movs	r3, #0
 800079a:	427f      	negs	r7, r7
 800079c:	4699      	mov	r9, r3
 800079e:	469a      	mov	sl, r3
 80007a0:	1a3f      	subs	r7, r7, r0
 80007a2:	e780      	b.n	80006a6 <__aeabi_fdiv+0x2e>
 80007a4:	0018      	movs	r0, r3
 80007a6:	f002 f833 	bl	8002810 <__clzsi2>
 80007aa:	4642      	mov	r2, r8
 80007ac:	1f43      	subs	r3, r0, #5
 80007ae:	2176      	movs	r1, #118	; 0x76
 80007b0:	409a      	lsls	r2, r3
 80007b2:	4249      	negs	r1, r1
 80007b4:	1a09      	subs	r1, r1, r0
 80007b6:	4690      	mov	r8, r2
 80007b8:	2000      	movs	r0, #0
 80007ba:	e785      	b.n	80006c8 <__aeabi_fdiv+0x50>
 80007bc:	21ff      	movs	r1, #255	; 0xff
 80007be:	2003      	movs	r0, #3
 80007c0:	e782      	b.n	80006c8 <__aeabi_fdiv+0x50>
 80007c2:	001e      	movs	r6, r3
 80007c4:	20ff      	movs	r0, #255	; 0xff
 80007c6:	2500      	movs	r5, #0
 80007c8:	e7b5      	b.n	8000736 <__aeabi_fdiv+0xbe>
 80007ca:	2301      	movs	r3, #1
 80007cc:	1a1b      	subs	r3, r3, r0
 80007ce:	2b1b      	cmp	r3, #27
 80007d0:	dcaf      	bgt.n	8000732 <__aeabi_fdiv+0xba>
 80007d2:	379e      	adds	r7, #158	; 0x9e
 80007d4:	0029      	movs	r1, r5
 80007d6:	40bd      	lsls	r5, r7
 80007d8:	40d9      	lsrs	r1, r3
 80007da:	1e6a      	subs	r2, r5, #1
 80007dc:	4195      	sbcs	r5, r2
 80007de:	430d      	orrs	r5, r1
 80007e0:	076b      	lsls	r3, r5, #29
 80007e2:	d004      	beq.n	80007ee <__aeabi_fdiv+0x176>
 80007e4:	230f      	movs	r3, #15
 80007e6:	402b      	ands	r3, r5
 80007e8:	2b04      	cmp	r3, #4
 80007ea:	d000      	beq.n	80007ee <__aeabi_fdiv+0x176>
 80007ec:	3504      	adds	r5, #4
 80007ee:	016b      	lsls	r3, r5, #5
 80007f0:	d544      	bpl.n	800087c <__aeabi_fdiv+0x204>
 80007f2:	2001      	movs	r0, #1
 80007f4:	2500      	movs	r5, #0
 80007f6:	e79e      	b.n	8000736 <__aeabi_fdiv+0xbe>
 80007f8:	20ff      	movs	r0, #255	; 0xff
 80007fa:	2500      	movs	r5, #0
 80007fc:	e79b      	b.n	8000736 <__aeabi_fdiv+0xbe>
 80007fe:	2580      	movs	r5, #128	; 0x80
 8000800:	2600      	movs	r6, #0
 8000802:	20ff      	movs	r0, #255	; 0xff
 8000804:	03ed      	lsls	r5, r5, #15
 8000806:	e796      	b.n	8000736 <__aeabi_fdiv+0xbe>
 8000808:	2300      	movs	r3, #0
 800080a:	4698      	mov	r8, r3
 800080c:	2080      	movs	r0, #128	; 0x80
 800080e:	03c0      	lsls	r0, r0, #15
 8000810:	4205      	tst	r5, r0
 8000812:	d009      	beq.n	8000828 <__aeabi_fdiv+0x1b0>
 8000814:	4643      	mov	r3, r8
 8000816:	4203      	tst	r3, r0
 8000818:	d106      	bne.n	8000828 <__aeabi_fdiv+0x1b0>
 800081a:	4645      	mov	r5, r8
 800081c:	4305      	orrs	r5, r0
 800081e:	026d      	lsls	r5, r5, #9
 8000820:	0026      	movs	r6, r4
 8000822:	20ff      	movs	r0, #255	; 0xff
 8000824:	0a6d      	lsrs	r5, r5, #9
 8000826:	e786      	b.n	8000736 <__aeabi_fdiv+0xbe>
 8000828:	2080      	movs	r0, #128	; 0x80
 800082a:	03c0      	lsls	r0, r0, #15
 800082c:	4305      	orrs	r5, r0
 800082e:	026d      	lsls	r5, r5, #9
 8000830:	20ff      	movs	r0, #255	; 0xff
 8000832:	0a6d      	lsrs	r5, r5, #9
 8000834:	e77f      	b.n	8000736 <__aeabi_fdiv+0xbe>
 8000836:	4641      	mov	r1, r8
 8000838:	016a      	lsls	r2, r5, #5
 800083a:	0148      	lsls	r0, r1, #5
 800083c:	4282      	cmp	r2, r0
 800083e:	d219      	bcs.n	8000874 <__aeabi_fdiv+0x1fc>
 8000840:	211b      	movs	r1, #27
 8000842:	2500      	movs	r5, #0
 8000844:	3f01      	subs	r7, #1
 8000846:	2601      	movs	r6, #1
 8000848:	0014      	movs	r4, r2
 800084a:	006d      	lsls	r5, r5, #1
 800084c:	0052      	lsls	r2, r2, #1
 800084e:	2c00      	cmp	r4, #0
 8000850:	db01      	blt.n	8000856 <__aeabi_fdiv+0x1de>
 8000852:	4290      	cmp	r0, r2
 8000854:	d801      	bhi.n	800085a <__aeabi_fdiv+0x1e2>
 8000856:	1a12      	subs	r2, r2, r0
 8000858:	4335      	orrs	r5, r6
 800085a:	3901      	subs	r1, #1
 800085c:	2900      	cmp	r1, #0
 800085e:	d1f3      	bne.n	8000848 <__aeabi_fdiv+0x1d0>
 8000860:	1e50      	subs	r0, r2, #1
 8000862:	4182      	sbcs	r2, r0
 8000864:	0038      	movs	r0, r7
 8000866:	307f      	adds	r0, #127	; 0x7f
 8000868:	001e      	movs	r6, r3
 800086a:	4315      	orrs	r5, r2
 800086c:	2800      	cmp	r0, #0
 800086e:	dd00      	ble.n	8000872 <__aeabi_fdiv+0x1fa>
 8000870:	e74b      	b.n	800070a <__aeabi_fdiv+0x92>
 8000872:	e7aa      	b.n	80007ca <__aeabi_fdiv+0x152>
 8000874:	211a      	movs	r1, #26
 8000876:	2501      	movs	r5, #1
 8000878:	1a12      	subs	r2, r2, r0
 800087a:	e7e4      	b.n	8000846 <__aeabi_fdiv+0x1ce>
 800087c:	01ad      	lsls	r5, r5, #6
 800087e:	2000      	movs	r0, #0
 8000880:	0a6d      	lsrs	r5, r5, #9
 8000882:	e758      	b.n	8000736 <__aeabi_fdiv+0xbe>
 8000884:	0800b898 	.word	0x0800b898
 8000888:	f7ffffff 	.word	0xf7ffffff
 800088c:	0800b8d8 	.word	0x0800b8d8

08000890 <__aeabi_fmul>:
 8000890:	b5f8      	push	{r3, r4, r5, r6, r7, lr}
 8000892:	4657      	mov	r7, sl
 8000894:	464e      	mov	r6, r9
 8000896:	4645      	mov	r5, r8
 8000898:	46de      	mov	lr, fp
 800089a:	0244      	lsls	r4, r0, #9
 800089c:	b5e0      	push	{r5, r6, r7, lr}
 800089e:	0045      	lsls	r5, r0, #1
 80008a0:	1c0f      	adds	r7, r1, #0
 80008a2:	0a64      	lsrs	r4, r4, #9
 80008a4:	0e2d      	lsrs	r5, r5, #24
 80008a6:	0fc6      	lsrs	r6, r0, #31
 80008a8:	2d00      	cmp	r5, #0
 80008aa:	d047      	beq.n	800093c <__aeabi_fmul+0xac>
 80008ac:	2dff      	cmp	r5, #255	; 0xff
 80008ae:	d04d      	beq.n	800094c <__aeabi_fmul+0xbc>
 80008b0:	2300      	movs	r3, #0
 80008b2:	2080      	movs	r0, #128	; 0x80
 80008b4:	469a      	mov	sl, r3
 80008b6:	469b      	mov	fp, r3
 80008b8:	00e4      	lsls	r4, r4, #3
 80008ba:	04c0      	lsls	r0, r0, #19
 80008bc:	4304      	orrs	r4, r0
 80008be:	3d7f      	subs	r5, #127	; 0x7f
 80008c0:	0278      	lsls	r0, r7, #9
 80008c2:	0a43      	lsrs	r3, r0, #9
 80008c4:	4699      	mov	r9, r3
 80008c6:	007a      	lsls	r2, r7, #1
 80008c8:	0ffb      	lsrs	r3, r7, #31
 80008ca:	4698      	mov	r8, r3
 80008cc:	0e12      	lsrs	r2, r2, #24
 80008ce:	464b      	mov	r3, r9
 80008d0:	d044      	beq.n	800095c <__aeabi_fmul+0xcc>
 80008d2:	2aff      	cmp	r2, #255	; 0xff
 80008d4:	d011      	beq.n	80008fa <__aeabi_fmul+0x6a>
 80008d6:	00d8      	lsls	r0, r3, #3
 80008d8:	2380      	movs	r3, #128	; 0x80
 80008da:	04db      	lsls	r3, r3, #19
 80008dc:	4303      	orrs	r3, r0
 80008de:	4699      	mov	r9, r3
 80008e0:	2000      	movs	r0, #0
 80008e2:	3a7f      	subs	r2, #127	; 0x7f
 80008e4:	18ad      	adds	r5, r5, r2
 80008e6:	4647      	mov	r7, r8
 80008e8:	4653      	mov	r3, sl
 80008ea:	4077      	eors	r7, r6
 80008ec:	1c69      	adds	r1, r5, #1
 80008ee:	2b0f      	cmp	r3, #15
 80008f0:	d83f      	bhi.n	8000972 <__aeabi_fmul+0xe2>
 80008f2:	4a72      	ldr	r2, [pc, #456]	; (8000abc <__aeabi_fmul+0x22c>)
 80008f4:	009b      	lsls	r3, r3, #2
 80008f6:	58d3      	ldr	r3, [r2, r3]
 80008f8:	469f      	mov	pc, r3
 80008fa:	35ff      	adds	r5, #255	; 0xff
 80008fc:	2b00      	cmp	r3, #0
 80008fe:	d000      	beq.n	8000902 <__aeabi_fmul+0x72>
 8000900:	e079      	b.n	80009f6 <__aeabi_fmul+0x166>
 8000902:	4652      	mov	r2, sl
 8000904:	2302      	movs	r3, #2
 8000906:	431a      	orrs	r2, r3
 8000908:	4692      	mov	sl, r2
 800090a:	2002      	movs	r0, #2
 800090c:	e7eb      	b.n	80008e6 <__aeabi_fmul+0x56>
 800090e:	4647      	mov	r7, r8
 8000910:	464c      	mov	r4, r9
 8000912:	4683      	mov	fp, r0
 8000914:	465b      	mov	r3, fp
 8000916:	2b02      	cmp	r3, #2
 8000918:	d028      	beq.n	800096c <__aeabi_fmul+0xdc>
 800091a:	2b03      	cmp	r3, #3
 800091c:	d100      	bne.n	8000920 <__aeabi_fmul+0x90>
 800091e:	e0c6      	b.n	8000aae <__aeabi_fmul+0x21e>
 8000920:	2b01      	cmp	r3, #1
 8000922:	d14f      	bne.n	80009c4 <__aeabi_fmul+0x134>
 8000924:	2000      	movs	r0, #0
 8000926:	2400      	movs	r4, #0
 8000928:	05c0      	lsls	r0, r0, #23
 800092a:	07ff      	lsls	r7, r7, #31
 800092c:	4320      	orrs	r0, r4
 800092e:	4338      	orrs	r0, r7
 8000930:	bcf0      	pop	{r4, r5, r6, r7}
 8000932:	46bb      	mov	fp, r7
 8000934:	46b2      	mov	sl, r6
 8000936:	46a9      	mov	r9, r5
 8000938:	46a0      	mov	r8, r4
 800093a:	bdf8      	pop	{r3, r4, r5, r6, r7, pc}
 800093c:	2c00      	cmp	r4, #0
 800093e:	d171      	bne.n	8000a24 <__aeabi_fmul+0x194>
 8000940:	2304      	movs	r3, #4
 8000942:	469a      	mov	sl, r3
 8000944:	3b03      	subs	r3, #3
 8000946:	2500      	movs	r5, #0
 8000948:	469b      	mov	fp, r3
 800094a:	e7b9      	b.n	80008c0 <__aeabi_fmul+0x30>
 800094c:	2c00      	cmp	r4, #0
 800094e:	d163      	bne.n	8000a18 <__aeabi_fmul+0x188>
 8000950:	2308      	movs	r3, #8
 8000952:	469a      	mov	sl, r3
 8000954:	3b06      	subs	r3, #6
 8000956:	25ff      	movs	r5, #255	; 0xff
 8000958:	469b      	mov	fp, r3
 800095a:	e7b1      	b.n	80008c0 <__aeabi_fmul+0x30>
 800095c:	2b00      	cmp	r3, #0
 800095e:	d150      	bne.n	8000a02 <__aeabi_fmul+0x172>
 8000960:	4652      	mov	r2, sl
 8000962:	3301      	adds	r3, #1
 8000964:	431a      	orrs	r2, r3
 8000966:	4692      	mov	sl, r2
 8000968:	2001      	movs	r0, #1
 800096a:	e7bc      	b.n	80008e6 <__aeabi_fmul+0x56>
 800096c:	20ff      	movs	r0, #255	; 0xff
 800096e:	2400      	movs	r4, #0
 8000970:	e7da      	b.n	8000928 <__aeabi_fmul+0x98>
 8000972:	4648      	mov	r0, r9
 8000974:	0c26      	lsrs	r6, r4, #16
 8000976:	0424      	lsls	r4, r4, #16
 8000978:	0c22      	lsrs	r2, r4, #16
 800097a:	0404      	lsls	r4, r0, #16
 800097c:	0c24      	lsrs	r4, r4, #16
 800097e:	464b      	mov	r3, r9
 8000980:	0020      	movs	r0, r4
 8000982:	0c1b      	lsrs	r3, r3, #16
 8000984:	4350      	muls	r0, r2
 8000986:	4374      	muls	r4, r6
 8000988:	435a      	muls	r2, r3
 800098a:	435e      	muls	r6, r3
 800098c:	1912      	adds	r2, r2, r4
 800098e:	0c03      	lsrs	r3, r0, #16
 8000990:	189b      	adds	r3, r3, r2
 8000992:	429c      	cmp	r4, r3
 8000994:	d903      	bls.n	800099e <__aeabi_fmul+0x10e>
 8000996:	2280      	movs	r2, #128	; 0x80
 8000998:	0252      	lsls	r2, r2, #9
 800099a:	4694      	mov	ip, r2
 800099c:	4466      	add	r6, ip
 800099e:	0400      	lsls	r0, r0, #16
 80009a0:	041a      	lsls	r2, r3, #16
 80009a2:	0c00      	lsrs	r0, r0, #16
 80009a4:	1812      	adds	r2, r2, r0
 80009a6:	0194      	lsls	r4, r2, #6
 80009a8:	1e60      	subs	r0, r4, #1
 80009aa:	4184      	sbcs	r4, r0
 80009ac:	0c1b      	lsrs	r3, r3, #16
 80009ae:	0e92      	lsrs	r2, r2, #26
 80009b0:	199b      	adds	r3, r3, r6
 80009b2:	4314      	orrs	r4, r2
 80009b4:	019b      	lsls	r3, r3, #6
 80009b6:	431c      	orrs	r4, r3
 80009b8:	011b      	lsls	r3, r3, #4
 80009ba:	d572      	bpl.n	8000aa2 <__aeabi_fmul+0x212>
 80009bc:	2001      	movs	r0, #1
 80009be:	0863      	lsrs	r3, r4, #1
 80009c0:	4004      	ands	r4, r0
 80009c2:	431c      	orrs	r4, r3
 80009c4:	0008      	movs	r0, r1
 80009c6:	307f      	adds	r0, #127	; 0x7f
 80009c8:	2800      	cmp	r0, #0
 80009ca:	dd3c      	ble.n	8000a46 <__aeabi_fmul+0x1b6>
 80009cc:	0763      	lsls	r3, r4, #29
 80009ce:	d004      	beq.n	80009da <__aeabi_fmul+0x14a>
 80009d0:	230f      	movs	r3, #15
 80009d2:	4023      	ands	r3, r4
 80009d4:	2b04      	cmp	r3, #4
 80009d6:	d000      	beq.n	80009da <__aeabi_fmul+0x14a>
 80009d8:	3404      	adds	r4, #4
 80009da:	0123      	lsls	r3, r4, #4
 80009dc:	d503      	bpl.n	80009e6 <__aeabi_fmul+0x156>
 80009de:	3180      	adds	r1, #128	; 0x80
 80009e0:	0008      	movs	r0, r1
 80009e2:	4b37      	ldr	r3, [pc, #220]	; (8000ac0 <__aeabi_fmul+0x230>)
 80009e4:	401c      	ands	r4, r3
 80009e6:	28fe      	cmp	r0, #254	; 0xfe
 80009e8:	dcc0      	bgt.n	800096c <__aeabi_fmul+0xdc>
 80009ea:	01a4      	lsls	r4, r4, #6
 80009ec:	0a64      	lsrs	r4, r4, #9
 80009ee:	b2c0      	uxtb	r0, r0
 80009f0:	e79a      	b.n	8000928 <__aeabi_fmul+0x98>
 80009f2:	0037      	movs	r7, r6
 80009f4:	e78e      	b.n	8000914 <__aeabi_fmul+0x84>
 80009f6:	4652      	mov	r2, sl
 80009f8:	2303      	movs	r3, #3
 80009fa:	431a      	orrs	r2, r3
 80009fc:	4692      	mov	sl, r2
 80009fe:	2003      	movs	r0, #3
 8000a00:	e771      	b.n	80008e6 <__aeabi_fmul+0x56>
 8000a02:	4648      	mov	r0, r9
 8000a04:	f001 ff04 	bl	8002810 <__clzsi2>
 8000a08:	464a      	mov	r2, r9
 8000a0a:	1f43      	subs	r3, r0, #5
 8000a0c:	409a      	lsls	r2, r3
 8000a0e:	1a2d      	subs	r5, r5, r0
 8000a10:	4691      	mov	r9, r2
 8000a12:	2000      	movs	r0, #0
 8000a14:	3d76      	subs	r5, #118	; 0x76
 8000a16:	e766      	b.n	80008e6 <__aeabi_fmul+0x56>
 8000a18:	230c      	movs	r3, #12
 8000a1a:	469a      	mov	sl, r3
 8000a1c:	3b09      	subs	r3, #9
 8000a1e:	25ff      	movs	r5, #255	; 0xff
 8000a20:	469b      	mov	fp, r3
 8000a22:	e74d      	b.n	80008c0 <__aeabi_fmul+0x30>
 8000a24:	0020      	movs	r0, r4
 8000a26:	f001 fef3 	bl	8002810 <__clzsi2>
 8000a2a:	2576      	movs	r5, #118	; 0x76
 8000a2c:	1f43      	subs	r3, r0, #5
 8000a2e:	409c      	lsls	r4, r3
 8000a30:	2300      	movs	r3, #0
 8000a32:	426d      	negs	r5, r5
 8000a34:	469a      	mov	sl, r3
 8000a36:	469b      	mov	fp, r3
 8000a38:	1a2d      	subs	r5, r5, r0
 8000a3a:	e741      	b.n	80008c0 <__aeabi_fmul+0x30>
 8000a3c:	2480      	movs	r4, #128	; 0x80
 8000a3e:	2700      	movs	r7, #0
 8000a40:	20ff      	movs	r0, #255	; 0xff
 8000a42:	03e4      	lsls	r4, r4, #15
 8000a44:	e770      	b.n	8000928 <__aeabi_fmul+0x98>
 8000a46:	2301      	movs	r3, #1
 8000a48:	1a1b      	subs	r3, r3, r0
 8000a4a:	2b1b      	cmp	r3, #27
 8000a4c:	dd00      	ble.n	8000a50 <__aeabi_fmul+0x1c0>
 8000a4e:	e769      	b.n	8000924 <__aeabi_fmul+0x94>
 8000a50:	319e      	adds	r1, #158	; 0x9e
 8000a52:	0020      	movs	r0, r4
 8000a54:	408c      	lsls	r4, r1
 8000a56:	40d8      	lsrs	r0, r3
 8000a58:	1e63      	subs	r3, r4, #1
 8000a5a:	419c      	sbcs	r4, r3
 8000a5c:	4304      	orrs	r4, r0
 8000a5e:	0763      	lsls	r3, r4, #29
 8000a60:	d004      	beq.n	8000a6c <__aeabi_fmul+0x1dc>
 8000a62:	230f      	movs	r3, #15
 8000a64:	4023      	ands	r3, r4
 8000a66:	2b04      	cmp	r3, #4
 8000a68:	d000      	beq.n	8000a6c <__aeabi_fmul+0x1dc>
 8000a6a:	3404      	adds	r4, #4
 8000a6c:	0163      	lsls	r3, r4, #5
 8000a6e:	d51a      	bpl.n	8000aa6 <__aeabi_fmul+0x216>
 8000a70:	2001      	movs	r0, #1
 8000a72:	2400      	movs	r4, #0
 8000a74:	e758      	b.n	8000928 <__aeabi_fmul+0x98>
 8000a76:	2080      	movs	r0, #128	; 0x80
 8000a78:	03c0      	lsls	r0, r0, #15
 8000a7a:	4204      	tst	r4, r0
 8000a7c:	d009      	beq.n	8000a92 <__aeabi_fmul+0x202>
 8000a7e:	464b      	mov	r3, r9
 8000a80:	4203      	tst	r3, r0
 8000a82:	d106      	bne.n	8000a92 <__aeabi_fmul+0x202>
 8000a84:	464c      	mov	r4, r9
 8000a86:	4304      	orrs	r4, r0
 8000a88:	0264      	lsls	r4, r4, #9
 8000a8a:	4647      	mov	r7, r8
 8000a8c:	20ff      	movs	r0, #255	; 0xff
 8000a8e:	0a64      	lsrs	r4, r4, #9
 8000a90:	e74a      	b.n	8000928 <__aeabi_fmul+0x98>
 8000a92:	2080      	movs	r0, #128	; 0x80
 8000a94:	03c0      	lsls	r0, r0, #15
 8000a96:	4304      	orrs	r4, r0
 8000a98:	0264      	lsls	r4, r4, #9
 8000a9a:	0037      	movs	r7, r6
 8000a9c:	20ff      	movs	r0, #255	; 0xff
 8000a9e:	0a64      	lsrs	r4, r4, #9
 8000aa0:	e742      	b.n	8000928 <__aeabi_fmul+0x98>
 8000aa2:	0029      	movs	r1, r5
 8000aa4:	e78e      	b.n	80009c4 <__aeabi_fmul+0x134>
 8000aa6:	01a4      	lsls	r4, r4, #6
 8000aa8:	2000      	movs	r0, #0
 8000aaa:	0a64      	lsrs	r4, r4, #9
 8000aac:	e73c      	b.n	8000928 <__aeabi_fmul+0x98>
 8000aae:	2080      	movs	r0, #128	; 0x80
 8000ab0:	03c0      	lsls	r0, r0, #15
 8000ab2:	4304      	orrs	r4, r0
 8000ab4:	0264      	lsls	r4, r4, #9
 8000ab6:	20ff      	movs	r0, #255	; 0xff
 8000ab8:	0a64      	lsrs	r4, r4, #9
 8000aba:	e735      	b.n	8000928 <__aeabi_fmul+0x98>
 8000abc:	0800b918 	.word	0x0800b918
 8000ac0:	f7ffffff 	.word	0xf7ffffff

08000ac4 <__aeabi_i2f>:
 8000ac4:	b570      	push	{r4, r5, r6, lr}
 8000ac6:	2800      	cmp	r0, #0
 8000ac8:	d013      	beq.n	8000af2 <__aeabi_i2f+0x2e>
 8000aca:	17c3      	asrs	r3, r0, #31
 8000acc:	18c5      	adds	r5, r0, r3
 8000ace:	405d      	eors	r5, r3
 8000ad0:	0fc4      	lsrs	r4, r0, #31
 8000ad2:	0028      	movs	r0, r5
 8000ad4:	f001 fe9c 	bl	8002810 <__clzsi2>
 8000ad8:	239e      	movs	r3, #158	; 0x9e
 8000ada:	0001      	movs	r1, r0
 8000adc:	1a1b      	subs	r3, r3, r0
 8000ade:	2b96      	cmp	r3, #150	; 0x96
 8000ae0:	dc0f      	bgt.n	8000b02 <__aeabi_i2f+0x3e>
 8000ae2:	2808      	cmp	r0, #8
 8000ae4:	dd01      	ble.n	8000aea <__aeabi_i2f+0x26>
 8000ae6:	3908      	subs	r1, #8
 8000ae8:	408d      	lsls	r5, r1
 8000aea:	026d      	lsls	r5, r5, #9
 8000aec:	0a6d      	lsrs	r5, r5, #9
 8000aee:	b2d8      	uxtb	r0, r3
 8000af0:	e002      	b.n	8000af8 <__aeabi_i2f+0x34>
 8000af2:	2400      	movs	r4, #0
 8000af4:	2000      	movs	r0, #0
 8000af6:	2500      	movs	r5, #0
 8000af8:	05c0      	lsls	r0, r0, #23
 8000afa:	4328      	orrs	r0, r5
 8000afc:	07e4      	lsls	r4, r4, #31
 8000afe:	4320      	orrs	r0, r4
 8000b00:	bd70      	pop	{r4, r5, r6, pc}
 8000b02:	2b99      	cmp	r3, #153	; 0x99
 8000b04:	dd0b      	ble.n	8000b1e <__aeabi_i2f+0x5a>
 8000b06:	2205      	movs	r2, #5
 8000b08:	002e      	movs	r6, r5
 8000b0a:	1a12      	subs	r2, r2, r0
 8000b0c:	40d6      	lsrs	r6, r2
 8000b0e:	0002      	movs	r2, r0
 8000b10:	321b      	adds	r2, #27
 8000b12:	4095      	lsls	r5, r2
 8000b14:	0028      	movs	r0, r5
 8000b16:	1e45      	subs	r5, r0, #1
 8000b18:	41a8      	sbcs	r0, r5
 8000b1a:	0035      	movs	r5, r6
 8000b1c:	4305      	orrs	r5, r0
 8000b1e:	2905      	cmp	r1, #5
 8000b20:	dd01      	ble.n	8000b26 <__aeabi_i2f+0x62>
 8000b22:	1f4a      	subs	r2, r1, #5
 8000b24:	4095      	lsls	r5, r2
 8000b26:	002a      	movs	r2, r5
 8000b28:	4e08      	ldr	r6, [pc, #32]	; (8000b4c <__aeabi_i2f+0x88>)
 8000b2a:	4032      	ands	r2, r6
 8000b2c:	0768      	lsls	r0, r5, #29
 8000b2e:	d009      	beq.n	8000b44 <__aeabi_i2f+0x80>
 8000b30:	200f      	movs	r0, #15
 8000b32:	4028      	ands	r0, r5
 8000b34:	2804      	cmp	r0, #4
 8000b36:	d005      	beq.n	8000b44 <__aeabi_i2f+0x80>
 8000b38:	3204      	adds	r2, #4
 8000b3a:	0150      	lsls	r0, r2, #5
 8000b3c:	d502      	bpl.n	8000b44 <__aeabi_i2f+0x80>
 8000b3e:	239f      	movs	r3, #159	; 0x9f
 8000b40:	4032      	ands	r2, r6
 8000b42:	1a5b      	subs	r3, r3, r1
 8000b44:	0192      	lsls	r2, r2, #6
 8000b46:	0a55      	lsrs	r5, r2, #9
 8000b48:	b2d8      	uxtb	r0, r3
 8000b4a:	e7d5      	b.n	8000af8 <__aeabi_i2f+0x34>
 8000b4c:	fbffffff 	.word	0xfbffffff

08000b50 <__aeabi_dadd>:
 8000b50:	b5f0      	push	{r4, r5, r6, r7, lr}
 8000b52:	464f      	mov	r7, r9
 8000b54:	46d6      	mov	lr, sl
 8000b56:	4646      	mov	r6, r8
 8000b58:	000d      	movs	r5, r1
 8000b5a:	0001      	movs	r1, r0
 8000b5c:	0018      	movs	r0, r3
 8000b5e:	b5c0      	push	{r6, r7, lr}
 8000b60:	0017      	movs	r7, r2
 8000b62:	032b      	lsls	r3, r5, #12
 8000b64:	0a5a      	lsrs	r2, r3, #9
 8000b66:	0f4b      	lsrs	r3, r1, #29
 8000b68:	4313      	orrs	r3, r2
 8000b6a:	00ca      	lsls	r2, r1, #3
 8000b6c:	4691      	mov	r9, r2
 8000b6e:	0302      	lsls	r2, r0, #12
 8000b70:	006e      	lsls	r6, r5, #1
 8000b72:	0041      	lsls	r1, r0, #1
 8000b74:	0a52      	lsrs	r2, r2, #9
 8000b76:	0fec      	lsrs	r4, r5, #31
 8000b78:	0f7d      	lsrs	r5, r7, #29
 8000b7a:	4315      	orrs	r5, r2
 8000b7c:	0d76      	lsrs	r6, r6, #21
 8000b7e:	0d49      	lsrs	r1, r1, #21
 8000b80:	0fc0      	lsrs	r0, r0, #31
 8000b82:	4682      	mov	sl, r0
 8000b84:	46ac      	mov	ip, r5
 8000b86:	00ff      	lsls	r7, r7, #3
 8000b88:	1a72      	subs	r2, r6, r1
 8000b8a:	4284      	cmp	r4, r0
 8000b8c:	d100      	bne.n	8000b90 <__aeabi_dadd+0x40>
 8000b8e:	e098      	b.n	8000cc2 <__aeabi_dadd+0x172>
 8000b90:	2a00      	cmp	r2, #0
 8000b92:	dc00      	bgt.n	8000b96 <__aeabi_dadd+0x46>
 8000b94:	e081      	b.n	8000c9a <__aeabi_dadd+0x14a>
 8000b96:	2900      	cmp	r1, #0
 8000b98:	d100      	bne.n	8000b9c <__aeabi_dadd+0x4c>
 8000b9a:	e0b6      	b.n	8000d0a <__aeabi_dadd+0x1ba>
 8000b9c:	49c9      	ldr	r1, [pc, #804]	; (8000ec4 <__aeabi_dadd+0x374>)
 8000b9e:	428e      	cmp	r6, r1
 8000ba0:	d100      	bne.n	8000ba4 <__aeabi_dadd+0x54>
 8000ba2:	e172      	b.n	8000e8a <__aeabi_dadd+0x33a>
 8000ba4:	2180      	movs	r1, #128	; 0x80
 8000ba6:	0028      	movs	r0, r5
 8000ba8:	0409      	lsls	r1, r1, #16
 8000baa:	4308      	orrs	r0, r1
 8000bac:	4684      	mov	ip, r0
 8000bae:	2a38      	cmp	r2, #56	; 0x38
 8000bb0:	dd00      	ble.n	8000bb4 <__aeabi_dadd+0x64>
 8000bb2:	e15e      	b.n	8000e72 <__aeabi_dadd+0x322>
 8000bb4:	2a1f      	cmp	r2, #31
 8000bb6:	dd00      	ble.n	8000bba <__aeabi_dadd+0x6a>
 8000bb8:	e1ee      	b.n	8000f98 <__aeabi_dadd+0x448>
 8000bba:	2020      	movs	r0, #32
 8000bbc:	0039      	movs	r1, r7
 8000bbe:	4665      	mov	r5, ip
 8000bc0:	1a80      	subs	r0, r0, r2
 8000bc2:	4087      	lsls	r7, r0
 8000bc4:	40d1      	lsrs	r1, r2
 8000bc6:	4085      	lsls	r5, r0
 8000bc8:	430d      	orrs	r5, r1
 8000bca:	0039      	movs	r1, r7
 8000bcc:	1e4f      	subs	r7, r1, #1
 8000bce:	41b9      	sbcs	r1, r7
 8000bd0:	4667      	mov	r7, ip
 8000bd2:	40d7      	lsrs	r7, r2
 8000bd4:	4329      	orrs	r1, r5
 8000bd6:	1bdb      	subs	r3, r3, r7
 8000bd8:	464a      	mov	r2, r9
 8000bda:	1a55      	subs	r5, r2, r1
 8000bdc:	45a9      	cmp	r9, r5
 8000bde:	4189      	sbcs	r1, r1
 8000be0:	4249      	negs	r1, r1
 8000be2:	1a5b      	subs	r3, r3, r1
 8000be4:	4698      	mov	r8, r3
 8000be6:	4643      	mov	r3, r8
 8000be8:	021b      	lsls	r3, r3, #8
 8000bea:	d400      	bmi.n	8000bee <__aeabi_dadd+0x9e>
 8000bec:	e0cc      	b.n	8000d88 <__aeabi_dadd+0x238>
 8000bee:	4643      	mov	r3, r8
 8000bf0:	025b      	lsls	r3, r3, #9
 8000bf2:	0a5b      	lsrs	r3, r3, #9
 8000bf4:	4698      	mov	r8, r3
 8000bf6:	4643      	mov	r3, r8
 8000bf8:	2b00      	cmp	r3, #0
 8000bfa:	d100      	bne.n	8000bfe <__aeabi_dadd+0xae>
 8000bfc:	e12c      	b.n	8000e58 <__aeabi_dadd+0x308>
 8000bfe:	4640      	mov	r0, r8
 8000c00:	f001 fe06 	bl	8002810 <__clzsi2>
 8000c04:	0001      	movs	r1, r0
 8000c06:	3908      	subs	r1, #8
 8000c08:	2220      	movs	r2, #32
 8000c0a:	0028      	movs	r0, r5
 8000c0c:	4643      	mov	r3, r8
 8000c0e:	1a52      	subs	r2, r2, r1
 8000c10:	408b      	lsls	r3, r1
 8000c12:	40d0      	lsrs	r0, r2
 8000c14:	408d      	lsls	r5, r1
 8000c16:	4303      	orrs	r3, r0
 8000c18:	428e      	cmp	r6, r1
 8000c1a:	dd00      	ble.n	8000c1e <__aeabi_dadd+0xce>
 8000c1c:	e117      	b.n	8000e4e <__aeabi_dadd+0x2fe>
 8000c1e:	1b8e      	subs	r6, r1, r6
 8000c20:	1c72      	adds	r2, r6, #1
 8000c22:	2a1f      	cmp	r2, #31
 8000c24:	dd00      	ble.n	8000c28 <__aeabi_dadd+0xd8>
 8000c26:	e1a7      	b.n	8000f78 <__aeabi_dadd+0x428>
 8000c28:	2120      	movs	r1, #32
 8000c2a:	0018      	movs	r0, r3
 8000c2c:	002e      	movs	r6, r5
 8000c2e:	1a89      	subs	r1, r1, r2
 8000c30:	408d      	lsls	r5, r1
 8000c32:	4088      	lsls	r0, r1
 8000c34:	40d6      	lsrs	r6, r2
 8000c36:	40d3      	lsrs	r3, r2
 8000c38:	1e69      	subs	r1, r5, #1
 8000c3a:	418d      	sbcs	r5, r1
 8000c3c:	4330      	orrs	r0, r6
 8000c3e:	4698      	mov	r8, r3
 8000c40:	2600      	movs	r6, #0
 8000c42:	4305      	orrs	r5, r0
 8000c44:	076b      	lsls	r3, r5, #29
 8000c46:	d009      	beq.n	8000c5c <__aeabi_dadd+0x10c>
 8000c48:	230f      	movs	r3, #15
 8000c4a:	402b      	ands	r3, r5
 8000c4c:	2b04      	cmp	r3, #4
 8000c4e:	d005      	beq.n	8000c5c <__aeabi_dadd+0x10c>
 8000c50:	1d2b      	adds	r3, r5, #4
 8000c52:	42ab      	cmp	r3, r5
 8000c54:	41ad      	sbcs	r5, r5
 8000c56:	426d      	negs	r5, r5
 8000c58:	44a8      	add	r8, r5
 8000c5a:	001d      	movs	r5, r3
 8000c5c:	4643      	mov	r3, r8
 8000c5e:	021b      	lsls	r3, r3, #8
 8000c60:	d400      	bmi.n	8000c64 <__aeabi_dadd+0x114>
 8000c62:	e094      	b.n	8000d8e <__aeabi_dadd+0x23e>
 8000c64:	4b97      	ldr	r3, [pc, #604]	; (8000ec4 <__aeabi_dadd+0x374>)
 8000c66:	1c72      	adds	r2, r6, #1
 8000c68:	429a      	cmp	r2, r3
 8000c6a:	d100      	bne.n	8000c6e <__aeabi_dadd+0x11e>
 8000c6c:	e09d      	b.n	8000daa <__aeabi_dadd+0x25a>
 8000c6e:	4641      	mov	r1, r8
 8000c70:	4b95      	ldr	r3, [pc, #596]	; (8000ec8 <__aeabi_dadd+0x378>)
 8000c72:	08ed      	lsrs	r5, r5, #3
 8000c74:	4019      	ands	r1, r3
 8000c76:	000b      	movs	r3, r1
 8000c78:	0552      	lsls	r2, r2, #21
 8000c7a:	0749      	lsls	r1, r1, #29
 8000c7c:	025b      	lsls	r3, r3, #9
 8000c7e:	4329      	orrs	r1, r5
 8000c80:	0b1b      	lsrs	r3, r3, #12
 8000c82:	0d52      	lsrs	r2, r2, #21
 8000c84:	0512      	lsls	r2, r2, #20
 8000c86:	4313      	orrs	r3, r2
 8000c88:	07e4      	lsls	r4, r4, #31
 8000c8a:	4323      	orrs	r3, r4
 8000c8c:	0008      	movs	r0, r1
 8000c8e:	0019      	movs	r1, r3
 8000c90:	bce0      	pop	{r5, r6, r7}
 8000c92:	46ba      	mov	sl, r7
 8000c94:	46b1      	mov	r9, r6
 8000c96:	46a8      	mov	r8, r5
 8000c98:	bdf0      	pop	{r4, r5, r6, r7, pc}
 8000c9a:	2a00      	cmp	r2, #0
 8000c9c:	d043      	beq.n	8000d26 <__aeabi_dadd+0x1d6>
 8000c9e:	1b8a      	subs	r2, r1, r6
 8000ca0:	2e00      	cmp	r6, #0
 8000ca2:	d000      	beq.n	8000ca6 <__aeabi_dadd+0x156>
 8000ca4:	e12a      	b.n	8000efc <__aeabi_dadd+0x3ac>
 8000ca6:	464c      	mov	r4, r9
 8000ca8:	431c      	orrs	r4, r3
 8000caa:	d100      	bne.n	8000cae <__aeabi_dadd+0x15e>
 8000cac:	e1d1      	b.n	8001052 <__aeabi_dadd+0x502>
 8000cae:	1e54      	subs	r4, r2, #1
 8000cb0:	2a01      	cmp	r2, #1
 8000cb2:	d100      	bne.n	8000cb6 <__aeabi_dadd+0x166>
 8000cb4:	e21f      	b.n	80010f6 <__aeabi_dadd+0x5a6>
 8000cb6:	4d83      	ldr	r5, [pc, #524]	; (8000ec4 <__aeabi_dadd+0x374>)
 8000cb8:	42aa      	cmp	r2, r5
 8000cba:	d100      	bne.n	8000cbe <__aeabi_dadd+0x16e>
 8000cbc:	e272      	b.n	80011a4 <__aeabi_dadd+0x654>
 8000cbe:	0022      	movs	r2, r4
 8000cc0:	e123      	b.n	8000f0a <__aeabi_dadd+0x3ba>
 8000cc2:	2a00      	cmp	r2, #0
 8000cc4:	dc00      	bgt.n	8000cc8 <__aeabi_dadd+0x178>
 8000cc6:	e098      	b.n	8000dfa <__aeabi_dadd+0x2aa>
 8000cc8:	2900      	cmp	r1, #0
 8000cca:	d042      	beq.n	8000d52 <__aeabi_dadd+0x202>
 8000ccc:	497d      	ldr	r1, [pc, #500]	; (8000ec4 <__aeabi_dadd+0x374>)
 8000cce:	428e      	cmp	r6, r1
 8000cd0:	d100      	bne.n	8000cd4 <__aeabi_dadd+0x184>
 8000cd2:	e0da      	b.n	8000e8a <__aeabi_dadd+0x33a>
 8000cd4:	2180      	movs	r1, #128	; 0x80
 8000cd6:	0028      	movs	r0, r5
 8000cd8:	0409      	lsls	r1, r1, #16
 8000cda:	4308      	orrs	r0, r1
 8000cdc:	4684      	mov	ip, r0
 8000cde:	2a38      	cmp	r2, #56	; 0x38
 8000ce0:	dd00      	ble.n	8000ce4 <__aeabi_dadd+0x194>
 8000ce2:	e129      	b.n	8000f38 <__aeabi_dadd+0x3e8>
 8000ce4:	2a1f      	cmp	r2, #31
 8000ce6:	dc00      	bgt.n	8000cea <__aeabi_dadd+0x19a>
 8000ce8:	e187      	b.n	8000ffa <__aeabi_dadd+0x4aa>
 8000cea:	0011      	movs	r1, r2
 8000cec:	4665      	mov	r5, ip
 8000cee:	3920      	subs	r1, #32
 8000cf0:	40cd      	lsrs	r5, r1
 8000cf2:	2a20      	cmp	r2, #32
 8000cf4:	d004      	beq.n	8000d00 <__aeabi_dadd+0x1b0>
 8000cf6:	2040      	movs	r0, #64	; 0x40
 8000cf8:	4661      	mov	r1, ip
 8000cfa:	1a82      	subs	r2, r0, r2
 8000cfc:	4091      	lsls	r1, r2
 8000cfe:	430f      	orrs	r7, r1
 8000d00:	0039      	movs	r1, r7
 8000d02:	1e4f      	subs	r7, r1, #1
 8000d04:	41b9      	sbcs	r1, r7
 8000d06:	430d      	orrs	r5, r1
 8000d08:	e11b      	b.n	8000f42 <__aeabi_dadd+0x3f2>
 8000d0a:	0029      	movs	r1, r5
 8000d0c:	4339      	orrs	r1, r7
 8000d0e:	d100      	bne.n	8000d12 <__aeabi_dadd+0x1c2>
 8000d10:	e0b5      	b.n	8000e7e <__aeabi_dadd+0x32e>
 8000d12:	1e51      	subs	r1, r2, #1
 8000d14:	2a01      	cmp	r2, #1
 8000d16:	d100      	bne.n	8000d1a <__aeabi_dadd+0x1ca>
 8000d18:	e1ab      	b.n	8001072 <__aeabi_dadd+0x522>
 8000d1a:	486a      	ldr	r0, [pc, #424]	; (8000ec4 <__aeabi_dadd+0x374>)
 8000d1c:	4282      	cmp	r2, r0
 8000d1e:	d100      	bne.n	8000d22 <__aeabi_dadd+0x1d2>
 8000d20:	e1b2      	b.n	8001088 <__aeabi_dadd+0x538>
 8000d22:	000a      	movs	r2, r1
 8000d24:	e743      	b.n	8000bae <__aeabi_dadd+0x5e>
 8000d26:	4969      	ldr	r1, [pc, #420]	; (8000ecc <__aeabi_dadd+0x37c>)
 8000d28:	1c75      	adds	r5, r6, #1
 8000d2a:	420d      	tst	r5, r1
 8000d2c:	d000      	beq.n	8000d30 <__aeabi_dadd+0x1e0>
 8000d2e:	e0cf      	b.n	8000ed0 <__aeabi_dadd+0x380>
 8000d30:	2e00      	cmp	r6, #0
 8000d32:	d000      	beq.n	8000d36 <__aeabi_dadd+0x1e6>
 8000d34:	e193      	b.n	800105e <__aeabi_dadd+0x50e>
 8000d36:	4649      	mov	r1, r9
 8000d38:	4319      	orrs	r1, r3
 8000d3a:	d100      	bne.n	8000d3e <__aeabi_dadd+0x1ee>
 8000d3c:	e1d1      	b.n	80010e2 <__aeabi_dadd+0x592>
 8000d3e:	4661      	mov	r1, ip
 8000d40:	4339      	orrs	r1, r7
 8000d42:	d000      	beq.n	8000d46 <__aeabi_dadd+0x1f6>
 8000d44:	e1e3      	b.n	800110e <__aeabi_dadd+0x5be>
 8000d46:	4649      	mov	r1, r9
 8000d48:	0758      	lsls	r0, r3, #29
 8000d4a:	08c9      	lsrs	r1, r1, #3
 8000d4c:	4301      	orrs	r1, r0
 8000d4e:	08db      	lsrs	r3, r3, #3
 8000d50:	e026      	b.n	8000da0 <__aeabi_dadd+0x250>
 8000d52:	0029      	movs	r1, r5
 8000d54:	4339      	orrs	r1, r7
 8000d56:	d100      	bne.n	8000d5a <__aeabi_dadd+0x20a>
 8000d58:	e091      	b.n	8000e7e <__aeabi_dadd+0x32e>
 8000d5a:	1e51      	subs	r1, r2, #1
 8000d5c:	2a01      	cmp	r2, #1
 8000d5e:	d005      	beq.n	8000d6c <__aeabi_dadd+0x21c>
 8000d60:	4858      	ldr	r0, [pc, #352]	; (8000ec4 <__aeabi_dadd+0x374>)
 8000d62:	4282      	cmp	r2, r0
 8000d64:	d100      	bne.n	8000d68 <__aeabi_dadd+0x218>
 8000d66:	e18f      	b.n	8001088 <__aeabi_dadd+0x538>
 8000d68:	000a      	movs	r2, r1
 8000d6a:	e7b8      	b.n	8000cde <__aeabi_dadd+0x18e>
 8000d6c:	003d      	movs	r5, r7
 8000d6e:	444d      	add	r5, r9
 8000d70:	454d      	cmp	r5, r9
 8000d72:	4189      	sbcs	r1, r1
 8000d74:	4463      	add	r3, ip
 8000d76:	4698      	mov	r8, r3
 8000d78:	4249      	negs	r1, r1
 8000d7a:	4488      	add	r8, r1
 8000d7c:	4643      	mov	r3, r8
 8000d7e:	2602      	movs	r6, #2
 8000d80:	021b      	lsls	r3, r3, #8
 8000d82:	d500      	bpl.n	8000d86 <__aeabi_dadd+0x236>
 8000d84:	e0eb      	b.n	8000f5e <__aeabi_dadd+0x40e>
 8000d86:	3e01      	subs	r6, #1
 8000d88:	076b      	lsls	r3, r5, #29
 8000d8a:	d000      	beq.n	8000d8e <__aeabi_dadd+0x23e>
 8000d8c:	e75c      	b.n	8000c48 <__aeabi_dadd+0xf8>
 8000d8e:	4643      	mov	r3, r8
 8000d90:	08e9      	lsrs	r1, r5, #3
 8000d92:	075a      	lsls	r2, r3, #29
 8000d94:	4311      	orrs	r1, r2
 8000d96:	0032      	movs	r2, r6
 8000d98:	08db      	lsrs	r3, r3, #3
 8000d9a:	484a      	ldr	r0, [pc, #296]	; (8000ec4 <__aeabi_dadd+0x374>)
 8000d9c:	4282      	cmp	r2, r0
 8000d9e:	d021      	beq.n	8000de4 <__aeabi_dadd+0x294>
 8000da0:	031b      	lsls	r3, r3, #12
 8000da2:	0552      	lsls	r2, r2, #21
 8000da4:	0b1b      	lsrs	r3, r3, #12
 8000da6:	0d52      	lsrs	r2, r2, #21
 8000da8:	e76c      	b.n	8000c84 <__aeabi_dadd+0x134>
 8000daa:	2300      	movs	r3, #0
 8000dac:	2100      	movs	r1, #0
 8000dae:	e769      	b.n	8000c84 <__aeabi_dadd+0x134>
 8000db0:	002a      	movs	r2, r5
 8000db2:	433a      	orrs	r2, r7
 8000db4:	d069      	beq.n	8000e8a <__aeabi_dadd+0x33a>
 8000db6:	464a      	mov	r2, r9
 8000db8:	0758      	lsls	r0, r3, #29
 8000dba:	08d1      	lsrs	r1, r2, #3
 8000dbc:	08da      	lsrs	r2, r3, #3
 8000dbe:	2380      	movs	r3, #128	; 0x80
 8000dc0:	031b      	lsls	r3, r3, #12
 8000dc2:	4308      	orrs	r0, r1
 8000dc4:	421a      	tst	r2, r3
 8000dc6:	d007      	beq.n	8000dd8 <__aeabi_dadd+0x288>
 8000dc8:	0029      	movs	r1, r5
 8000dca:	08ed      	lsrs	r5, r5, #3
 8000dcc:	421d      	tst	r5, r3
 8000dce:	d103      	bne.n	8000dd8 <__aeabi_dadd+0x288>
 8000dd0:	002a      	movs	r2, r5
 8000dd2:	08ff      	lsrs	r7, r7, #3
 8000dd4:	0748      	lsls	r0, r1, #29
 8000dd6:	4338      	orrs	r0, r7
 8000dd8:	0f43      	lsrs	r3, r0, #29
 8000dda:	00c1      	lsls	r1, r0, #3
 8000ddc:	075b      	lsls	r3, r3, #29
 8000dde:	08c9      	lsrs	r1, r1, #3
 8000de0:	4319      	orrs	r1, r3
 8000de2:	0013      	movs	r3, r2
 8000de4:	000a      	movs	r2, r1
 8000de6:	431a      	orrs	r2, r3
 8000de8:	d100      	bne.n	8000dec <__aeabi_dadd+0x29c>
 8000dea:	e213      	b.n	8001214 <__aeabi_dadd+0x6c4>
 8000dec:	2280      	movs	r2, #128	; 0x80
 8000dee:	0312      	lsls	r2, r2, #12
 8000df0:	4313      	orrs	r3, r2
 8000df2:	031b      	lsls	r3, r3, #12
 8000df4:	4a33      	ldr	r2, [pc, #204]	; (8000ec4 <__aeabi_dadd+0x374>)
 8000df6:	0b1b      	lsrs	r3, r3, #12
 8000df8:	e744      	b.n	8000c84 <__aeabi_dadd+0x134>
 8000dfa:	2a00      	cmp	r2, #0
 8000dfc:	d04b      	beq.n	8000e96 <__aeabi_dadd+0x346>
 8000dfe:	1b8a      	subs	r2, r1, r6
 8000e00:	2e00      	cmp	r6, #0
 8000e02:	d100      	bne.n	8000e06 <__aeabi_dadd+0x2b6>
 8000e04:	e0e7      	b.n	8000fd6 <__aeabi_dadd+0x486>
 8000e06:	482f      	ldr	r0, [pc, #188]	; (8000ec4 <__aeabi_dadd+0x374>)
 8000e08:	4281      	cmp	r1, r0
 8000e0a:	d100      	bne.n	8000e0e <__aeabi_dadd+0x2be>
 8000e0c:	e195      	b.n	800113a <__aeabi_dadd+0x5ea>
 8000e0e:	2080      	movs	r0, #128	; 0x80
 8000e10:	0400      	lsls	r0, r0, #16
 8000e12:	4303      	orrs	r3, r0
 8000e14:	2a38      	cmp	r2, #56	; 0x38
 8000e16:	dd00      	ble.n	8000e1a <__aeabi_dadd+0x2ca>
 8000e18:	e143      	b.n	80010a2 <__aeabi_dadd+0x552>
 8000e1a:	2a1f      	cmp	r2, #31
 8000e1c:	dd00      	ble.n	8000e20 <__aeabi_dadd+0x2d0>
 8000e1e:	e1db      	b.n	80011d8 <__aeabi_dadd+0x688>
 8000e20:	2020      	movs	r0, #32
 8000e22:	001d      	movs	r5, r3
 8000e24:	464e      	mov	r6, r9
 8000e26:	1a80      	subs	r0, r0, r2
 8000e28:	4085      	lsls	r5, r0
 8000e2a:	40d6      	lsrs	r6, r2
 8000e2c:	4335      	orrs	r5, r6
 8000e2e:	464e      	mov	r6, r9
 8000e30:	4086      	lsls	r6, r0
 8000e32:	0030      	movs	r0, r6
 8000e34:	40d3      	lsrs	r3, r2
 8000e36:	1e46      	subs	r6, r0, #1
 8000e38:	41b0      	sbcs	r0, r6
 8000e3a:	449c      	add	ip, r3
 8000e3c:	4305      	orrs	r5, r0
 8000e3e:	19ed      	adds	r5, r5, r7
 8000e40:	42bd      	cmp	r5, r7
 8000e42:	419b      	sbcs	r3, r3
 8000e44:	425b      	negs	r3, r3
 8000e46:	4463      	add	r3, ip
 8000e48:	4698      	mov	r8, r3
 8000e4a:	000e      	movs	r6, r1
 8000e4c:	e07f      	b.n	8000f4e <__aeabi_dadd+0x3fe>
 8000e4e:	4a1e      	ldr	r2, [pc, #120]	; (8000ec8 <__aeabi_dadd+0x378>)
 8000e50:	1a76      	subs	r6, r6, r1
 8000e52:	4013      	ands	r3, r2
 8000e54:	4698      	mov	r8, r3
 8000e56:	e6f5      	b.n	8000c44 <__aeabi_dadd+0xf4>
 8000e58:	0028      	movs	r0, r5
 8000e5a:	f001 fcd9 	bl	8002810 <__clzsi2>
 8000e5e:	0001      	movs	r1, r0
 8000e60:	3118      	adds	r1, #24
 8000e62:	291f      	cmp	r1, #31
 8000e64:	dc00      	bgt.n	8000e68 <__aeabi_dadd+0x318>
 8000e66:	e6cf      	b.n	8000c08 <__aeabi_dadd+0xb8>
 8000e68:	002b      	movs	r3, r5
 8000e6a:	3808      	subs	r0, #8
 8000e6c:	4083      	lsls	r3, r0
 8000e6e:	2500      	movs	r5, #0
 8000e70:	e6d2      	b.n	8000c18 <__aeabi_dadd+0xc8>
 8000e72:	4662      	mov	r2, ip
 8000e74:	433a      	orrs	r2, r7
 8000e76:	0011      	movs	r1, r2
 8000e78:	1e4f      	subs	r7, r1, #1
 8000e7a:	41b9      	sbcs	r1, r7
 8000e7c:	e6ac      	b.n	8000bd8 <__aeabi_dadd+0x88>
 8000e7e:	4649      	mov	r1, r9
 8000e80:	0758      	lsls	r0, r3, #29
 8000e82:	08c9      	lsrs	r1, r1, #3
 8000e84:	4301      	orrs	r1, r0
 8000e86:	08db      	lsrs	r3, r3, #3
 8000e88:	e787      	b.n	8000d9a <__aeabi_dadd+0x24a>
 8000e8a:	4649      	mov	r1, r9
 8000e8c:	075a      	lsls	r2, r3, #29
 8000e8e:	08c9      	lsrs	r1, r1, #3
 8000e90:	4311      	orrs	r1, r2
 8000e92:	08db      	lsrs	r3, r3, #3
 8000e94:	e7a6      	b.n	8000de4 <__aeabi_dadd+0x294>
 8000e96:	490d      	ldr	r1, [pc, #52]	; (8000ecc <__aeabi_dadd+0x37c>)
 8000e98:	1c70      	adds	r0, r6, #1
 8000e9a:	4208      	tst	r0, r1
 8000e9c:	d000      	beq.n	8000ea0 <__aeabi_dadd+0x350>
 8000e9e:	e0bb      	b.n	8001018 <__aeabi_dadd+0x4c8>
 8000ea0:	2e00      	cmp	r6, #0
 8000ea2:	d000      	beq.n	8000ea6 <__aeabi_dadd+0x356>
 8000ea4:	e114      	b.n	80010d0 <__aeabi_dadd+0x580>
 8000ea6:	4649      	mov	r1, r9
 8000ea8:	4319      	orrs	r1, r3
 8000eaa:	d100      	bne.n	8000eae <__aeabi_dadd+0x35e>
 8000eac:	e175      	b.n	800119a <__aeabi_dadd+0x64a>
 8000eae:	0029      	movs	r1, r5
 8000eb0:	4339      	orrs	r1, r7
 8000eb2:	d000      	beq.n	8000eb6 <__aeabi_dadd+0x366>
 8000eb4:	e17e      	b.n	80011b4 <__aeabi_dadd+0x664>
 8000eb6:	4649      	mov	r1, r9
 8000eb8:	0758      	lsls	r0, r3, #29
 8000eba:	08c9      	lsrs	r1, r1, #3
 8000ebc:	4301      	orrs	r1, r0
 8000ebe:	08db      	lsrs	r3, r3, #3
 8000ec0:	e76e      	b.n	8000da0 <__aeabi_dadd+0x250>
 8000ec2:	46c0      	nop			; (mov r8, r8)
 8000ec4:	000007ff 	.word	0x000007ff
 8000ec8:	ff7fffff 	.word	0xff7fffff
 8000ecc:	000007fe 	.word	0x000007fe
 8000ed0:	4649      	mov	r1, r9
 8000ed2:	1bcd      	subs	r5, r1, r7
 8000ed4:	4661      	mov	r1, ip
 8000ed6:	1a58      	subs	r0, r3, r1
 8000ed8:	45a9      	cmp	r9, r5
 8000eda:	4189      	sbcs	r1, r1
 8000edc:	4249      	negs	r1, r1
 8000ede:	4688      	mov	r8, r1
 8000ee0:	0001      	movs	r1, r0
 8000ee2:	4640      	mov	r0, r8
 8000ee4:	1a09      	subs	r1, r1, r0
 8000ee6:	4688      	mov	r8, r1
 8000ee8:	0209      	lsls	r1, r1, #8
 8000eea:	d500      	bpl.n	8000eee <__aeabi_dadd+0x39e>
 8000eec:	e0a6      	b.n	800103c <__aeabi_dadd+0x4ec>
 8000eee:	4641      	mov	r1, r8
 8000ef0:	4329      	orrs	r1, r5
 8000ef2:	d000      	beq.n	8000ef6 <__aeabi_dadd+0x3a6>
 8000ef4:	e67f      	b.n	8000bf6 <__aeabi_dadd+0xa6>
 8000ef6:	2300      	movs	r3, #0
 8000ef8:	2400      	movs	r4, #0
 8000efa:	e751      	b.n	8000da0 <__aeabi_dadd+0x250>
 8000efc:	4cc7      	ldr	r4, [pc, #796]	; (800121c <__aeabi_dadd+0x6cc>)
 8000efe:	42a1      	cmp	r1, r4
 8000f00:	d100      	bne.n	8000f04 <__aeabi_dadd+0x3b4>
 8000f02:	e0c7      	b.n	8001094 <__aeabi_dadd+0x544>
 8000f04:	2480      	movs	r4, #128	; 0x80
 8000f06:	0424      	lsls	r4, r4, #16
 8000f08:	4323      	orrs	r3, r4
 8000f0a:	2a38      	cmp	r2, #56	; 0x38
 8000f0c:	dc54      	bgt.n	8000fb8 <__aeabi_dadd+0x468>
 8000f0e:	2a1f      	cmp	r2, #31
 8000f10:	dd00      	ble.n	8000f14 <__aeabi_dadd+0x3c4>
 8000f12:	e0cc      	b.n	80010ae <__aeabi_dadd+0x55e>
 8000f14:	2420      	movs	r4, #32
 8000f16:	4648      	mov	r0, r9
 8000f18:	1aa4      	subs	r4, r4, r2
 8000f1a:	001d      	movs	r5, r3
 8000f1c:	464e      	mov	r6, r9
 8000f1e:	40a0      	lsls	r0, r4
 8000f20:	40d6      	lsrs	r6, r2
 8000f22:	40a5      	lsls	r5, r4
 8000f24:	0004      	movs	r4, r0
 8000f26:	40d3      	lsrs	r3, r2
 8000f28:	4662      	mov	r2, ip
 8000f2a:	4335      	orrs	r5, r6
 8000f2c:	1e66      	subs	r6, r4, #1
 8000f2e:	41b4      	sbcs	r4, r6
 8000f30:	1ad3      	subs	r3, r2, r3
 8000f32:	469c      	mov	ip, r3
 8000f34:	4325      	orrs	r5, r4
 8000f36:	e044      	b.n	8000fc2 <__aeabi_dadd+0x472>
 8000f38:	4662      	mov	r2, ip
 8000f3a:	433a      	orrs	r2, r7
 8000f3c:	0015      	movs	r5, r2
 8000f3e:	1e6f      	subs	r7, r5, #1
 8000f40:	41bd      	sbcs	r5, r7
 8000f42:	444d      	add	r5, r9
 8000f44:	454d      	cmp	r5, r9
 8000f46:	4189      	sbcs	r1, r1
 8000f48:	4249      	negs	r1, r1
 8000f4a:	4688      	mov	r8, r1
 8000f4c:	4498      	add	r8, r3
 8000f4e:	4643      	mov	r3, r8
 8000f50:	021b      	lsls	r3, r3, #8
 8000f52:	d400      	bmi.n	8000f56 <__aeabi_dadd+0x406>
 8000f54:	e718      	b.n	8000d88 <__aeabi_dadd+0x238>
 8000f56:	4bb1      	ldr	r3, [pc, #708]	; (800121c <__aeabi_dadd+0x6cc>)
 8000f58:	3601      	adds	r6, #1
 8000f5a:	429e      	cmp	r6, r3
 8000f5c:	d049      	beq.n	8000ff2 <__aeabi_dadd+0x4a2>
 8000f5e:	4642      	mov	r2, r8
 8000f60:	4baf      	ldr	r3, [pc, #700]	; (8001220 <__aeabi_dadd+0x6d0>)
 8000f62:	2101      	movs	r1, #1
 8000f64:	401a      	ands	r2, r3
 8000f66:	0013      	movs	r3, r2
 8000f68:	086a      	lsrs	r2, r5, #1
 8000f6a:	400d      	ands	r5, r1
 8000f6c:	4315      	orrs	r5, r2
 8000f6e:	07d9      	lsls	r1, r3, #31
 8000f70:	085b      	lsrs	r3, r3, #1
 8000f72:	4698      	mov	r8, r3
 8000f74:	430d      	orrs	r5, r1
 8000f76:	e665      	b.n	8000c44 <__aeabi_dadd+0xf4>
 8000f78:	0018      	movs	r0, r3
 8000f7a:	3e1f      	subs	r6, #31
 8000f7c:	40f0      	lsrs	r0, r6
 8000f7e:	2a20      	cmp	r2, #32
 8000f80:	d003      	beq.n	8000f8a <__aeabi_dadd+0x43a>
 8000f82:	2140      	movs	r1, #64	; 0x40
 8000f84:	1a8a      	subs	r2, r1, r2
 8000f86:	4093      	lsls	r3, r2
 8000f88:	431d      	orrs	r5, r3
 8000f8a:	1e69      	subs	r1, r5, #1
 8000f8c:	418d      	sbcs	r5, r1
 8000f8e:	2300      	movs	r3, #0
 8000f90:	2600      	movs	r6, #0
 8000f92:	4698      	mov	r8, r3
 8000f94:	4305      	orrs	r5, r0
 8000f96:	e6f7      	b.n	8000d88 <__aeabi_dadd+0x238>
 8000f98:	0011      	movs	r1, r2
 8000f9a:	4665      	mov	r5, ip
 8000f9c:	3920      	subs	r1, #32
 8000f9e:	40cd      	lsrs	r5, r1
 8000fa0:	2a20      	cmp	r2, #32
 8000fa2:	d004      	beq.n	8000fae <__aeabi_dadd+0x45e>
 8000fa4:	2040      	movs	r0, #64	; 0x40
 8000fa6:	4661      	mov	r1, ip
 8000fa8:	1a82      	subs	r2, r0, r2
 8000faa:	4091      	lsls	r1, r2
 8000fac:	430f      	orrs	r7, r1
 8000fae:	0039      	movs	r1, r7
 8000fb0:	1e4f      	subs	r7, r1, #1
 8000fb2:	41b9      	sbcs	r1, r7
 8000fb4:	4329      	orrs	r1, r5
 8000fb6:	e60f      	b.n	8000bd8 <__aeabi_dadd+0x88>
 8000fb8:	464a      	mov	r2, r9
 8000fba:	4313      	orrs	r3, r2
 8000fbc:	001d      	movs	r5, r3
 8000fbe:	1e6b      	subs	r3, r5, #1
 8000fc0:	419d      	sbcs	r5, r3
 8000fc2:	1b7d      	subs	r5, r7, r5
 8000fc4:	42af      	cmp	r7, r5
 8000fc6:	419b      	sbcs	r3, r3
 8000fc8:	4662      	mov	r2, ip
 8000fca:	425b      	negs	r3, r3
 8000fcc:	1ad3      	subs	r3, r2, r3
 8000fce:	4698      	mov	r8, r3
 8000fd0:	4654      	mov	r4, sl
 8000fd2:	000e      	movs	r6, r1
 8000fd4:	e607      	b.n	8000be6 <__aeabi_dadd+0x96>
 8000fd6:	4648      	mov	r0, r9
 8000fd8:	4318      	orrs	r0, r3
 8000fda:	d100      	bne.n	8000fde <__aeabi_dadd+0x48e>
 8000fdc:	e0b3      	b.n	8001146 <__aeabi_dadd+0x5f6>
 8000fde:	1e50      	subs	r0, r2, #1
 8000fe0:	2a01      	cmp	r2, #1
 8000fe2:	d100      	bne.n	8000fe6 <__aeabi_dadd+0x496>
 8000fe4:	e10d      	b.n	8001202 <__aeabi_dadd+0x6b2>
 8000fe6:	4d8d      	ldr	r5, [pc, #564]	; (800121c <__aeabi_dadd+0x6cc>)
 8000fe8:	42aa      	cmp	r2, r5
 8000fea:	d100      	bne.n	8000fee <__aeabi_dadd+0x49e>
 8000fec:	e0a5      	b.n	800113a <__aeabi_dadd+0x5ea>
 8000fee:	0002      	movs	r2, r0
 8000ff0:	e710      	b.n	8000e14 <__aeabi_dadd+0x2c4>
 8000ff2:	0032      	movs	r2, r6
 8000ff4:	2300      	movs	r3, #0
 8000ff6:	2100      	movs	r1, #0
 8000ff8:	e644      	b.n	8000c84 <__aeabi_dadd+0x134>
 8000ffa:	2120      	movs	r1, #32
 8000ffc:	0038      	movs	r0, r7
 8000ffe:	1a89      	subs	r1, r1, r2
 8001000:	4665      	mov	r5, ip
 8001002:	408f      	lsls	r7, r1
 8001004:	408d      	lsls	r5, r1
 8001006:	40d0      	lsrs	r0, r2
 8001008:	1e79      	subs	r1, r7, #1
 800100a:	418f      	sbcs	r7, r1
 800100c:	4305      	orrs	r5, r0
 800100e:	433d      	orrs	r5, r7
 8001010:	4667      	mov	r7, ip
 8001012:	40d7      	lsrs	r7, r2
 8001014:	19db      	adds	r3, r3, r7
 8001016:	e794      	b.n	8000f42 <__aeabi_dadd+0x3f2>
 8001018:	4a80      	ldr	r2, [pc, #512]	; (800121c <__aeabi_dadd+0x6cc>)
 800101a:	4290      	cmp	r0, r2
 800101c:	d100      	bne.n	8001020 <__aeabi_dadd+0x4d0>
 800101e:	e0ec      	b.n	80011fa <__aeabi_dadd+0x6aa>
 8001020:	0039      	movs	r1, r7
 8001022:	4449      	add	r1, r9
 8001024:	4549      	cmp	r1, r9
 8001026:	4192      	sbcs	r2, r2
 8001028:	4463      	add	r3, ip
 800102a:	4252      	negs	r2, r2
 800102c:	189b      	adds	r3, r3, r2
 800102e:	07dd      	lsls	r5, r3, #31
 8001030:	0849      	lsrs	r1, r1, #1
 8001032:	085b      	lsrs	r3, r3, #1
 8001034:	4698      	mov	r8, r3
 8001036:	0006      	movs	r6, r0
 8001038:	430d      	orrs	r5, r1
 800103a:	e6a5      	b.n	8000d88 <__aeabi_dadd+0x238>
 800103c:	464a      	mov	r2, r9
 800103e:	1abd      	subs	r5, r7, r2
 8001040:	42af      	cmp	r7, r5
 8001042:	4189      	sbcs	r1, r1
 8001044:	4662      	mov	r2, ip
 8001046:	4249      	negs	r1, r1
 8001048:	1ad3      	subs	r3, r2, r3
 800104a:	1a5b      	subs	r3, r3, r1
 800104c:	4698      	mov	r8, r3
 800104e:	4654      	mov	r4, sl
 8001050:	e5d1      	b.n	8000bf6 <__aeabi_dadd+0xa6>
 8001052:	076c      	lsls	r4, r5, #29
 8001054:	08f9      	lsrs	r1, r7, #3
 8001056:	4321      	orrs	r1, r4
 8001058:	08eb      	lsrs	r3, r5, #3
 800105a:	0004      	movs	r4, r0
 800105c:	e69d      	b.n	8000d9a <__aeabi_dadd+0x24a>
 800105e:	464a      	mov	r2, r9
 8001060:	431a      	orrs	r2, r3
 8001062:	d175      	bne.n	8001150 <__aeabi_dadd+0x600>
 8001064:	4661      	mov	r1, ip
 8001066:	4339      	orrs	r1, r7
 8001068:	d114      	bne.n	8001094 <__aeabi_dadd+0x544>
 800106a:	2380      	movs	r3, #128	; 0x80
 800106c:	2400      	movs	r4, #0
 800106e:	031b      	lsls	r3, r3, #12
 8001070:	e6bc      	b.n	8000dec <__aeabi_dadd+0x29c>
 8001072:	464a      	mov	r2, r9
 8001074:	1bd5      	subs	r5, r2, r7
 8001076:	45a9      	cmp	r9, r5
 8001078:	4189      	sbcs	r1, r1
 800107a:	4662      	mov	r2, ip
 800107c:	4249      	negs	r1, r1
 800107e:	1a9b      	subs	r3, r3, r2
 8001080:	1a5b      	subs	r3, r3, r1
 8001082:	4698      	mov	r8, r3
 8001084:	2601      	movs	r6, #1
 8001086:	e5ae      	b.n	8000be6 <__aeabi_dadd+0x96>
 8001088:	464a      	mov	r2, r9
 800108a:	08d1      	lsrs	r1, r2, #3
 800108c:	075a      	lsls	r2, r3, #29
 800108e:	4311      	orrs	r1, r2
 8001090:	08db      	lsrs	r3, r3, #3
 8001092:	e6a7      	b.n	8000de4 <__aeabi_dadd+0x294>
 8001094:	4663      	mov	r3, ip
 8001096:	08f9      	lsrs	r1, r7, #3
 8001098:	075a      	lsls	r2, r3, #29
 800109a:	4654      	mov	r4, sl
 800109c:	4311      	orrs	r1, r2
 800109e:	08db      	lsrs	r3, r3, #3
 80010a0:	e6a0      	b.n	8000de4 <__aeabi_dadd+0x294>
 80010a2:	464a      	mov	r2, r9
 80010a4:	4313      	orrs	r3, r2
 80010a6:	001d      	movs	r5, r3
 80010a8:	1e6b      	subs	r3, r5, #1
 80010aa:	419d      	sbcs	r5, r3
 80010ac:	e6c7      	b.n	8000e3e <__aeabi_dadd+0x2ee>
 80010ae:	0014      	movs	r4, r2
 80010b0:	001e      	movs	r6, r3
 80010b2:	3c20      	subs	r4, #32
 80010b4:	40e6      	lsrs	r6, r4
 80010b6:	2a20      	cmp	r2, #32
 80010b8:	d005      	beq.n	80010c6 <__aeabi_dadd+0x576>
 80010ba:	2440      	movs	r4, #64	; 0x40
 80010bc:	1aa2      	subs	r2, r4, r2
 80010be:	4093      	lsls	r3, r2
 80010c0:	464a      	mov	r2, r9
 80010c2:	431a      	orrs	r2, r3
 80010c4:	4691      	mov	r9, r2
 80010c6:	464d      	mov	r5, r9
 80010c8:	1e6b      	subs	r3, r5, #1
 80010ca:	419d      	sbcs	r5, r3
 80010cc:	4335      	orrs	r5, r6
 80010ce:	e778      	b.n	8000fc2 <__aeabi_dadd+0x472>
 80010d0:	464a      	mov	r2, r9
 80010d2:	431a      	orrs	r2, r3
 80010d4:	d000      	beq.n	80010d8 <__aeabi_dadd+0x588>
 80010d6:	e66b      	b.n	8000db0 <__aeabi_dadd+0x260>
 80010d8:	076b      	lsls	r3, r5, #29
 80010da:	08f9      	lsrs	r1, r7, #3
 80010dc:	4319      	orrs	r1, r3
 80010de:	08eb      	lsrs	r3, r5, #3
 80010e0:	e680      	b.n	8000de4 <__aeabi_dadd+0x294>
 80010e2:	4661      	mov	r1, ip
 80010e4:	4339      	orrs	r1, r7
 80010e6:	d054      	beq.n	8001192 <__aeabi_dadd+0x642>
 80010e8:	4663      	mov	r3, ip
 80010ea:	08f9      	lsrs	r1, r7, #3
 80010ec:	075c      	lsls	r4, r3, #29
 80010ee:	4321      	orrs	r1, r4
 80010f0:	08db      	lsrs	r3, r3, #3
 80010f2:	0004      	movs	r4, r0
 80010f4:	e654      	b.n	8000da0 <__aeabi_dadd+0x250>
 80010f6:	464a      	mov	r2, r9
 80010f8:	1abd      	subs	r5, r7, r2
 80010fa:	42af      	cmp	r7, r5
 80010fc:	4189      	sbcs	r1, r1
 80010fe:	4662      	mov	r2, ip
 8001100:	4249      	negs	r1, r1
 8001102:	1ad3      	subs	r3, r2, r3
 8001104:	1a5b      	subs	r3, r3, r1
 8001106:	4698      	mov	r8, r3
 8001108:	0004      	movs	r4, r0
 800110a:	2601      	movs	r6, #1
 800110c:	e56b      	b.n	8000be6 <__aeabi_dadd+0x96>
 800110e:	464a      	mov	r2, r9
 8001110:	1bd5      	subs	r5, r2, r7
 8001112:	45a9      	cmp	r9, r5
 8001114:	4189      	sbcs	r1, r1
 8001116:	4662      	mov	r2, ip
 8001118:	4249      	negs	r1, r1
 800111a:	1a9a      	subs	r2, r3, r2
 800111c:	1a52      	subs	r2, r2, r1
 800111e:	4690      	mov	r8, r2
 8001120:	0212      	lsls	r2, r2, #8
 8001122:	d532      	bpl.n	800118a <__aeabi_dadd+0x63a>
 8001124:	464a      	mov	r2, r9
 8001126:	1abd      	subs	r5, r7, r2
 8001128:	42af      	cmp	r7, r5
 800112a:	4189      	sbcs	r1, r1
 800112c:	4662      	mov	r2, ip
 800112e:	4249      	negs	r1, r1
 8001130:	1ad3      	subs	r3, r2, r3
 8001132:	1a5b      	subs	r3, r3, r1
 8001134:	4698      	mov	r8, r3
 8001136:	0004      	movs	r4, r0
 8001138:	e584      	b.n	8000c44 <__aeabi_dadd+0xf4>
 800113a:	4663      	mov	r3, ip
 800113c:	08f9      	lsrs	r1, r7, #3
 800113e:	075a      	lsls	r2, r3, #29
 8001140:	4311      	orrs	r1, r2
 8001142:	08db      	lsrs	r3, r3, #3
 8001144:	e64e      	b.n	8000de4 <__aeabi_dadd+0x294>
 8001146:	08f9      	lsrs	r1, r7, #3
 8001148:	0768      	lsls	r0, r5, #29
 800114a:	4301      	orrs	r1, r0
 800114c:	08eb      	lsrs	r3, r5, #3
 800114e:	e624      	b.n	8000d9a <__aeabi_dadd+0x24a>
 8001150:	4662      	mov	r2, ip
 8001152:	433a      	orrs	r2, r7
 8001154:	d100      	bne.n	8001158 <__aeabi_dadd+0x608>
 8001156:	e698      	b.n	8000e8a <__aeabi_dadd+0x33a>
 8001158:	464a      	mov	r2, r9
 800115a:	08d1      	lsrs	r1, r2, #3
 800115c:	075a      	lsls	r2, r3, #29
 800115e:	4311      	orrs	r1, r2
 8001160:	08da      	lsrs	r2, r3, #3
 8001162:	2380      	movs	r3, #128	; 0x80
 8001164:	031b      	lsls	r3, r3, #12
 8001166:	421a      	tst	r2, r3
 8001168:	d008      	beq.n	800117c <__aeabi_dadd+0x62c>
 800116a:	4660      	mov	r0, ip
 800116c:	08c5      	lsrs	r5, r0, #3
 800116e:	421d      	tst	r5, r3
 8001170:	d104      	bne.n	800117c <__aeabi_dadd+0x62c>
 8001172:	4654      	mov	r4, sl
 8001174:	002a      	movs	r2, r5
 8001176:	08f9      	lsrs	r1, r7, #3
 8001178:	0743      	lsls	r3, r0, #29
 800117a:	4319      	orrs	r1, r3
 800117c:	0f4b      	lsrs	r3, r1, #29
 800117e:	00c9      	lsls	r1, r1, #3
 8001180:	075b      	lsls	r3, r3, #29
 8001182:	08c9      	lsrs	r1, r1, #3
 8001184:	4319      	orrs	r1, r3
 8001186:	0013      	movs	r3, r2
 8001188:	e62c      	b.n	8000de4 <__aeabi_dadd+0x294>
 800118a:	4641      	mov	r1, r8
 800118c:	4329      	orrs	r1, r5
 800118e:	d000      	beq.n	8001192 <__aeabi_dadd+0x642>
 8001190:	e5fa      	b.n	8000d88 <__aeabi_dadd+0x238>
 8001192:	2300      	movs	r3, #0
 8001194:	000a      	movs	r2, r1
 8001196:	2400      	movs	r4, #0
 8001198:	e602      	b.n	8000da0 <__aeabi_dadd+0x250>
 800119a:	076b      	lsls	r3, r5, #29
 800119c:	08f9      	lsrs	r1, r7, #3
 800119e:	4319      	orrs	r1, r3
 80011a0:	08eb      	lsrs	r3, r5, #3
 80011a2:	e5fd      	b.n	8000da0 <__aeabi_dadd+0x250>
 80011a4:	4663      	mov	r3, ip
 80011a6:	08f9      	lsrs	r1, r7, #3
 80011a8:	075b      	lsls	r3, r3, #29
 80011aa:	4319      	orrs	r1, r3
 80011ac:	4663      	mov	r3, ip
 80011ae:	0004      	movs	r4, r0
 80011b0:	08db      	lsrs	r3, r3, #3
 80011b2:	e617      	b.n	8000de4 <__aeabi_dadd+0x294>
 80011b4:	003d      	movs	r5, r7
 80011b6:	444d      	add	r5, r9
 80011b8:	4463      	add	r3, ip
 80011ba:	454d      	cmp	r5, r9
 80011bc:	4189      	sbcs	r1, r1
 80011be:	4698      	mov	r8, r3
 80011c0:	4249      	negs	r1, r1
 80011c2:	4488      	add	r8, r1
 80011c4:	4643      	mov	r3, r8
 80011c6:	021b      	lsls	r3, r3, #8
 80011c8:	d400      	bmi.n	80011cc <__aeabi_dadd+0x67c>
 80011ca:	e5dd      	b.n	8000d88 <__aeabi_dadd+0x238>
 80011cc:	4642      	mov	r2, r8
 80011ce:	4b14      	ldr	r3, [pc, #80]	; (8001220 <__aeabi_dadd+0x6d0>)
 80011d0:	2601      	movs	r6, #1
 80011d2:	401a      	ands	r2, r3
 80011d4:	4690      	mov	r8, r2
 80011d6:	e5d7      	b.n	8000d88 <__aeabi_dadd+0x238>
 80011d8:	0010      	movs	r0, r2
 80011da:	001e      	movs	r6, r3
 80011dc:	3820      	subs	r0, #32
 80011de:	40c6      	lsrs	r6, r0
 80011e0:	2a20      	cmp	r2, #32
 80011e2:	d005      	beq.n	80011f0 <__aeabi_dadd+0x6a0>
 80011e4:	2040      	movs	r0, #64	; 0x40
 80011e6:	1a82      	subs	r2, r0, r2
 80011e8:	4093      	lsls	r3, r2
 80011ea:	464a      	mov	r2, r9
 80011ec:	431a      	orrs	r2, r3
 80011ee:	4691      	mov	r9, r2
 80011f0:	464d      	mov	r5, r9
 80011f2:	1e6b      	subs	r3, r5, #1
 80011f4:	419d      	sbcs	r5, r3
 80011f6:	4335      	orrs	r5, r6
 80011f8:	e621      	b.n	8000e3e <__aeabi_dadd+0x2ee>
 80011fa:	0002      	movs	r2, r0
 80011fc:	2300      	movs	r3, #0
 80011fe:	2100      	movs	r1, #0
 8001200:	e540      	b.n	8000c84 <__aeabi_dadd+0x134>
 8001202:	464a      	mov	r2, r9
 8001204:	19d5      	adds	r5, r2, r7
 8001206:	42bd      	cmp	r5, r7
 8001208:	4189      	sbcs	r1, r1
 800120a:	4463      	add	r3, ip
 800120c:	4698      	mov	r8, r3
 800120e:	4249      	negs	r1, r1
 8001210:	4488      	add	r8, r1
 8001212:	e5b3      	b.n	8000d7c <__aeabi_dadd+0x22c>
 8001214:	2100      	movs	r1, #0
 8001216:	4a01      	ldr	r2, [pc, #4]	; (800121c <__aeabi_dadd+0x6cc>)
 8001218:	000b      	movs	r3, r1
 800121a:	e533      	b.n	8000c84 <__aeabi_dadd+0x134>
 800121c:	000007ff 	.word	0x000007ff
 8001220:	ff7fffff 	.word	0xff7fffff

08001224 <__aeabi_ddiv>:
 8001224:	b5f0      	push	{r4, r5, r6, r7, lr}
 8001226:	4657      	mov	r7, sl
 8001228:	464e      	mov	r6, r9
 800122a:	4645      	mov	r5, r8
 800122c:	46de      	mov	lr, fp
 800122e:	b5e0      	push	{r5, r6, r7, lr}
 8001230:	4681      	mov	r9, r0
 8001232:	0005      	movs	r5, r0
 8001234:	030c      	lsls	r4, r1, #12
 8001236:	0048      	lsls	r0, r1, #1
 8001238:	4692      	mov	sl, r2
 800123a:	001f      	movs	r7, r3
 800123c:	b085      	sub	sp, #20
 800123e:	0b24      	lsrs	r4, r4, #12
 8001240:	0d40      	lsrs	r0, r0, #21
 8001242:	0fce      	lsrs	r6, r1, #31
 8001244:	2800      	cmp	r0, #0
 8001246:	d059      	beq.n	80012fc <__aeabi_ddiv+0xd8>
 8001248:	4b87      	ldr	r3, [pc, #540]	; (8001468 <__aeabi_ddiv+0x244>)
 800124a:	4298      	cmp	r0, r3
 800124c:	d100      	bne.n	8001250 <__aeabi_ddiv+0x2c>
 800124e:	e098      	b.n	8001382 <__aeabi_ddiv+0x15e>
 8001250:	0f6b      	lsrs	r3, r5, #29
 8001252:	00e4      	lsls	r4, r4, #3
 8001254:	431c      	orrs	r4, r3
 8001256:	2380      	movs	r3, #128	; 0x80
 8001258:	041b      	lsls	r3, r3, #16
 800125a:	4323      	orrs	r3, r4
 800125c:	4698      	mov	r8, r3
 800125e:	4b83      	ldr	r3, [pc, #524]	; (800146c <__aeabi_ddiv+0x248>)
 8001260:	00ed      	lsls	r5, r5, #3
 8001262:	469b      	mov	fp, r3
 8001264:	2300      	movs	r3, #0
 8001266:	4699      	mov	r9, r3
 8001268:	4483      	add	fp, r0
 800126a:	9300      	str	r3, [sp, #0]
 800126c:	033c      	lsls	r4, r7, #12
 800126e:	007b      	lsls	r3, r7, #1
 8001270:	4650      	mov	r0, sl
 8001272:	0b24      	lsrs	r4, r4, #12
 8001274:	0d5b      	lsrs	r3, r3, #21
 8001276:	0fff      	lsrs	r7, r7, #31
 8001278:	2b00      	cmp	r3, #0
 800127a:	d067      	beq.n	800134c <__aeabi_ddiv+0x128>
 800127c:	4a7a      	ldr	r2, [pc, #488]	; (8001468 <__aeabi_ddiv+0x244>)
 800127e:	4293      	cmp	r3, r2
 8001280:	d018      	beq.n	80012b4 <__aeabi_ddiv+0x90>
 8001282:	497a      	ldr	r1, [pc, #488]	; (800146c <__aeabi_ddiv+0x248>)
 8001284:	0f42      	lsrs	r2, r0, #29
 8001286:	468c      	mov	ip, r1
 8001288:	00e4      	lsls	r4, r4, #3
 800128a:	4659      	mov	r1, fp
 800128c:	4314      	orrs	r4, r2
 800128e:	2280      	movs	r2, #128	; 0x80
 8001290:	4463      	add	r3, ip
 8001292:	0412      	lsls	r2, r2, #16
 8001294:	1acb      	subs	r3, r1, r3
 8001296:	4314      	orrs	r4, r2
 8001298:	469b      	mov	fp, r3
 800129a:	00c2      	lsls	r2, r0, #3
 800129c:	2000      	movs	r0, #0
 800129e:	0033      	movs	r3, r6
 80012a0:	407b      	eors	r3, r7
 80012a2:	469a      	mov	sl, r3
 80012a4:	464b      	mov	r3, r9
 80012a6:	2b0f      	cmp	r3, #15
 80012a8:	d900      	bls.n	80012ac <__aeabi_ddiv+0x88>
 80012aa:	e0ef      	b.n	800148c <__aeabi_ddiv+0x268>
 80012ac:	4970      	ldr	r1, [pc, #448]	; (8001470 <__aeabi_ddiv+0x24c>)
 80012ae:	009b      	lsls	r3, r3, #2
 80012b0:	58cb      	ldr	r3, [r1, r3]
 80012b2:	469f      	mov	pc, r3
 80012b4:	4b6f      	ldr	r3, [pc, #444]	; (8001474 <__aeabi_ddiv+0x250>)
 80012b6:	4652      	mov	r2, sl
 80012b8:	469c      	mov	ip, r3
 80012ba:	4322      	orrs	r2, r4
 80012bc:	44e3      	add	fp, ip
 80012be:	2a00      	cmp	r2, #0
 80012c0:	d000      	beq.n	80012c4 <__aeabi_ddiv+0xa0>
 80012c2:	e095      	b.n	80013f0 <__aeabi_ddiv+0x1cc>
 80012c4:	4649      	mov	r1, r9
 80012c6:	2302      	movs	r3, #2
 80012c8:	4319      	orrs	r1, r3
 80012ca:	4689      	mov	r9, r1
 80012cc:	2400      	movs	r4, #0
 80012ce:	2002      	movs	r0, #2
 80012d0:	e7e5      	b.n	800129e <__aeabi_ddiv+0x7a>
 80012d2:	2300      	movs	r3, #0
 80012d4:	2400      	movs	r4, #0
 80012d6:	2500      	movs	r5, #0
 80012d8:	4652      	mov	r2, sl
 80012da:	051b      	lsls	r3, r3, #20
 80012dc:	4323      	orrs	r3, r4
 80012de:	07d2      	lsls	r2, r2, #31
 80012e0:	4313      	orrs	r3, r2
 80012e2:	0028      	movs	r0, r5
 80012e4:	0019      	movs	r1, r3
 80012e6:	b005      	add	sp, #20
 80012e8:	bcf0      	pop	{r4, r5, r6, r7}
 80012ea:	46bb      	mov	fp, r7
 80012ec:	46b2      	mov	sl, r6
 80012ee:	46a9      	mov	r9, r5
 80012f0:	46a0      	mov	r8, r4
 80012f2:	bdf0      	pop	{r4, r5, r6, r7, pc}
 80012f4:	2400      	movs	r4, #0
 80012f6:	2500      	movs	r5, #0
 80012f8:	4b5b      	ldr	r3, [pc, #364]	; (8001468 <__aeabi_ddiv+0x244>)
 80012fa:	e7ed      	b.n	80012d8 <__aeabi_ddiv+0xb4>
 80012fc:	464b      	mov	r3, r9
 80012fe:	4323      	orrs	r3, r4
 8001300:	4698      	mov	r8, r3
 8001302:	d100      	bne.n	8001306 <__aeabi_ddiv+0xe2>
 8001304:	e089      	b.n	800141a <__aeabi_ddiv+0x1f6>
 8001306:	2c00      	cmp	r4, #0
 8001308:	d100      	bne.n	800130c <__aeabi_ddiv+0xe8>
 800130a:	e1e0      	b.n	80016ce <__aeabi_ddiv+0x4aa>
 800130c:	0020      	movs	r0, r4
 800130e:	f001 fa7f 	bl	8002810 <__clzsi2>
 8001312:	0001      	movs	r1, r0
 8001314:	0002      	movs	r2, r0
 8001316:	390b      	subs	r1, #11
 8001318:	231d      	movs	r3, #29
 800131a:	1a5b      	subs	r3, r3, r1
 800131c:	4649      	mov	r1, r9
 800131e:	0010      	movs	r0, r2
 8001320:	40d9      	lsrs	r1, r3
 8001322:	3808      	subs	r0, #8
 8001324:	4084      	lsls	r4, r0
 8001326:	000b      	movs	r3, r1
 8001328:	464d      	mov	r5, r9
 800132a:	4323      	orrs	r3, r4
 800132c:	4698      	mov	r8, r3
 800132e:	4085      	lsls	r5, r0
 8001330:	4851      	ldr	r0, [pc, #324]	; (8001478 <__aeabi_ddiv+0x254>)
 8001332:	033c      	lsls	r4, r7, #12
 8001334:	1a83      	subs	r3, r0, r2
 8001336:	469b      	mov	fp, r3
 8001338:	2300      	movs	r3, #0
 800133a:	4699      	mov	r9, r3
 800133c:	9300      	str	r3, [sp, #0]
 800133e:	007b      	lsls	r3, r7, #1
 8001340:	4650      	mov	r0, sl
 8001342:	0b24      	lsrs	r4, r4, #12
 8001344:	0d5b      	lsrs	r3, r3, #21
 8001346:	0fff      	lsrs	r7, r7, #31
 8001348:	2b00      	cmp	r3, #0
 800134a:	d197      	bne.n	800127c <__aeabi_ddiv+0x58>
 800134c:	4652      	mov	r2, sl
 800134e:	4322      	orrs	r2, r4
 8001350:	d055      	beq.n	80013fe <__aeabi_ddiv+0x1da>
 8001352:	2c00      	cmp	r4, #0
 8001354:	d100      	bne.n	8001358 <__aeabi_ddiv+0x134>
 8001356:	e1ca      	b.n	80016ee <__aeabi_ddiv+0x4ca>
 8001358:	0020      	movs	r0, r4
 800135a:	f001 fa59 	bl	8002810 <__clzsi2>
 800135e:	0002      	movs	r2, r0
 8001360:	3a0b      	subs	r2, #11
 8001362:	231d      	movs	r3, #29
 8001364:	0001      	movs	r1, r0
 8001366:	1a9b      	subs	r3, r3, r2
 8001368:	4652      	mov	r2, sl
 800136a:	3908      	subs	r1, #8
 800136c:	40da      	lsrs	r2, r3
 800136e:	408c      	lsls	r4, r1
 8001370:	4314      	orrs	r4, r2
 8001372:	4652      	mov	r2, sl
 8001374:	408a      	lsls	r2, r1
 8001376:	4b41      	ldr	r3, [pc, #260]	; (800147c <__aeabi_ddiv+0x258>)
 8001378:	4458      	add	r0, fp
 800137a:	469b      	mov	fp, r3
 800137c:	4483      	add	fp, r0
 800137e:	2000      	movs	r0, #0
 8001380:	e78d      	b.n	800129e <__aeabi_ddiv+0x7a>
 8001382:	464b      	mov	r3, r9
 8001384:	4323      	orrs	r3, r4
 8001386:	4698      	mov	r8, r3
 8001388:	d140      	bne.n	800140c <__aeabi_ddiv+0x1e8>
 800138a:	2308      	movs	r3, #8
 800138c:	4699      	mov	r9, r3
 800138e:	3b06      	subs	r3, #6
 8001390:	2500      	movs	r5, #0
 8001392:	4683      	mov	fp, r0
 8001394:	9300      	str	r3, [sp, #0]
 8001396:	e769      	b.n	800126c <__aeabi_ddiv+0x48>
 8001398:	46b2      	mov	sl, r6
 800139a:	9b00      	ldr	r3, [sp, #0]
 800139c:	2b02      	cmp	r3, #2
 800139e:	d0a9      	beq.n	80012f4 <__aeabi_ddiv+0xd0>
 80013a0:	2b03      	cmp	r3, #3
 80013a2:	d100      	bne.n	80013a6 <__aeabi_ddiv+0x182>
 80013a4:	e211      	b.n	80017ca <__aeabi_ddiv+0x5a6>
 80013a6:	2b01      	cmp	r3, #1
 80013a8:	d093      	beq.n	80012d2 <__aeabi_ddiv+0xae>
 80013aa:	4a35      	ldr	r2, [pc, #212]	; (8001480 <__aeabi_ddiv+0x25c>)
 80013ac:	445a      	add	r2, fp
 80013ae:	2a00      	cmp	r2, #0
 80013b0:	dc00      	bgt.n	80013b4 <__aeabi_ddiv+0x190>
 80013b2:	e13c      	b.n	800162e <__aeabi_ddiv+0x40a>
 80013b4:	076b      	lsls	r3, r5, #29
 80013b6:	d000      	beq.n	80013ba <__aeabi_ddiv+0x196>
 80013b8:	e1a7      	b.n	800170a <__aeabi_ddiv+0x4e6>
 80013ba:	08ed      	lsrs	r5, r5, #3
 80013bc:	4643      	mov	r3, r8
 80013be:	01db      	lsls	r3, r3, #7
 80013c0:	d506      	bpl.n	80013d0 <__aeabi_ddiv+0x1ac>
 80013c2:	4642      	mov	r2, r8
 80013c4:	4b2f      	ldr	r3, [pc, #188]	; (8001484 <__aeabi_ddiv+0x260>)
 80013c6:	401a      	ands	r2, r3
 80013c8:	4690      	mov	r8, r2
 80013ca:	2280      	movs	r2, #128	; 0x80
 80013cc:	00d2      	lsls	r2, r2, #3
 80013ce:	445a      	add	r2, fp
 80013d0:	4b2d      	ldr	r3, [pc, #180]	; (8001488 <__aeabi_ddiv+0x264>)
 80013d2:	429a      	cmp	r2, r3
 80013d4:	dc8e      	bgt.n	80012f4 <__aeabi_ddiv+0xd0>
 80013d6:	4643      	mov	r3, r8
 80013d8:	0552      	lsls	r2, r2, #21
 80013da:	0758      	lsls	r0, r3, #29
 80013dc:	025c      	lsls	r4, r3, #9
 80013de:	4305      	orrs	r5, r0
 80013e0:	0b24      	lsrs	r4, r4, #12
 80013e2:	0d53      	lsrs	r3, r2, #21
 80013e4:	e778      	b.n	80012d8 <__aeabi_ddiv+0xb4>
 80013e6:	46ba      	mov	sl, r7
 80013e8:	46a0      	mov	r8, r4
 80013ea:	0015      	movs	r5, r2
 80013ec:	9000      	str	r0, [sp, #0]
 80013ee:	e7d4      	b.n	800139a <__aeabi_ddiv+0x176>
 80013f0:	464a      	mov	r2, r9
 80013f2:	2303      	movs	r3, #3
 80013f4:	431a      	orrs	r2, r3
 80013f6:	4691      	mov	r9, r2
 80013f8:	2003      	movs	r0, #3
 80013fa:	4652      	mov	r2, sl
 80013fc:	e74f      	b.n	800129e <__aeabi_ddiv+0x7a>
 80013fe:	4649      	mov	r1, r9
 8001400:	2301      	movs	r3, #1
 8001402:	4319      	orrs	r1, r3
 8001404:	4689      	mov	r9, r1
 8001406:	2400      	movs	r4, #0
 8001408:	2001      	movs	r0, #1
 800140a:	e748      	b.n	800129e <__aeabi_ddiv+0x7a>
 800140c:	230c      	movs	r3, #12
 800140e:	4699      	mov	r9, r3
 8001410:	3b09      	subs	r3, #9
 8001412:	46a0      	mov	r8, r4
 8001414:	4683      	mov	fp, r0
 8001416:	9300      	str	r3, [sp, #0]
 8001418:	e728      	b.n	800126c <__aeabi_ddiv+0x48>
 800141a:	2304      	movs	r3, #4
 800141c:	4699      	mov	r9, r3
 800141e:	2300      	movs	r3, #0
 8001420:	469b      	mov	fp, r3
 8001422:	3301      	adds	r3, #1
 8001424:	2500      	movs	r5, #0
 8001426:	9300      	str	r3, [sp, #0]
 8001428:	e720      	b.n	800126c <__aeabi_ddiv+0x48>
 800142a:	2300      	movs	r3, #0
 800142c:	2480      	movs	r4, #128	; 0x80
 800142e:	469a      	mov	sl, r3
 8001430:	2500      	movs	r5, #0
 8001432:	4b0d      	ldr	r3, [pc, #52]	; (8001468 <__aeabi_ddiv+0x244>)
 8001434:	0324      	lsls	r4, r4, #12
 8001436:	e74f      	b.n	80012d8 <__aeabi_ddiv+0xb4>
 8001438:	2380      	movs	r3, #128	; 0x80
 800143a:	4641      	mov	r1, r8
 800143c:	031b      	lsls	r3, r3, #12
 800143e:	4219      	tst	r1, r3
 8001440:	d008      	beq.n	8001454 <__aeabi_ddiv+0x230>
 8001442:	421c      	tst	r4, r3
 8001444:	d106      	bne.n	8001454 <__aeabi_ddiv+0x230>
 8001446:	431c      	orrs	r4, r3
 8001448:	0324      	lsls	r4, r4, #12
 800144a:	46ba      	mov	sl, r7
 800144c:	0015      	movs	r5, r2
 800144e:	4b06      	ldr	r3, [pc, #24]	; (8001468 <__aeabi_ddiv+0x244>)
 8001450:	0b24      	lsrs	r4, r4, #12
 8001452:	e741      	b.n	80012d8 <__aeabi_ddiv+0xb4>
 8001454:	2480      	movs	r4, #128	; 0x80
 8001456:	4643      	mov	r3, r8
 8001458:	0324      	lsls	r4, r4, #12
 800145a:	431c      	orrs	r4, r3
 800145c:	0324      	lsls	r4, r4, #12
 800145e:	46b2      	mov	sl, r6
 8001460:	4b01      	ldr	r3, [pc, #4]	; (8001468 <__aeabi_ddiv+0x244>)
 8001462:	0b24      	lsrs	r4, r4, #12
 8001464:	e738      	b.n	80012d8 <__aeabi_ddiv+0xb4>
 8001466:	46c0      	nop			; (mov r8, r8)
 8001468:	000007ff 	.word	0x000007ff
 800146c:	fffffc01 	.word	0xfffffc01
 8001470:	0800b958 	.word	0x0800b958
 8001474:	fffff801 	.word	0xfffff801
 8001478:	fffffc0d 	.word	0xfffffc0d
 800147c:	000003f3 	.word	0x000003f3
 8001480:	000003ff 	.word	0x000003ff
 8001484:	feffffff 	.word	0xfeffffff
 8001488:	000007fe 	.word	0x000007fe
 800148c:	4544      	cmp	r4, r8
 800148e:	d200      	bcs.n	8001492 <__aeabi_ddiv+0x26e>
 8001490:	e116      	b.n	80016c0 <__aeabi_ddiv+0x49c>
 8001492:	d100      	bne.n	8001496 <__aeabi_ddiv+0x272>
 8001494:	e111      	b.n	80016ba <__aeabi_ddiv+0x496>
 8001496:	2301      	movs	r3, #1
 8001498:	425b      	negs	r3, r3
 800149a:	469c      	mov	ip, r3
 800149c:	002e      	movs	r6, r5
 800149e:	4640      	mov	r0, r8
 80014a0:	2500      	movs	r5, #0
 80014a2:	44e3      	add	fp, ip
 80014a4:	0223      	lsls	r3, r4, #8
 80014a6:	0e14      	lsrs	r4, r2, #24
 80014a8:	431c      	orrs	r4, r3
 80014aa:	0c1b      	lsrs	r3, r3, #16
 80014ac:	4699      	mov	r9, r3
 80014ae:	0423      	lsls	r3, r4, #16
 80014b0:	0c1f      	lsrs	r7, r3, #16
 80014b2:	0212      	lsls	r2, r2, #8
 80014b4:	4649      	mov	r1, r9
 80014b6:	9200      	str	r2, [sp, #0]
 80014b8:	9701      	str	r7, [sp, #4]
 80014ba:	f7fe fec3 	bl	8000244 <__aeabi_uidivmod>
 80014be:	0002      	movs	r2, r0
 80014c0:	437a      	muls	r2, r7
 80014c2:	040b      	lsls	r3, r1, #16
 80014c4:	0c31      	lsrs	r1, r6, #16
 80014c6:	4680      	mov	r8, r0
 80014c8:	4319      	orrs	r1, r3
 80014ca:	428a      	cmp	r2, r1
 80014cc:	d90b      	bls.n	80014e6 <__aeabi_ddiv+0x2c2>
 80014ce:	2301      	movs	r3, #1
 80014d0:	425b      	negs	r3, r3
 80014d2:	469c      	mov	ip, r3
 80014d4:	1909      	adds	r1, r1, r4
 80014d6:	44e0      	add	r8, ip
 80014d8:	428c      	cmp	r4, r1
 80014da:	d804      	bhi.n	80014e6 <__aeabi_ddiv+0x2c2>
 80014dc:	428a      	cmp	r2, r1
 80014de:	d902      	bls.n	80014e6 <__aeabi_ddiv+0x2c2>
 80014e0:	1e83      	subs	r3, r0, #2
 80014e2:	4698      	mov	r8, r3
 80014e4:	1909      	adds	r1, r1, r4
 80014e6:	1a88      	subs	r0, r1, r2
 80014e8:	4649      	mov	r1, r9
 80014ea:	f7fe feab 	bl	8000244 <__aeabi_uidivmod>
 80014ee:	0409      	lsls	r1, r1, #16
 80014f0:	468c      	mov	ip, r1
 80014f2:	0431      	lsls	r1, r6, #16
 80014f4:	4666      	mov	r6, ip
 80014f6:	9a01      	ldr	r2, [sp, #4]
 80014f8:	0c09      	lsrs	r1, r1, #16
 80014fa:	4342      	muls	r2, r0
 80014fc:	0003      	movs	r3, r0
 80014fe:	4331      	orrs	r1, r6
 8001500:	428a      	cmp	r2, r1
 8001502:	d904      	bls.n	800150e <__aeabi_ddiv+0x2ea>
 8001504:	1909      	adds	r1, r1, r4
 8001506:	3b01      	subs	r3, #1
 8001508:	428c      	cmp	r4, r1
 800150a:	d800      	bhi.n	800150e <__aeabi_ddiv+0x2ea>
 800150c:	e111      	b.n	8001732 <__aeabi_ddiv+0x50e>
 800150e:	1a89      	subs	r1, r1, r2
 8001510:	4642      	mov	r2, r8
 8001512:	9e00      	ldr	r6, [sp, #0]
 8001514:	0412      	lsls	r2, r2, #16
 8001516:	431a      	orrs	r2, r3
 8001518:	0c33      	lsrs	r3, r6, #16
 800151a:	001f      	movs	r7, r3
 800151c:	0c10      	lsrs	r0, r2, #16
 800151e:	4690      	mov	r8, r2
 8001520:	9302      	str	r3, [sp, #8]
 8001522:	0413      	lsls	r3, r2, #16
 8001524:	0432      	lsls	r2, r6, #16
 8001526:	0c16      	lsrs	r6, r2, #16
 8001528:	0032      	movs	r2, r6
 800152a:	0c1b      	lsrs	r3, r3, #16
 800152c:	435a      	muls	r2, r3
 800152e:	9603      	str	r6, [sp, #12]
 8001530:	437b      	muls	r3, r7
 8001532:	4346      	muls	r6, r0
 8001534:	4378      	muls	r0, r7
 8001536:	0c17      	lsrs	r7, r2, #16
 8001538:	46bc      	mov	ip, r7
 800153a:	199b      	adds	r3, r3, r6
 800153c:	4463      	add	r3, ip
 800153e:	429e      	cmp	r6, r3
 8001540:	d903      	bls.n	800154a <__aeabi_ddiv+0x326>
 8001542:	2680      	movs	r6, #128	; 0x80
 8001544:	0276      	lsls	r6, r6, #9
 8001546:	46b4      	mov	ip, r6
 8001548:	4460      	add	r0, ip
 800154a:	0c1e      	lsrs	r6, r3, #16
 800154c:	1830      	adds	r0, r6, r0
 800154e:	0416      	lsls	r6, r2, #16
 8001550:	041b      	lsls	r3, r3, #16
 8001552:	0c36      	lsrs	r6, r6, #16
 8001554:	199e      	adds	r6, r3, r6
 8001556:	4281      	cmp	r1, r0
 8001558:	d200      	bcs.n	800155c <__aeabi_ddiv+0x338>
 800155a:	e09c      	b.n	8001696 <__aeabi_ddiv+0x472>
 800155c:	d100      	bne.n	8001560 <__aeabi_ddiv+0x33c>
 800155e:	e097      	b.n	8001690 <__aeabi_ddiv+0x46c>
 8001560:	1bae      	subs	r6, r5, r6
 8001562:	1a09      	subs	r1, r1, r0
 8001564:	42b5      	cmp	r5, r6
 8001566:	4180      	sbcs	r0, r0
 8001568:	4240      	negs	r0, r0
 800156a:	1a08      	subs	r0, r1, r0
 800156c:	4284      	cmp	r4, r0
 800156e:	d100      	bne.n	8001572 <__aeabi_ddiv+0x34e>
 8001570:	e111      	b.n	8001796 <__aeabi_ddiv+0x572>
 8001572:	4649      	mov	r1, r9
 8001574:	f7fe fe66 	bl	8000244 <__aeabi_uidivmod>
 8001578:	9a01      	ldr	r2, [sp, #4]
 800157a:	040b      	lsls	r3, r1, #16
 800157c:	4342      	muls	r2, r0
 800157e:	0c31      	lsrs	r1, r6, #16
 8001580:	0005      	movs	r5, r0
 8001582:	4319      	orrs	r1, r3
 8001584:	428a      	cmp	r2, r1
 8001586:	d907      	bls.n	8001598 <__aeabi_ddiv+0x374>
 8001588:	1909      	adds	r1, r1, r4
 800158a:	3d01      	subs	r5, #1
 800158c:	428c      	cmp	r4, r1
 800158e:	d803      	bhi.n	8001598 <__aeabi_ddiv+0x374>
 8001590:	428a      	cmp	r2, r1
 8001592:	d901      	bls.n	8001598 <__aeabi_ddiv+0x374>
 8001594:	1e85      	subs	r5, r0, #2
 8001596:	1909      	adds	r1, r1, r4
 8001598:	1a88      	subs	r0, r1, r2
 800159a:	4649      	mov	r1, r9
 800159c:	f7fe fe52 	bl	8000244 <__aeabi_uidivmod>
 80015a0:	0409      	lsls	r1, r1, #16
 80015a2:	468c      	mov	ip, r1
 80015a4:	0431      	lsls	r1, r6, #16
 80015a6:	4666      	mov	r6, ip
 80015a8:	9a01      	ldr	r2, [sp, #4]
 80015aa:	0c09      	lsrs	r1, r1, #16
 80015ac:	4342      	muls	r2, r0
 80015ae:	0003      	movs	r3, r0
 80015b0:	4331      	orrs	r1, r6
 80015b2:	428a      	cmp	r2, r1
 80015b4:	d907      	bls.n	80015c6 <__aeabi_ddiv+0x3a2>
 80015b6:	1909      	adds	r1, r1, r4
 80015b8:	3b01      	subs	r3, #1
 80015ba:	428c      	cmp	r4, r1
 80015bc:	d803      	bhi.n	80015c6 <__aeabi_ddiv+0x3a2>
 80015be:	428a      	cmp	r2, r1
 80015c0:	d901      	bls.n	80015c6 <__aeabi_ddiv+0x3a2>
 80015c2:	1e83      	subs	r3, r0, #2
 80015c4:	1909      	adds	r1, r1, r4
 80015c6:	9e03      	ldr	r6, [sp, #12]
 80015c8:	1a89      	subs	r1, r1, r2
 80015ca:	0032      	movs	r2, r6
 80015cc:	042d      	lsls	r5, r5, #16
 80015ce:	431d      	orrs	r5, r3
 80015d0:	9f02      	ldr	r7, [sp, #8]
 80015d2:	042b      	lsls	r3, r5, #16
 80015d4:	0c1b      	lsrs	r3, r3, #16
 80015d6:	435a      	muls	r2, r3
 80015d8:	437b      	muls	r3, r7
 80015da:	469c      	mov	ip, r3
 80015dc:	0c28      	lsrs	r0, r5, #16
 80015de:	4346      	muls	r6, r0
 80015e0:	0c13      	lsrs	r3, r2, #16
 80015e2:	44b4      	add	ip, r6
 80015e4:	4463      	add	r3, ip
 80015e6:	4378      	muls	r0, r7
 80015e8:	429e      	cmp	r6, r3
 80015ea:	d903      	bls.n	80015f4 <__aeabi_ddiv+0x3d0>
 80015ec:	2680      	movs	r6, #128	; 0x80
 80015ee:	0276      	lsls	r6, r6, #9
 80015f0:	46b4      	mov	ip, r6
 80015f2:	4460      	add	r0, ip
 80015f4:	0c1e      	lsrs	r6, r3, #16
 80015f6:	0412      	lsls	r2, r2, #16
 80015f8:	041b      	lsls	r3, r3, #16
 80015fa:	0c12      	lsrs	r2, r2, #16
 80015fc:	1830      	adds	r0, r6, r0
 80015fe:	189b      	adds	r3, r3, r2
 8001600:	4281      	cmp	r1, r0
 8001602:	d306      	bcc.n	8001612 <__aeabi_ddiv+0x3ee>
 8001604:	d002      	beq.n	800160c <__aeabi_ddiv+0x3e8>
 8001606:	2301      	movs	r3, #1
 8001608:	431d      	orrs	r5, r3
 800160a:	e6ce      	b.n	80013aa <__aeabi_ddiv+0x186>
 800160c:	2b00      	cmp	r3, #0
 800160e:	d100      	bne.n	8001612 <__aeabi_ddiv+0x3ee>
 8001610:	e6cb      	b.n	80013aa <__aeabi_ddiv+0x186>
 8001612:	1861      	adds	r1, r4, r1
 8001614:	1e6e      	subs	r6, r5, #1
 8001616:	42a1      	cmp	r1, r4
 8001618:	d200      	bcs.n	800161c <__aeabi_ddiv+0x3f8>
 800161a:	e0a4      	b.n	8001766 <__aeabi_ddiv+0x542>
 800161c:	4281      	cmp	r1, r0
 800161e:	d200      	bcs.n	8001622 <__aeabi_ddiv+0x3fe>
 8001620:	e0c9      	b.n	80017b6 <__aeabi_ddiv+0x592>
 8001622:	d100      	bne.n	8001626 <__aeabi_ddiv+0x402>
 8001624:	e0d9      	b.n	80017da <__aeabi_ddiv+0x5b6>
 8001626:	0035      	movs	r5, r6
 8001628:	e7ed      	b.n	8001606 <__aeabi_ddiv+0x3e2>
 800162a:	2501      	movs	r5, #1
 800162c:	426d      	negs	r5, r5
 800162e:	2101      	movs	r1, #1
 8001630:	1a89      	subs	r1, r1, r2
 8001632:	2938      	cmp	r1, #56	; 0x38
 8001634:	dd00      	ble.n	8001638 <__aeabi_ddiv+0x414>
 8001636:	e64c      	b.n	80012d2 <__aeabi_ddiv+0xae>
 8001638:	291f      	cmp	r1, #31
 800163a:	dc00      	bgt.n	800163e <__aeabi_ddiv+0x41a>
 800163c:	e07f      	b.n	800173e <__aeabi_ddiv+0x51a>
 800163e:	231f      	movs	r3, #31
 8001640:	425b      	negs	r3, r3
 8001642:	1a9a      	subs	r2, r3, r2
 8001644:	4643      	mov	r3, r8
 8001646:	40d3      	lsrs	r3, r2
 8001648:	2920      	cmp	r1, #32
 800164a:	d004      	beq.n	8001656 <__aeabi_ddiv+0x432>
 800164c:	4644      	mov	r4, r8
 800164e:	4a65      	ldr	r2, [pc, #404]	; (80017e4 <__aeabi_ddiv+0x5c0>)
 8001650:	445a      	add	r2, fp
 8001652:	4094      	lsls	r4, r2
 8001654:	4325      	orrs	r5, r4
 8001656:	1e6a      	subs	r2, r5, #1
 8001658:	4195      	sbcs	r5, r2
 800165a:	2207      	movs	r2, #7
 800165c:	432b      	orrs	r3, r5
 800165e:	0015      	movs	r5, r2
 8001660:	2400      	movs	r4, #0
 8001662:	401d      	ands	r5, r3
 8001664:	421a      	tst	r2, r3
 8001666:	d100      	bne.n	800166a <__aeabi_ddiv+0x446>
 8001668:	e0a1      	b.n	80017ae <__aeabi_ddiv+0x58a>
 800166a:	220f      	movs	r2, #15
 800166c:	2400      	movs	r4, #0
 800166e:	401a      	ands	r2, r3
 8001670:	2a04      	cmp	r2, #4
 8001672:	d100      	bne.n	8001676 <__aeabi_ddiv+0x452>
 8001674:	e098      	b.n	80017a8 <__aeabi_ddiv+0x584>
 8001676:	1d1a      	adds	r2, r3, #4
 8001678:	429a      	cmp	r2, r3
 800167a:	419b      	sbcs	r3, r3
 800167c:	425b      	negs	r3, r3
 800167e:	18e4      	adds	r4, r4, r3
 8001680:	0013      	movs	r3, r2
 8001682:	0222      	lsls	r2, r4, #8
 8001684:	d400      	bmi.n	8001688 <__aeabi_ddiv+0x464>
 8001686:	e08f      	b.n	80017a8 <__aeabi_ddiv+0x584>
 8001688:	2301      	movs	r3, #1
 800168a:	2400      	movs	r4, #0
 800168c:	2500      	movs	r5, #0
 800168e:	e623      	b.n	80012d8 <__aeabi_ddiv+0xb4>
 8001690:	42b5      	cmp	r5, r6
 8001692:	d300      	bcc.n	8001696 <__aeabi_ddiv+0x472>
 8001694:	e764      	b.n	8001560 <__aeabi_ddiv+0x33c>
 8001696:	4643      	mov	r3, r8
 8001698:	1e5a      	subs	r2, r3, #1
 800169a:	9b00      	ldr	r3, [sp, #0]
 800169c:	469c      	mov	ip, r3
 800169e:	4465      	add	r5, ip
 80016a0:	001f      	movs	r7, r3
 80016a2:	429d      	cmp	r5, r3
 80016a4:	419b      	sbcs	r3, r3
 80016a6:	425b      	negs	r3, r3
 80016a8:	191b      	adds	r3, r3, r4
 80016aa:	18c9      	adds	r1, r1, r3
 80016ac:	428c      	cmp	r4, r1
 80016ae:	d23a      	bcs.n	8001726 <__aeabi_ddiv+0x502>
 80016b0:	4288      	cmp	r0, r1
 80016b2:	d863      	bhi.n	800177c <__aeabi_ddiv+0x558>
 80016b4:	d060      	beq.n	8001778 <__aeabi_ddiv+0x554>
 80016b6:	4690      	mov	r8, r2
 80016b8:	e752      	b.n	8001560 <__aeabi_ddiv+0x33c>
 80016ba:	42aa      	cmp	r2, r5
 80016bc:	d900      	bls.n	80016c0 <__aeabi_ddiv+0x49c>
 80016be:	e6ea      	b.n	8001496 <__aeabi_ddiv+0x272>
 80016c0:	4643      	mov	r3, r8
 80016c2:	07de      	lsls	r6, r3, #31
 80016c4:	0858      	lsrs	r0, r3, #1
 80016c6:	086b      	lsrs	r3, r5, #1
 80016c8:	431e      	orrs	r6, r3
 80016ca:	07ed      	lsls	r5, r5, #31
 80016cc:	e6ea      	b.n	80014a4 <__aeabi_ddiv+0x280>
 80016ce:	4648      	mov	r0, r9
 80016d0:	f001 f89e 	bl	8002810 <__clzsi2>
 80016d4:	0001      	movs	r1, r0
 80016d6:	0002      	movs	r2, r0
 80016d8:	3115      	adds	r1, #21
 80016da:	3220      	adds	r2, #32
 80016dc:	291c      	cmp	r1, #28
 80016de:	dc00      	bgt.n	80016e2 <__aeabi_ddiv+0x4be>
 80016e0:	e61a      	b.n	8001318 <__aeabi_ddiv+0xf4>
 80016e2:	464b      	mov	r3, r9
 80016e4:	3808      	subs	r0, #8
 80016e6:	4083      	lsls	r3, r0
 80016e8:	2500      	movs	r5, #0
 80016ea:	4698      	mov	r8, r3
 80016ec:	e620      	b.n	8001330 <__aeabi_ddiv+0x10c>
 80016ee:	f001 f88f 	bl	8002810 <__clzsi2>
 80016f2:	0003      	movs	r3, r0
 80016f4:	001a      	movs	r2, r3
 80016f6:	3215      	adds	r2, #21
 80016f8:	3020      	adds	r0, #32
 80016fa:	2a1c      	cmp	r2, #28
 80016fc:	dc00      	bgt.n	8001700 <__aeabi_ddiv+0x4dc>
 80016fe:	e630      	b.n	8001362 <__aeabi_ddiv+0x13e>
 8001700:	4654      	mov	r4, sl
 8001702:	3b08      	subs	r3, #8
 8001704:	2200      	movs	r2, #0
 8001706:	409c      	lsls	r4, r3
 8001708:	e635      	b.n	8001376 <__aeabi_ddiv+0x152>
 800170a:	230f      	movs	r3, #15
 800170c:	402b      	ands	r3, r5
 800170e:	2b04      	cmp	r3, #4
 8001710:	d100      	bne.n	8001714 <__aeabi_ddiv+0x4f0>
 8001712:	e652      	b.n	80013ba <__aeabi_ddiv+0x196>
 8001714:	2305      	movs	r3, #5
 8001716:	425b      	negs	r3, r3
 8001718:	42ab      	cmp	r3, r5
 800171a:	419b      	sbcs	r3, r3
 800171c:	3504      	adds	r5, #4
 800171e:	425b      	negs	r3, r3
 8001720:	08ed      	lsrs	r5, r5, #3
 8001722:	4498      	add	r8, r3
 8001724:	e64a      	b.n	80013bc <__aeabi_ddiv+0x198>
 8001726:	428c      	cmp	r4, r1
 8001728:	d1c5      	bne.n	80016b6 <__aeabi_ddiv+0x492>
 800172a:	42af      	cmp	r7, r5
 800172c:	d9c0      	bls.n	80016b0 <__aeabi_ddiv+0x48c>
 800172e:	4690      	mov	r8, r2
 8001730:	e716      	b.n	8001560 <__aeabi_ddiv+0x33c>
 8001732:	428a      	cmp	r2, r1
 8001734:	d800      	bhi.n	8001738 <__aeabi_ddiv+0x514>
 8001736:	e6ea      	b.n	800150e <__aeabi_ddiv+0x2ea>
 8001738:	1e83      	subs	r3, r0, #2
 800173a:	1909      	adds	r1, r1, r4
 800173c:	e6e7      	b.n	800150e <__aeabi_ddiv+0x2ea>
 800173e:	4a2a      	ldr	r2, [pc, #168]	; (80017e8 <__aeabi_ddiv+0x5c4>)
 8001740:	0028      	movs	r0, r5
 8001742:	445a      	add	r2, fp
 8001744:	4643      	mov	r3, r8
 8001746:	4095      	lsls	r5, r2
 8001748:	4093      	lsls	r3, r2
 800174a:	40c8      	lsrs	r0, r1
 800174c:	1e6a      	subs	r2, r5, #1
 800174e:	4195      	sbcs	r5, r2
 8001750:	4644      	mov	r4, r8
 8001752:	4303      	orrs	r3, r0
 8001754:	432b      	orrs	r3, r5
 8001756:	40cc      	lsrs	r4, r1
 8001758:	075a      	lsls	r2, r3, #29
 800175a:	d092      	beq.n	8001682 <__aeabi_ddiv+0x45e>
 800175c:	220f      	movs	r2, #15
 800175e:	401a      	ands	r2, r3
 8001760:	2a04      	cmp	r2, #4
 8001762:	d188      	bne.n	8001676 <__aeabi_ddiv+0x452>
 8001764:	e78d      	b.n	8001682 <__aeabi_ddiv+0x45e>
 8001766:	0035      	movs	r5, r6
 8001768:	4281      	cmp	r1, r0
 800176a:	d000      	beq.n	800176e <__aeabi_ddiv+0x54a>
 800176c:	e74b      	b.n	8001606 <__aeabi_ddiv+0x3e2>
 800176e:	9a00      	ldr	r2, [sp, #0]
 8001770:	4293      	cmp	r3, r2
 8001772:	d000      	beq.n	8001776 <__aeabi_ddiv+0x552>
 8001774:	e747      	b.n	8001606 <__aeabi_ddiv+0x3e2>
 8001776:	e618      	b.n	80013aa <__aeabi_ddiv+0x186>
 8001778:	42ae      	cmp	r6, r5
 800177a:	d99c      	bls.n	80016b6 <__aeabi_ddiv+0x492>
 800177c:	2302      	movs	r3, #2
 800177e:	425b      	negs	r3, r3
 8001780:	469c      	mov	ip, r3
 8001782:	9b00      	ldr	r3, [sp, #0]
 8001784:	44e0      	add	r8, ip
 8001786:	469c      	mov	ip, r3
 8001788:	4465      	add	r5, ip
 800178a:	429d      	cmp	r5, r3
 800178c:	419b      	sbcs	r3, r3
 800178e:	425b      	negs	r3, r3
 8001790:	191b      	adds	r3, r3, r4
 8001792:	18c9      	adds	r1, r1, r3
 8001794:	e6e4      	b.n	8001560 <__aeabi_ddiv+0x33c>
 8001796:	4a15      	ldr	r2, [pc, #84]	; (80017ec <__aeabi_ddiv+0x5c8>)
 8001798:	445a      	add	r2, fp
 800179a:	2a00      	cmp	r2, #0
 800179c:	dc00      	bgt.n	80017a0 <__aeabi_ddiv+0x57c>
 800179e:	e744      	b.n	800162a <__aeabi_ddiv+0x406>
 80017a0:	2301      	movs	r3, #1
 80017a2:	2500      	movs	r5, #0
 80017a4:	4498      	add	r8, r3
 80017a6:	e609      	b.n	80013bc <__aeabi_ddiv+0x198>
 80017a8:	0765      	lsls	r5, r4, #29
 80017aa:	0264      	lsls	r4, r4, #9
 80017ac:	0b24      	lsrs	r4, r4, #12
 80017ae:	08db      	lsrs	r3, r3, #3
 80017b0:	431d      	orrs	r5, r3
 80017b2:	2300      	movs	r3, #0
 80017b4:	e590      	b.n	80012d8 <__aeabi_ddiv+0xb4>
 80017b6:	9e00      	ldr	r6, [sp, #0]
 80017b8:	3d02      	subs	r5, #2
 80017ba:	0072      	lsls	r2, r6, #1
 80017bc:	42b2      	cmp	r2, r6
 80017be:	41bf      	sbcs	r7, r7
 80017c0:	427f      	negs	r7, r7
 80017c2:	193c      	adds	r4, r7, r4
 80017c4:	1909      	adds	r1, r1, r4
 80017c6:	9200      	str	r2, [sp, #0]
 80017c8:	e7ce      	b.n	8001768 <__aeabi_ddiv+0x544>
 80017ca:	2480      	movs	r4, #128	; 0x80
 80017cc:	4643      	mov	r3, r8
 80017ce:	0324      	lsls	r4, r4, #12
 80017d0:	431c      	orrs	r4, r3
 80017d2:	0324      	lsls	r4, r4, #12
 80017d4:	4b06      	ldr	r3, [pc, #24]	; (80017f0 <__aeabi_ddiv+0x5cc>)
 80017d6:	0b24      	lsrs	r4, r4, #12
 80017d8:	e57e      	b.n	80012d8 <__aeabi_ddiv+0xb4>
 80017da:	9a00      	ldr	r2, [sp, #0]
 80017dc:	429a      	cmp	r2, r3
 80017de:	d3ea      	bcc.n	80017b6 <__aeabi_ddiv+0x592>
 80017e0:	0035      	movs	r5, r6
 80017e2:	e7c4      	b.n	800176e <__aeabi_ddiv+0x54a>
 80017e4:	0000043e 	.word	0x0000043e
 80017e8:	0000041e 	.word	0x0000041e
 80017ec:	000003ff 	.word	0x000003ff
 80017f0:	000007ff 	.word	0x000007ff

080017f4 <__eqdf2>:
 80017f4:	b5f0      	push	{r4, r5, r6, r7, lr}
 80017f6:	464f      	mov	r7, r9
 80017f8:	4646      	mov	r6, r8
 80017fa:	46d6      	mov	lr, sl
 80017fc:	4694      	mov	ip, r2
 80017fe:	4691      	mov	r9, r2
 8001800:	031a      	lsls	r2, r3, #12
 8001802:	0b12      	lsrs	r2, r2, #12
 8001804:	4d18      	ldr	r5, [pc, #96]	; (8001868 <__eqdf2+0x74>)
 8001806:	b5c0      	push	{r6, r7, lr}
 8001808:	004c      	lsls	r4, r1, #1
 800180a:	030f      	lsls	r7, r1, #12
 800180c:	4692      	mov	sl, r2
 800180e:	005a      	lsls	r2, r3, #1
 8001810:	0006      	movs	r6, r0
 8001812:	4680      	mov	r8, r0
 8001814:	0b3f      	lsrs	r7, r7, #12
 8001816:	2001      	movs	r0, #1
 8001818:	0d64      	lsrs	r4, r4, #21
 800181a:	0fc9      	lsrs	r1, r1, #31
 800181c:	0d52      	lsrs	r2, r2, #21
 800181e:	0fdb      	lsrs	r3, r3, #31
 8001820:	42ac      	cmp	r4, r5
 8001822:	d00a      	beq.n	800183a <__eqdf2+0x46>
 8001824:	42aa      	cmp	r2, r5
 8001826:	d003      	beq.n	8001830 <__eqdf2+0x3c>
 8001828:	4294      	cmp	r4, r2
 800182a:	d101      	bne.n	8001830 <__eqdf2+0x3c>
 800182c:	4557      	cmp	r7, sl
 800182e:	d00d      	beq.n	800184c <__eqdf2+0x58>
 8001830:	bce0      	pop	{r5, r6, r7}
 8001832:	46ba      	mov	sl, r7
 8001834:	46b1      	mov	r9, r6
 8001836:	46a8      	mov	r8, r5
 8001838:	bdf0      	pop	{r4, r5, r6, r7, pc}
 800183a:	003d      	movs	r5, r7
 800183c:	4335      	orrs	r5, r6
 800183e:	d1f7      	bne.n	8001830 <__eqdf2+0x3c>
 8001840:	42a2      	cmp	r2, r4
 8001842:	d1f5      	bne.n	8001830 <__eqdf2+0x3c>
 8001844:	4652      	mov	r2, sl
 8001846:	4665      	mov	r5, ip
 8001848:	432a      	orrs	r2, r5
 800184a:	d1f1      	bne.n	8001830 <__eqdf2+0x3c>
 800184c:	2001      	movs	r0, #1
 800184e:	45c8      	cmp	r8, r9
 8001850:	d1ee      	bne.n	8001830 <__eqdf2+0x3c>
 8001852:	4299      	cmp	r1, r3
 8001854:	d006      	beq.n	8001864 <__eqdf2+0x70>
 8001856:	2c00      	cmp	r4, #0
 8001858:	d1ea      	bne.n	8001830 <__eqdf2+0x3c>
 800185a:	433e      	orrs	r6, r7
 800185c:	0030      	movs	r0, r6
 800185e:	1e46      	subs	r6, r0, #1
 8001860:	41b0      	sbcs	r0, r6
 8001862:	e7e5      	b.n	8001830 <__eqdf2+0x3c>
 8001864:	2000      	movs	r0, #0
 8001866:	e7e3      	b.n	8001830 <__eqdf2+0x3c>
 8001868:	000007ff 	.word	0x000007ff

0800186c <__gedf2>:
 800186c:	b5f0      	push	{r4, r5, r6, r7, lr}
 800186e:	464e      	mov	r6, r9
 8001870:	4645      	mov	r5, r8
 8001872:	4657      	mov	r7, sl
 8001874:	46de      	mov	lr, fp
 8001876:	0004      	movs	r4, r0
 8001878:	0018      	movs	r0, r3
 800187a:	b5e0      	push	{r5, r6, r7, lr}
 800187c:	0016      	movs	r6, r2
 800187e:	031b      	lsls	r3, r3, #12
 8001880:	0b1b      	lsrs	r3, r3, #12
 8001882:	4d32      	ldr	r5, [pc, #200]	; (800194c <__gedf2+0xe0>)
 8001884:	030f      	lsls	r7, r1, #12
 8001886:	004a      	lsls	r2, r1, #1
 8001888:	4699      	mov	r9, r3
 800188a:	0043      	lsls	r3, r0, #1
 800188c:	46a4      	mov	ip, r4
 800188e:	46b0      	mov	r8, r6
 8001890:	0b3f      	lsrs	r7, r7, #12
 8001892:	0d52      	lsrs	r2, r2, #21
 8001894:	0fc9      	lsrs	r1, r1, #31
 8001896:	0d5b      	lsrs	r3, r3, #21
 8001898:	0fc0      	lsrs	r0, r0, #31
 800189a:	42aa      	cmp	r2, r5
 800189c:	d029      	beq.n	80018f2 <__gedf2+0x86>
 800189e:	42ab      	cmp	r3, r5
 80018a0:	d018      	beq.n	80018d4 <__gedf2+0x68>
 80018a2:	2a00      	cmp	r2, #0
 80018a4:	d12a      	bne.n	80018fc <__gedf2+0x90>
 80018a6:	433c      	orrs	r4, r7
 80018a8:	46a3      	mov	fp, r4
 80018aa:	4265      	negs	r5, r4
 80018ac:	4165      	adcs	r5, r4
 80018ae:	2b00      	cmp	r3, #0
 80018b0:	d102      	bne.n	80018b8 <__gedf2+0x4c>
 80018b2:	464c      	mov	r4, r9
 80018b4:	4326      	orrs	r6, r4
 80018b6:	d027      	beq.n	8001908 <__gedf2+0x9c>
 80018b8:	2d00      	cmp	r5, #0
 80018ba:	d115      	bne.n	80018e8 <__gedf2+0x7c>
 80018bc:	4281      	cmp	r1, r0
 80018be:	d028      	beq.n	8001912 <__gedf2+0xa6>
 80018c0:	2002      	movs	r0, #2
 80018c2:	3901      	subs	r1, #1
 80018c4:	4008      	ands	r0, r1
 80018c6:	3801      	subs	r0, #1
 80018c8:	bcf0      	pop	{r4, r5, r6, r7}
 80018ca:	46bb      	mov	fp, r7
 80018cc:	46b2      	mov	sl, r6
 80018ce:	46a9      	mov	r9, r5
 80018d0:	46a0      	mov	r8, r4
 80018d2:	bdf0      	pop	{r4, r5, r6, r7, pc}
 80018d4:	464d      	mov	r5, r9
 80018d6:	432e      	orrs	r6, r5
 80018d8:	d12f      	bne.n	800193a <__gedf2+0xce>
 80018da:	2a00      	cmp	r2, #0
 80018dc:	d1ee      	bne.n	80018bc <__gedf2+0x50>
 80018de:	433c      	orrs	r4, r7
 80018e0:	4265      	negs	r5, r4
 80018e2:	4165      	adcs	r5, r4
 80018e4:	2d00      	cmp	r5, #0
 80018e6:	d0e9      	beq.n	80018bc <__gedf2+0x50>
 80018e8:	2800      	cmp	r0, #0
 80018ea:	d1ed      	bne.n	80018c8 <__gedf2+0x5c>
 80018ec:	2001      	movs	r0, #1
 80018ee:	4240      	negs	r0, r0
 80018f0:	e7ea      	b.n	80018c8 <__gedf2+0x5c>
 80018f2:	003d      	movs	r5, r7
 80018f4:	4325      	orrs	r5, r4
 80018f6:	d120      	bne.n	800193a <__gedf2+0xce>
 80018f8:	4293      	cmp	r3, r2
 80018fa:	d0eb      	beq.n	80018d4 <__gedf2+0x68>
 80018fc:	2b00      	cmp	r3, #0
 80018fe:	d1dd      	bne.n	80018bc <__gedf2+0x50>
 8001900:	464c      	mov	r4, r9
 8001902:	4326      	orrs	r6, r4
 8001904:	d1da      	bne.n	80018bc <__gedf2+0x50>
 8001906:	e7db      	b.n	80018c0 <__gedf2+0x54>
 8001908:	465b      	mov	r3, fp
 800190a:	2000      	movs	r0, #0
 800190c:	2b00      	cmp	r3, #0
 800190e:	d0db      	beq.n	80018c8 <__gedf2+0x5c>
 8001910:	e7d6      	b.n	80018c0 <__gedf2+0x54>
 8001912:	429a      	cmp	r2, r3
 8001914:	dc0a      	bgt.n	800192c <__gedf2+0xc0>
 8001916:	dbe7      	blt.n	80018e8 <__gedf2+0x7c>
 8001918:	454f      	cmp	r7, r9
 800191a:	d8d1      	bhi.n	80018c0 <__gedf2+0x54>
 800191c:	d010      	beq.n	8001940 <__gedf2+0xd4>
 800191e:	2000      	movs	r0, #0
 8001920:	454f      	cmp	r7, r9
 8001922:	d2d1      	bcs.n	80018c8 <__gedf2+0x5c>
 8001924:	2900      	cmp	r1, #0
 8001926:	d0e1      	beq.n	80018ec <__gedf2+0x80>
 8001928:	0008      	movs	r0, r1
 800192a:	e7cd      	b.n	80018c8 <__gedf2+0x5c>
 800192c:	4243      	negs	r3, r0
 800192e:	4158      	adcs	r0, r3
 8001930:	2302      	movs	r3, #2
 8001932:	4240      	negs	r0, r0
 8001934:	4018      	ands	r0, r3
 8001936:	3801      	subs	r0, #1
 8001938:	e7c6      	b.n	80018c8 <__gedf2+0x5c>
 800193a:	2002      	movs	r0, #2
 800193c:	4240      	negs	r0, r0
 800193e:	e7c3      	b.n	80018c8 <__gedf2+0x5c>
 8001940:	45c4      	cmp	ip, r8
 8001942:	d8bd      	bhi.n	80018c0 <__gedf2+0x54>
 8001944:	2000      	movs	r0, #0
 8001946:	45c4      	cmp	ip, r8
 8001948:	d2be      	bcs.n	80018c8 <__gedf2+0x5c>
 800194a:	e7eb      	b.n	8001924 <__gedf2+0xb8>
 800194c:	000007ff 	.word	0x000007ff

08001950 <__ledf2>:
 8001950:	b5f0      	push	{r4, r5, r6, r7, lr}
 8001952:	464e      	mov	r6, r9
 8001954:	4645      	mov	r5, r8
 8001956:	4657      	mov	r7, sl
 8001958:	46de      	mov	lr, fp
 800195a:	0004      	movs	r4, r0
 800195c:	0018      	movs	r0, r3
 800195e:	b5e0      	push	{r5, r6, r7, lr}
 8001960:	0016      	movs	r6, r2
 8001962:	031b      	lsls	r3, r3, #12
 8001964:	0b1b      	lsrs	r3, r3, #12
 8001966:	4d31      	ldr	r5, [pc, #196]	; (8001a2c <__ledf2+0xdc>)
 8001968:	030f      	lsls	r7, r1, #12
 800196a:	004a      	lsls	r2, r1, #1
 800196c:	4699      	mov	r9, r3
 800196e:	0043      	lsls	r3, r0, #1
 8001970:	46a4      	mov	ip, r4
 8001972:	46b0      	mov	r8, r6
 8001974:	0b3f      	lsrs	r7, r7, #12
 8001976:	0d52      	lsrs	r2, r2, #21
 8001978:	0fc9      	lsrs	r1, r1, #31
 800197a:	0d5b      	lsrs	r3, r3, #21
 800197c:	0fc0      	lsrs	r0, r0, #31
 800197e:	42aa      	cmp	r2, r5
 8001980:	d011      	beq.n	80019a6 <__ledf2+0x56>
 8001982:	42ab      	cmp	r3, r5
 8001984:	d014      	beq.n	80019b0 <__ledf2+0x60>
 8001986:	2a00      	cmp	r2, #0
 8001988:	d12f      	bne.n	80019ea <__ledf2+0x9a>
 800198a:	433c      	orrs	r4, r7
 800198c:	46a3      	mov	fp, r4
 800198e:	4265      	negs	r5, r4
 8001990:	4165      	adcs	r5, r4
 8001992:	2b00      	cmp	r3, #0
 8001994:	d114      	bne.n	80019c0 <__ledf2+0x70>
 8001996:	464c      	mov	r4, r9
 8001998:	4326      	orrs	r6, r4
 800199a:	d111      	bne.n	80019c0 <__ledf2+0x70>
 800199c:	465b      	mov	r3, fp
 800199e:	2000      	movs	r0, #0
 80019a0:	2b00      	cmp	r3, #0
 80019a2:	d017      	beq.n	80019d4 <__ledf2+0x84>
 80019a4:	e010      	b.n	80019c8 <__ledf2+0x78>
 80019a6:	003d      	movs	r5, r7
 80019a8:	4325      	orrs	r5, r4
 80019aa:	d112      	bne.n	80019d2 <__ledf2+0x82>
 80019ac:	4293      	cmp	r3, r2
 80019ae:	d11c      	bne.n	80019ea <__ledf2+0x9a>
 80019b0:	464d      	mov	r5, r9
 80019b2:	432e      	orrs	r6, r5
 80019b4:	d10d      	bne.n	80019d2 <__ledf2+0x82>
 80019b6:	2a00      	cmp	r2, #0
 80019b8:	d104      	bne.n	80019c4 <__ledf2+0x74>
 80019ba:	433c      	orrs	r4, r7
 80019bc:	4265      	negs	r5, r4
 80019be:	4165      	adcs	r5, r4
 80019c0:	2d00      	cmp	r5, #0
 80019c2:	d10d      	bne.n	80019e0 <__ledf2+0x90>
 80019c4:	4281      	cmp	r1, r0
 80019c6:	d016      	beq.n	80019f6 <__ledf2+0xa6>
 80019c8:	2002      	movs	r0, #2
 80019ca:	3901      	subs	r1, #1
 80019cc:	4008      	ands	r0, r1
 80019ce:	3801      	subs	r0, #1
 80019d0:	e000      	b.n	80019d4 <__ledf2+0x84>
 80019d2:	2002      	movs	r0, #2
 80019d4:	bcf0      	pop	{r4, r5, r6, r7}
 80019d6:	46bb      	mov	fp, r7
 80019d8:	46b2      	mov	sl, r6
 80019da:	46a9      	mov	r9, r5
 80019dc:	46a0      	mov	r8, r4
 80019de:	bdf0      	pop	{r4, r5, r6, r7, pc}
 80019e0:	2800      	cmp	r0, #0
 80019e2:	d1f7      	bne.n	80019d4 <__ledf2+0x84>
 80019e4:	2001      	movs	r0, #1
 80019e6:	4240      	negs	r0, r0
 80019e8:	e7f4      	b.n	80019d4 <__ledf2+0x84>
 80019ea:	2b00      	cmp	r3, #0
 80019ec:	d1ea      	bne.n	80019c4 <__ledf2+0x74>
 80019ee:	464c      	mov	r4, r9
 80019f0:	4326      	orrs	r6, r4
 80019f2:	d1e7      	bne.n	80019c4 <__ledf2+0x74>
 80019f4:	e7e8      	b.n	80019c8 <__ledf2+0x78>
 80019f6:	429a      	cmp	r2, r3
 80019f8:	dd06      	ble.n	8001a08 <__ledf2+0xb8>
 80019fa:	4243      	negs	r3, r0
 80019fc:	4158      	adcs	r0, r3
 80019fe:	2302      	movs	r3, #2
 8001a00:	4240      	negs	r0, r0
 8001a02:	4018      	ands	r0, r3
 8001a04:	3801      	subs	r0, #1
 8001a06:	e7e5      	b.n	80019d4 <__ledf2+0x84>
 8001a08:	429a      	cmp	r2, r3
 8001a0a:	dbe9      	blt.n	80019e0 <__ledf2+0x90>
 8001a0c:	454f      	cmp	r7, r9
 8001a0e:	d8db      	bhi.n	80019c8 <__ledf2+0x78>
 8001a10:	d006      	beq.n	8001a20 <__ledf2+0xd0>
 8001a12:	2000      	movs	r0, #0
 8001a14:	454f      	cmp	r7, r9
 8001a16:	d2dd      	bcs.n	80019d4 <__ledf2+0x84>
 8001a18:	2900      	cmp	r1, #0
 8001a1a:	d0e3      	beq.n	80019e4 <__ledf2+0x94>
 8001a1c:	0008      	movs	r0, r1
 8001a1e:	e7d9      	b.n	80019d4 <__ledf2+0x84>
 8001a20:	45c4      	cmp	ip, r8
 8001a22:	d8d1      	bhi.n	80019c8 <__ledf2+0x78>
 8001a24:	2000      	movs	r0, #0
 8001a26:	45c4      	cmp	ip, r8
 8001a28:	d2d4      	bcs.n	80019d4 <__ledf2+0x84>
 8001a2a:	e7f5      	b.n	8001a18 <__ledf2+0xc8>
 8001a2c:	000007ff 	.word	0x000007ff

08001a30 <__aeabi_dmul>:
 8001a30:	b5f0      	push	{r4, r5, r6, r7, lr}
 8001a32:	4657      	mov	r7, sl
 8001a34:	464e      	mov	r6, r9
 8001a36:	4645      	mov	r5, r8
 8001a38:	46de      	mov	lr, fp
 8001a3a:	b5e0      	push	{r5, r6, r7, lr}
 8001a3c:	4698      	mov	r8, r3
 8001a3e:	030c      	lsls	r4, r1, #12
 8001a40:	004b      	lsls	r3, r1, #1
 8001a42:	0006      	movs	r6, r0
 8001a44:	4692      	mov	sl, r2
 8001a46:	b087      	sub	sp, #28
 8001a48:	0b24      	lsrs	r4, r4, #12
 8001a4a:	0d5b      	lsrs	r3, r3, #21
 8001a4c:	0fcf      	lsrs	r7, r1, #31
 8001a4e:	2b00      	cmp	r3, #0
 8001a50:	d06c      	beq.n	8001b2c <__aeabi_dmul+0xfc>
 8001a52:	4add      	ldr	r2, [pc, #884]	; (8001dc8 <__aeabi_dmul+0x398>)
 8001a54:	4293      	cmp	r3, r2
 8001a56:	d100      	bne.n	8001a5a <__aeabi_dmul+0x2a>
 8001a58:	e086      	b.n	8001b68 <__aeabi_dmul+0x138>
 8001a5a:	0f42      	lsrs	r2, r0, #29
 8001a5c:	00e4      	lsls	r4, r4, #3
 8001a5e:	4314      	orrs	r4, r2
 8001a60:	2280      	movs	r2, #128	; 0x80
 8001a62:	0412      	lsls	r2, r2, #16
 8001a64:	4314      	orrs	r4, r2
 8001a66:	4ad9      	ldr	r2, [pc, #868]	; (8001dcc <__aeabi_dmul+0x39c>)
 8001a68:	00c5      	lsls	r5, r0, #3
 8001a6a:	4694      	mov	ip, r2
 8001a6c:	4463      	add	r3, ip
 8001a6e:	9300      	str	r3, [sp, #0]
 8001a70:	2300      	movs	r3, #0
 8001a72:	4699      	mov	r9, r3
 8001a74:	469b      	mov	fp, r3
 8001a76:	4643      	mov	r3, r8
 8001a78:	4642      	mov	r2, r8
 8001a7a:	031e      	lsls	r6, r3, #12
 8001a7c:	0fd2      	lsrs	r2, r2, #31
 8001a7e:	005b      	lsls	r3, r3, #1
 8001a80:	4650      	mov	r0, sl
 8001a82:	4690      	mov	r8, r2
 8001a84:	0b36      	lsrs	r6, r6, #12
 8001a86:	0d5b      	lsrs	r3, r3, #21
 8001a88:	d100      	bne.n	8001a8c <__aeabi_dmul+0x5c>
 8001a8a:	e078      	b.n	8001b7e <__aeabi_dmul+0x14e>
 8001a8c:	4ace      	ldr	r2, [pc, #824]	; (8001dc8 <__aeabi_dmul+0x398>)
 8001a8e:	4293      	cmp	r3, r2
 8001a90:	d01d      	beq.n	8001ace <__aeabi_dmul+0x9e>
 8001a92:	49ce      	ldr	r1, [pc, #824]	; (8001dcc <__aeabi_dmul+0x39c>)
 8001a94:	0f42      	lsrs	r2, r0, #29
 8001a96:	468c      	mov	ip, r1
 8001a98:	9900      	ldr	r1, [sp, #0]
 8001a9a:	4463      	add	r3, ip
 8001a9c:	00f6      	lsls	r6, r6, #3
 8001a9e:	468c      	mov	ip, r1
 8001aa0:	4316      	orrs	r6, r2
 8001aa2:	2280      	movs	r2, #128	; 0x80
 8001aa4:	449c      	add	ip, r3
 8001aa6:	0412      	lsls	r2, r2, #16
 8001aa8:	4663      	mov	r3, ip
 8001aaa:	4316      	orrs	r6, r2
 8001aac:	00c2      	lsls	r2, r0, #3
 8001aae:	2000      	movs	r0, #0
 8001ab0:	9300      	str	r3, [sp, #0]
 8001ab2:	9900      	ldr	r1, [sp, #0]
 8001ab4:	4643      	mov	r3, r8
 8001ab6:	3101      	adds	r1, #1
 8001ab8:	468c      	mov	ip, r1
 8001aba:	4649      	mov	r1, r9
 8001abc:	407b      	eors	r3, r7
 8001abe:	9301      	str	r3, [sp, #4]
 8001ac0:	290f      	cmp	r1, #15
 8001ac2:	d900      	bls.n	8001ac6 <__aeabi_dmul+0x96>
 8001ac4:	e07e      	b.n	8001bc4 <__aeabi_dmul+0x194>
 8001ac6:	4bc2      	ldr	r3, [pc, #776]	; (8001dd0 <__aeabi_dmul+0x3a0>)
 8001ac8:	0089      	lsls	r1, r1, #2
 8001aca:	5859      	ldr	r1, [r3, r1]
 8001acc:	468f      	mov	pc, r1
 8001ace:	4652      	mov	r2, sl
 8001ad0:	9b00      	ldr	r3, [sp, #0]
 8001ad2:	4332      	orrs	r2, r6
 8001ad4:	d000      	beq.n	8001ad8 <__aeabi_dmul+0xa8>
 8001ad6:	e156      	b.n	8001d86 <__aeabi_dmul+0x356>
 8001ad8:	49bb      	ldr	r1, [pc, #748]	; (8001dc8 <__aeabi_dmul+0x398>)
 8001ada:	2600      	movs	r6, #0
 8001adc:	468c      	mov	ip, r1
 8001ade:	4463      	add	r3, ip
 8001ae0:	4649      	mov	r1, r9
 8001ae2:	9300      	str	r3, [sp, #0]
 8001ae4:	2302      	movs	r3, #2
 8001ae6:	4319      	orrs	r1, r3
 8001ae8:	4689      	mov	r9, r1
 8001aea:	2002      	movs	r0, #2
 8001aec:	e7e1      	b.n	8001ab2 <__aeabi_dmul+0x82>
 8001aee:	4643      	mov	r3, r8
 8001af0:	9301      	str	r3, [sp, #4]
 8001af2:	0034      	movs	r4, r6
 8001af4:	0015      	movs	r5, r2
 8001af6:	4683      	mov	fp, r0
 8001af8:	465b      	mov	r3, fp
 8001afa:	2b02      	cmp	r3, #2
 8001afc:	d05e      	beq.n	8001bbc <__aeabi_dmul+0x18c>
 8001afe:	2b03      	cmp	r3, #3
 8001b00:	d100      	bne.n	8001b04 <__aeabi_dmul+0xd4>
 8001b02:	e1f3      	b.n	8001eec <__aeabi_dmul+0x4bc>
 8001b04:	2b01      	cmp	r3, #1
 8001b06:	d000      	beq.n	8001b0a <__aeabi_dmul+0xda>
 8001b08:	e118      	b.n	8001d3c <__aeabi_dmul+0x30c>
 8001b0a:	2200      	movs	r2, #0
 8001b0c:	2400      	movs	r4, #0
 8001b0e:	2500      	movs	r5, #0
 8001b10:	9b01      	ldr	r3, [sp, #4]
 8001b12:	0512      	lsls	r2, r2, #20
 8001b14:	4322      	orrs	r2, r4
 8001b16:	07db      	lsls	r3, r3, #31
 8001b18:	431a      	orrs	r2, r3
 8001b1a:	0028      	movs	r0, r5
 8001b1c:	0011      	movs	r1, r2
 8001b1e:	b007      	add	sp, #28
 8001b20:	bcf0      	pop	{r4, r5, r6, r7}
 8001b22:	46bb      	mov	fp, r7
 8001b24:	46b2      	mov	sl, r6
 8001b26:	46a9      	mov	r9, r5
 8001b28:	46a0      	mov	r8, r4
 8001b2a:	bdf0      	pop	{r4, r5, r6, r7, pc}
 8001b2c:	0025      	movs	r5, r4
 8001b2e:	4305      	orrs	r5, r0
 8001b30:	d100      	bne.n	8001b34 <__aeabi_dmul+0x104>
 8001b32:	e141      	b.n	8001db8 <__aeabi_dmul+0x388>
 8001b34:	2c00      	cmp	r4, #0
 8001b36:	d100      	bne.n	8001b3a <__aeabi_dmul+0x10a>
 8001b38:	e1ad      	b.n	8001e96 <__aeabi_dmul+0x466>
 8001b3a:	0020      	movs	r0, r4
 8001b3c:	f000 fe68 	bl	8002810 <__clzsi2>
 8001b40:	0001      	movs	r1, r0
 8001b42:	0002      	movs	r2, r0
 8001b44:	390b      	subs	r1, #11
 8001b46:	231d      	movs	r3, #29
 8001b48:	0010      	movs	r0, r2
 8001b4a:	1a5b      	subs	r3, r3, r1
 8001b4c:	0031      	movs	r1, r6
 8001b4e:	0035      	movs	r5, r6
 8001b50:	3808      	subs	r0, #8
 8001b52:	4084      	lsls	r4, r0
 8001b54:	40d9      	lsrs	r1, r3
 8001b56:	4085      	lsls	r5, r0
 8001b58:	430c      	orrs	r4, r1
 8001b5a:	489e      	ldr	r0, [pc, #632]	; (8001dd4 <__aeabi_dmul+0x3a4>)
 8001b5c:	1a83      	subs	r3, r0, r2
 8001b5e:	9300      	str	r3, [sp, #0]
 8001b60:	2300      	movs	r3, #0
 8001b62:	4699      	mov	r9, r3
 8001b64:	469b      	mov	fp, r3
 8001b66:	e786      	b.n	8001a76 <__aeabi_dmul+0x46>
 8001b68:	0005      	movs	r5, r0
 8001b6a:	4325      	orrs	r5, r4
 8001b6c:	d000      	beq.n	8001b70 <__aeabi_dmul+0x140>
 8001b6e:	e11c      	b.n	8001daa <__aeabi_dmul+0x37a>
 8001b70:	2208      	movs	r2, #8
 8001b72:	9300      	str	r3, [sp, #0]
 8001b74:	2302      	movs	r3, #2
 8001b76:	2400      	movs	r4, #0
 8001b78:	4691      	mov	r9, r2
 8001b7a:	469b      	mov	fp, r3
 8001b7c:	e77b      	b.n	8001a76 <__aeabi_dmul+0x46>
 8001b7e:	4652      	mov	r2, sl
 8001b80:	4332      	orrs	r2, r6
 8001b82:	d100      	bne.n	8001b86 <__aeabi_dmul+0x156>
 8001b84:	e10a      	b.n	8001d9c <__aeabi_dmul+0x36c>
 8001b86:	2e00      	cmp	r6, #0
 8001b88:	d100      	bne.n	8001b8c <__aeabi_dmul+0x15c>
 8001b8a:	e176      	b.n	8001e7a <__aeabi_dmul+0x44a>
 8001b8c:	0030      	movs	r0, r6
 8001b8e:	f000 fe3f 	bl	8002810 <__clzsi2>
 8001b92:	0002      	movs	r2, r0
 8001b94:	3a0b      	subs	r2, #11
 8001b96:	231d      	movs	r3, #29
 8001b98:	0001      	movs	r1, r0
 8001b9a:	1a9b      	subs	r3, r3, r2
 8001b9c:	4652      	mov	r2, sl
 8001b9e:	3908      	subs	r1, #8
 8001ba0:	40da      	lsrs	r2, r3
 8001ba2:	408e      	lsls	r6, r1
 8001ba4:	4316      	orrs	r6, r2
 8001ba6:	4652      	mov	r2, sl
 8001ba8:	408a      	lsls	r2, r1
 8001baa:	9b00      	ldr	r3, [sp, #0]
 8001bac:	4989      	ldr	r1, [pc, #548]	; (8001dd4 <__aeabi_dmul+0x3a4>)
 8001bae:	1a18      	subs	r0, r3, r0
 8001bb0:	0003      	movs	r3, r0
 8001bb2:	468c      	mov	ip, r1
 8001bb4:	4463      	add	r3, ip
 8001bb6:	2000      	movs	r0, #0
 8001bb8:	9300      	str	r3, [sp, #0]
 8001bba:	e77a      	b.n	8001ab2 <__aeabi_dmul+0x82>
 8001bbc:	2400      	movs	r4, #0
 8001bbe:	2500      	movs	r5, #0
 8001bc0:	4a81      	ldr	r2, [pc, #516]	; (8001dc8 <__aeabi_dmul+0x398>)
 8001bc2:	e7a5      	b.n	8001b10 <__aeabi_dmul+0xe0>
 8001bc4:	0c2f      	lsrs	r7, r5, #16
 8001bc6:	042d      	lsls	r5, r5, #16
 8001bc8:	0c2d      	lsrs	r5, r5, #16
 8001bca:	002b      	movs	r3, r5
 8001bcc:	0c11      	lsrs	r1, r2, #16
 8001bce:	0412      	lsls	r2, r2, #16
 8001bd0:	0c12      	lsrs	r2, r2, #16
 8001bd2:	4353      	muls	r3, r2
 8001bd4:	4698      	mov	r8, r3
 8001bd6:	0013      	movs	r3, r2
 8001bd8:	0028      	movs	r0, r5
 8001bda:	437b      	muls	r3, r7
 8001bdc:	4699      	mov	r9, r3
 8001bde:	4348      	muls	r0, r1
 8001be0:	4448      	add	r0, r9
 8001be2:	4683      	mov	fp, r0
 8001be4:	4640      	mov	r0, r8
 8001be6:	000b      	movs	r3, r1
 8001be8:	0c00      	lsrs	r0, r0, #16
 8001bea:	4682      	mov	sl, r0
 8001bec:	4658      	mov	r0, fp
 8001bee:	437b      	muls	r3, r7
 8001bf0:	4450      	add	r0, sl
 8001bf2:	9302      	str	r3, [sp, #8]
 8001bf4:	4581      	cmp	r9, r0
 8001bf6:	d906      	bls.n	8001c06 <__aeabi_dmul+0x1d6>
 8001bf8:	469a      	mov	sl, r3
 8001bfa:	2380      	movs	r3, #128	; 0x80
 8001bfc:	025b      	lsls	r3, r3, #9
 8001bfe:	4699      	mov	r9, r3
 8001c00:	44ca      	add	sl, r9
 8001c02:	4653      	mov	r3, sl
 8001c04:	9302      	str	r3, [sp, #8]
 8001c06:	0c03      	lsrs	r3, r0, #16
 8001c08:	469b      	mov	fp, r3
 8001c0a:	4643      	mov	r3, r8
 8001c0c:	041b      	lsls	r3, r3, #16
 8001c0e:	0400      	lsls	r0, r0, #16
 8001c10:	0c1b      	lsrs	r3, r3, #16
 8001c12:	4698      	mov	r8, r3
 8001c14:	0003      	movs	r3, r0
 8001c16:	4443      	add	r3, r8
 8001c18:	9304      	str	r3, [sp, #16]
 8001c1a:	0c33      	lsrs	r3, r6, #16
 8001c1c:	4699      	mov	r9, r3
 8001c1e:	002b      	movs	r3, r5
 8001c20:	0436      	lsls	r6, r6, #16
 8001c22:	0c36      	lsrs	r6, r6, #16
 8001c24:	4373      	muls	r3, r6
 8001c26:	4698      	mov	r8, r3
 8001c28:	0033      	movs	r3, r6
 8001c2a:	437b      	muls	r3, r7
 8001c2c:	469a      	mov	sl, r3
 8001c2e:	464b      	mov	r3, r9
 8001c30:	435d      	muls	r5, r3
 8001c32:	435f      	muls	r7, r3
 8001c34:	4643      	mov	r3, r8
 8001c36:	4455      	add	r5, sl
 8001c38:	0c18      	lsrs	r0, r3, #16
 8001c3a:	1940      	adds	r0, r0, r5
 8001c3c:	4582      	cmp	sl, r0
 8001c3e:	d903      	bls.n	8001c48 <__aeabi_dmul+0x218>
 8001c40:	2380      	movs	r3, #128	; 0x80
 8001c42:	025b      	lsls	r3, r3, #9
 8001c44:	469a      	mov	sl, r3
 8001c46:	4457      	add	r7, sl
 8001c48:	0c05      	lsrs	r5, r0, #16
 8001c4a:	19eb      	adds	r3, r5, r7
 8001c4c:	9305      	str	r3, [sp, #20]
 8001c4e:	4643      	mov	r3, r8
 8001c50:	041d      	lsls	r5, r3, #16
 8001c52:	0c2d      	lsrs	r5, r5, #16
 8001c54:	0400      	lsls	r0, r0, #16
 8001c56:	1940      	adds	r0, r0, r5
 8001c58:	0c25      	lsrs	r5, r4, #16
 8001c5a:	0424      	lsls	r4, r4, #16
 8001c5c:	0c24      	lsrs	r4, r4, #16
 8001c5e:	0027      	movs	r7, r4
 8001c60:	4357      	muls	r7, r2
 8001c62:	436a      	muls	r2, r5
 8001c64:	4690      	mov	r8, r2
 8001c66:	002a      	movs	r2, r5
 8001c68:	0c3b      	lsrs	r3, r7, #16
 8001c6a:	469a      	mov	sl, r3
 8001c6c:	434a      	muls	r2, r1
 8001c6e:	4361      	muls	r1, r4
 8001c70:	4441      	add	r1, r8
 8001c72:	4451      	add	r1, sl
 8001c74:	4483      	add	fp, r0
 8001c76:	4588      	cmp	r8, r1
 8001c78:	d903      	bls.n	8001c82 <__aeabi_dmul+0x252>
 8001c7a:	2380      	movs	r3, #128	; 0x80
 8001c7c:	025b      	lsls	r3, r3, #9
 8001c7e:	4698      	mov	r8, r3
 8001c80:	4442      	add	r2, r8
 8001c82:	043f      	lsls	r7, r7, #16
 8001c84:	0c0b      	lsrs	r3, r1, #16
 8001c86:	0c3f      	lsrs	r7, r7, #16
 8001c88:	0409      	lsls	r1, r1, #16
 8001c8a:	19c9      	adds	r1, r1, r7
 8001c8c:	0027      	movs	r7, r4
 8001c8e:	4698      	mov	r8, r3
 8001c90:	464b      	mov	r3, r9
 8001c92:	4377      	muls	r7, r6
 8001c94:	435c      	muls	r4, r3
 8001c96:	436e      	muls	r6, r5
 8001c98:	435d      	muls	r5, r3
 8001c9a:	0c3b      	lsrs	r3, r7, #16
 8001c9c:	4699      	mov	r9, r3
 8001c9e:	19a4      	adds	r4, r4, r6
 8001ca0:	444c      	add	r4, r9
 8001ca2:	4442      	add	r2, r8
 8001ca4:	9503      	str	r5, [sp, #12]
 8001ca6:	42a6      	cmp	r6, r4
 8001ca8:	d904      	bls.n	8001cb4 <__aeabi_dmul+0x284>
 8001caa:	2380      	movs	r3, #128	; 0x80
 8001cac:	025b      	lsls	r3, r3, #9
 8001cae:	4698      	mov	r8, r3
 8001cb0:	4445      	add	r5, r8
 8001cb2:	9503      	str	r5, [sp, #12]
 8001cb4:	9b02      	ldr	r3, [sp, #8]
 8001cb6:	043f      	lsls	r7, r7, #16
 8001cb8:	445b      	add	r3, fp
 8001cba:	001e      	movs	r6, r3
 8001cbc:	4283      	cmp	r3, r0
 8001cbe:	4180      	sbcs	r0, r0
 8001cc0:	0423      	lsls	r3, r4, #16
 8001cc2:	4698      	mov	r8, r3
 8001cc4:	9b05      	ldr	r3, [sp, #20]
 8001cc6:	0c3f      	lsrs	r7, r7, #16
 8001cc8:	4447      	add	r7, r8
 8001cca:	4698      	mov	r8, r3
 8001ccc:	1876      	adds	r6, r6, r1
 8001cce:	428e      	cmp	r6, r1
 8001cd0:	4189      	sbcs	r1, r1
 8001cd2:	4447      	add	r7, r8
 8001cd4:	4240      	negs	r0, r0
 8001cd6:	183d      	adds	r5, r7, r0
 8001cd8:	46a8      	mov	r8, r5
 8001cda:	4693      	mov	fp, r2
 8001cdc:	4249      	negs	r1, r1
 8001cde:	468a      	mov	sl, r1
 8001ce0:	44c3      	add	fp, r8
 8001ce2:	429f      	cmp	r7, r3
 8001ce4:	41bf      	sbcs	r7, r7
 8001ce6:	4580      	cmp	r8, r0
 8001ce8:	4180      	sbcs	r0, r0
 8001cea:	9b03      	ldr	r3, [sp, #12]
 8001cec:	44da      	add	sl, fp
 8001cee:	4698      	mov	r8, r3
 8001cf0:	4653      	mov	r3, sl
 8001cf2:	4240      	negs	r0, r0
 8001cf4:	427f      	negs	r7, r7
 8001cf6:	4307      	orrs	r7, r0
 8001cf8:	0c24      	lsrs	r4, r4, #16
 8001cfa:	4593      	cmp	fp, r2
 8001cfc:	4192      	sbcs	r2, r2
 8001cfe:	458a      	cmp	sl, r1
 8001d00:	4189      	sbcs	r1, r1
 8001d02:	193f      	adds	r7, r7, r4
 8001d04:	0ddc      	lsrs	r4, r3, #23
 8001d06:	9b04      	ldr	r3, [sp, #16]
 8001d08:	0275      	lsls	r5, r6, #9
 8001d0a:	431d      	orrs	r5, r3
 8001d0c:	1e68      	subs	r0, r5, #1
 8001d0e:	4185      	sbcs	r5, r0
 8001d10:	4653      	mov	r3, sl
 8001d12:	4252      	negs	r2, r2
 8001d14:	4249      	negs	r1, r1
 8001d16:	430a      	orrs	r2, r1
 8001d18:	18bf      	adds	r7, r7, r2
 8001d1a:	4447      	add	r7, r8
 8001d1c:	0df6      	lsrs	r6, r6, #23
 8001d1e:	027f      	lsls	r7, r7, #9
 8001d20:	4335      	orrs	r5, r6
 8001d22:	025a      	lsls	r2, r3, #9
 8001d24:	433c      	orrs	r4, r7
 8001d26:	4315      	orrs	r5, r2
 8001d28:	01fb      	lsls	r3, r7, #7
 8001d2a:	d400      	bmi.n	8001d2e <__aeabi_dmul+0x2fe>
 8001d2c:	e0c1      	b.n	8001eb2 <__aeabi_dmul+0x482>
 8001d2e:	2101      	movs	r1, #1
 8001d30:	086a      	lsrs	r2, r5, #1
 8001d32:	400d      	ands	r5, r1
 8001d34:	4315      	orrs	r5, r2
 8001d36:	07e2      	lsls	r2, r4, #31
 8001d38:	4315      	orrs	r5, r2
 8001d3a:	0864      	lsrs	r4, r4, #1
 8001d3c:	4926      	ldr	r1, [pc, #152]	; (8001dd8 <__aeabi_dmul+0x3a8>)
 8001d3e:	4461      	add	r1, ip
 8001d40:	2900      	cmp	r1, #0
 8001d42:	dd56      	ble.n	8001df2 <__aeabi_dmul+0x3c2>
 8001d44:	076b      	lsls	r3, r5, #29
 8001d46:	d009      	beq.n	8001d5c <__aeabi_dmul+0x32c>
 8001d48:	220f      	movs	r2, #15
 8001d4a:	402a      	ands	r2, r5
 8001d4c:	2a04      	cmp	r2, #4
 8001d4e:	d005      	beq.n	8001d5c <__aeabi_dmul+0x32c>
 8001d50:	1d2a      	adds	r2, r5, #4
 8001d52:	42aa      	cmp	r2, r5
 8001d54:	41ad      	sbcs	r5, r5
 8001d56:	426d      	negs	r5, r5
 8001d58:	1964      	adds	r4, r4, r5
 8001d5a:	0015      	movs	r5, r2
 8001d5c:	01e3      	lsls	r3, r4, #7
 8001d5e:	d504      	bpl.n	8001d6a <__aeabi_dmul+0x33a>
 8001d60:	2180      	movs	r1, #128	; 0x80
 8001d62:	4a1e      	ldr	r2, [pc, #120]	; (8001ddc <__aeabi_dmul+0x3ac>)
 8001d64:	00c9      	lsls	r1, r1, #3
 8001d66:	4014      	ands	r4, r2
 8001d68:	4461      	add	r1, ip
 8001d6a:	4a1d      	ldr	r2, [pc, #116]	; (8001de0 <__aeabi_dmul+0x3b0>)
 8001d6c:	4291      	cmp	r1, r2
 8001d6e:	dd00      	ble.n	8001d72 <__aeabi_dmul+0x342>
 8001d70:	e724      	b.n	8001bbc <__aeabi_dmul+0x18c>
 8001d72:	0762      	lsls	r2, r4, #29
 8001d74:	08ed      	lsrs	r5, r5, #3
 8001d76:	0264      	lsls	r4, r4, #9
 8001d78:	0549      	lsls	r1, r1, #21
 8001d7a:	4315      	orrs	r5, r2
 8001d7c:	0b24      	lsrs	r4, r4, #12
 8001d7e:	0d4a      	lsrs	r2, r1, #21
 8001d80:	e6c6      	b.n	8001b10 <__aeabi_dmul+0xe0>
 8001d82:	9701      	str	r7, [sp, #4]
 8001d84:	e6b8      	b.n	8001af8 <__aeabi_dmul+0xc8>
 8001d86:	4a10      	ldr	r2, [pc, #64]	; (8001dc8 <__aeabi_dmul+0x398>)
 8001d88:	2003      	movs	r0, #3
 8001d8a:	4694      	mov	ip, r2
 8001d8c:	4463      	add	r3, ip
 8001d8e:	464a      	mov	r2, r9
 8001d90:	9300      	str	r3, [sp, #0]
 8001d92:	2303      	movs	r3, #3
 8001d94:	431a      	orrs	r2, r3
 8001d96:	4691      	mov	r9, r2
 8001d98:	4652      	mov	r2, sl
 8001d9a:	e68a      	b.n	8001ab2 <__aeabi_dmul+0x82>
 8001d9c:	4649      	mov	r1, r9
 8001d9e:	2301      	movs	r3, #1
 8001da0:	4319      	orrs	r1, r3
 8001da2:	4689      	mov	r9, r1
 8001da4:	2600      	movs	r6, #0
 8001da6:	2001      	movs	r0, #1
 8001da8:	e683      	b.n	8001ab2 <__aeabi_dmul+0x82>
 8001daa:	220c      	movs	r2, #12
 8001dac:	9300      	str	r3, [sp, #0]
 8001dae:	2303      	movs	r3, #3
 8001db0:	0005      	movs	r5, r0
 8001db2:	4691      	mov	r9, r2
 8001db4:	469b      	mov	fp, r3
 8001db6:	e65e      	b.n	8001a76 <__aeabi_dmul+0x46>
 8001db8:	2304      	movs	r3, #4
 8001dba:	4699      	mov	r9, r3
 8001dbc:	2300      	movs	r3, #0
 8001dbe:	9300      	str	r3, [sp, #0]
 8001dc0:	3301      	adds	r3, #1
 8001dc2:	2400      	movs	r4, #0
 8001dc4:	469b      	mov	fp, r3
 8001dc6:	e656      	b.n	8001a76 <__aeabi_dmul+0x46>
 8001dc8:	000007ff 	.word	0x000007ff
 8001dcc:	fffffc01 	.word	0xfffffc01
 8001dd0:	0800b998 	.word	0x0800b998
 8001dd4:	fffffc0d 	.word	0xfffffc0d
 8001dd8:	000003ff 	.word	0x000003ff
 8001ddc:	feffffff 	.word	0xfeffffff
 8001de0:	000007fe 	.word	0x000007fe
 8001de4:	2300      	movs	r3, #0
 8001de6:	2480      	movs	r4, #128	; 0x80
 8001de8:	2500      	movs	r5, #0
 8001dea:	4a44      	ldr	r2, [pc, #272]	; (8001efc <__aeabi_dmul+0x4cc>)
 8001dec:	9301      	str	r3, [sp, #4]
 8001dee:	0324      	lsls	r4, r4, #12
 8001df0:	e68e      	b.n	8001b10 <__aeabi_dmul+0xe0>
 8001df2:	2001      	movs	r0, #1
 8001df4:	1a40      	subs	r0, r0, r1
 8001df6:	2838      	cmp	r0, #56	; 0x38
 8001df8:	dd00      	ble.n	8001dfc <__aeabi_dmul+0x3cc>
 8001dfa:	e686      	b.n	8001b0a <__aeabi_dmul+0xda>
 8001dfc:	281f      	cmp	r0, #31
 8001dfe:	dd5b      	ble.n	8001eb8 <__aeabi_dmul+0x488>
 8001e00:	221f      	movs	r2, #31
 8001e02:	0023      	movs	r3, r4
 8001e04:	4252      	negs	r2, r2
 8001e06:	1a51      	subs	r1, r2, r1
 8001e08:	40cb      	lsrs	r3, r1
 8001e0a:	0019      	movs	r1, r3
 8001e0c:	2820      	cmp	r0, #32
 8001e0e:	d003      	beq.n	8001e18 <__aeabi_dmul+0x3e8>
 8001e10:	4a3b      	ldr	r2, [pc, #236]	; (8001f00 <__aeabi_dmul+0x4d0>)
 8001e12:	4462      	add	r2, ip
 8001e14:	4094      	lsls	r4, r2
 8001e16:	4325      	orrs	r5, r4
 8001e18:	1e6a      	subs	r2, r5, #1
 8001e1a:	4195      	sbcs	r5, r2
 8001e1c:	002a      	movs	r2, r5
 8001e1e:	430a      	orrs	r2, r1
 8001e20:	2107      	movs	r1, #7
 8001e22:	000d      	movs	r5, r1
 8001e24:	2400      	movs	r4, #0
 8001e26:	4015      	ands	r5, r2
 8001e28:	4211      	tst	r1, r2
 8001e2a:	d05b      	beq.n	8001ee4 <__aeabi_dmul+0x4b4>
 8001e2c:	210f      	movs	r1, #15
 8001e2e:	2400      	movs	r4, #0
 8001e30:	4011      	ands	r1, r2
 8001e32:	2904      	cmp	r1, #4
 8001e34:	d053      	beq.n	8001ede <__aeabi_dmul+0x4ae>
 8001e36:	1d11      	adds	r1, r2, #4
 8001e38:	4291      	cmp	r1, r2
 8001e3a:	4192      	sbcs	r2, r2
 8001e3c:	4252      	negs	r2, r2
 8001e3e:	18a4      	adds	r4, r4, r2
 8001e40:	000a      	movs	r2, r1
 8001e42:	0223      	lsls	r3, r4, #8
 8001e44:	d54b      	bpl.n	8001ede <__aeabi_dmul+0x4ae>
 8001e46:	2201      	movs	r2, #1
 8001e48:	2400      	movs	r4, #0
 8001e4a:	2500      	movs	r5, #0
 8001e4c:	e660      	b.n	8001b10 <__aeabi_dmul+0xe0>
 8001e4e:	2380      	movs	r3, #128	; 0x80
 8001e50:	031b      	lsls	r3, r3, #12
 8001e52:	421c      	tst	r4, r3
 8001e54:	d009      	beq.n	8001e6a <__aeabi_dmul+0x43a>
 8001e56:	421e      	tst	r6, r3
 8001e58:	d107      	bne.n	8001e6a <__aeabi_dmul+0x43a>
 8001e5a:	4333      	orrs	r3, r6
 8001e5c:	031c      	lsls	r4, r3, #12
 8001e5e:	4643      	mov	r3, r8
 8001e60:	0015      	movs	r5, r2
 8001e62:	0b24      	lsrs	r4, r4, #12
 8001e64:	4a25      	ldr	r2, [pc, #148]	; (8001efc <__aeabi_dmul+0x4cc>)
 8001e66:	9301      	str	r3, [sp, #4]
 8001e68:	e652      	b.n	8001b10 <__aeabi_dmul+0xe0>
 8001e6a:	2280      	movs	r2, #128	; 0x80
 8001e6c:	0312      	lsls	r2, r2, #12
 8001e6e:	4314      	orrs	r4, r2
 8001e70:	0324      	lsls	r4, r4, #12
 8001e72:	4a22      	ldr	r2, [pc, #136]	; (8001efc <__aeabi_dmul+0x4cc>)
 8001e74:	0b24      	lsrs	r4, r4, #12
 8001e76:	9701      	str	r7, [sp, #4]
 8001e78:	e64a      	b.n	8001b10 <__aeabi_dmul+0xe0>
 8001e7a:	f000 fcc9 	bl	8002810 <__clzsi2>
 8001e7e:	0003      	movs	r3, r0
 8001e80:	001a      	movs	r2, r3
 8001e82:	3215      	adds	r2, #21
 8001e84:	3020      	adds	r0, #32
 8001e86:	2a1c      	cmp	r2, #28
 8001e88:	dc00      	bgt.n	8001e8c <__aeabi_dmul+0x45c>
 8001e8a:	e684      	b.n	8001b96 <__aeabi_dmul+0x166>
 8001e8c:	4656      	mov	r6, sl
 8001e8e:	3b08      	subs	r3, #8
 8001e90:	2200      	movs	r2, #0
 8001e92:	409e      	lsls	r6, r3
 8001e94:	e689      	b.n	8001baa <__aeabi_dmul+0x17a>
 8001e96:	f000 fcbb 	bl	8002810 <__clzsi2>
 8001e9a:	0001      	movs	r1, r0
 8001e9c:	0002      	movs	r2, r0
 8001e9e:	3115      	adds	r1, #21
 8001ea0:	3220      	adds	r2, #32
 8001ea2:	291c      	cmp	r1, #28
 8001ea4:	dc00      	bgt.n	8001ea8 <__aeabi_dmul+0x478>
 8001ea6:	e64e      	b.n	8001b46 <__aeabi_dmul+0x116>
 8001ea8:	0034      	movs	r4, r6
 8001eaa:	3808      	subs	r0, #8
 8001eac:	2500      	movs	r5, #0
 8001eae:	4084      	lsls	r4, r0
 8001eb0:	e653      	b.n	8001b5a <__aeabi_dmul+0x12a>
 8001eb2:	9b00      	ldr	r3, [sp, #0]
 8001eb4:	469c      	mov	ip, r3
 8001eb6:	e741      	b.n	8001d3c <__aeabi_dmul+0x30c>
 8001eb8:	4912      	ldr	r1, [pc, #72]	; (8001f04 <__aeabi_dmul+0x4d4>)
 8001eba:	0022      	movs	r2, r4
 8001ebc:	4461      	add	r1, ip
 8001ebe:	002e      	movs	r6, r5
 8001ec0:	408d      	lsls	r5, r1
 8001ec2:	408a      	lsls	r2, r1
 8001ec4:	40c6      	lsrs	r6, r0
 8001ec6:	1e69      	subs	r1, r5, #1
 8001ec8:	418d      	sbcs	r5, r1
 8001eca:	4332      	orrs	r2, r6
 8001ecc:	432a      	orrs	r2, r5
 8001ece:	40c4      	lsrs	r4, r0
 8001ed0:	0753      	lsls	r3, r2, #29
 8001ed2:	d0b6      	beq.n	8001e42 <__aeabi_dmul+0x412>
 8001ed4:	210f      	movs	r1, #15
 8001ed6:	4011      	ands	r1, r2
 8001ed8:	2904      	cmp	r1, #4
 8001eda:	d1ac      	bne.n	8001e36 <__aeabi_dmul+0x406>
 8001edc:	e7b1      	b.n	8001e42 <__aeabi_dmul+0x412>
 8001ede:	0765      	lsls	r5, r4, #29
 8001ee0:	0264      	lsls	r4, r4, #9
 8001ee2:	0b24      	lsrs	r4, r4, #12
 8001ee4:	08d2      	lsrs	r2, r2, #3
 8001ee6:	4315      	orrs	r5, r2
 8001ee8:	2200      	movs	r2, #0
 8001eea:	e611      	b.n	8001b10 <__aeabi_dmul+0xe0>
 8001eec:	2280      	movs	r2, #128	; 0x80
 8001eee:	0312      	lsls	r2, r2, #12
 8001ef0:	4314      	orrs	r4, r2
 8001ef2:	0324      	lsls	r4, r4, #12
 8001ef4:	4a01      	ldr	r2, [pc, #4]	; (8001efc <__aeabi_dmul+0x4cc>)
 8001ef6:	0b24      	lsrs	r4, r4, #12
 8001ef8:	e60a      	b.n	8001b10 <__aeabi_dmul+0xe0>
 8001efa:	46c0      	nop			; (mov r8, r8)
 8001efc:	000007ff 	.word	0x000007ff
 8001f00:	0000043e 	.word	0x0000043e
 8001f04:	0000041e 	.word	0x0000041e

08001f08 <__aeabi_dsub>:
 8001f08:	b5f8      	push	{r3, r4, r5, r6, r7, lr}
 8001f0a:	4657      	mov	r7, sl
 8001f0c:	464e      	mov	r6, r9
 8001f0e:	4645      	mov	r5, r8
 8001f10:	46de      	mov	lr, fp
 8001f12:	0004      	movs	r4, r0
 8001f14:	b5e0      	push	{r5, r6, r7, lr}
 8001f16:	001f      	movs	r7, r3
 8001f18:	0010      	movs	r0, r2
 8001f1a:	030b      	lsls	r3, r1, #12
 8001f1c:	0f62      	lsrs	r2, r4, #29
 8001f1e:	004e      	lsls	r6, r1, #1
 8001f20:	0fcd      	lsrs	r5, r1, #31
 8001f22:	0a5b      	lsrs	r3, r3, #9
 8001f24:	0339      	lsls	r1, r7, #12
 8001f26:	4313      	orrs	r3, r2
 8001f28:	0a49      	lsrs	r1, r1, #9
 8001f2a:	00e2      	lsls	r2, r4, #3
 8001f2c:	0f44      	lsrs	r4, r0, #29
 8001f2e:	4321      	orrs	r1, r4
 8001f30:	4cc2      	ldr	r4, [pc, #776]	; (800223c <__aeabi_dsub+0x334>)
 8001f32:	4691      	mov	r9, r2
 8001f34:	4692      	mov	sl, r2
 8001f36:	00c0      	lsls	r0, r0, #3
 8001f38:	007a      	lsls	r2, r7, #1
 8001f3a:	4680      	mov	r8, r0
 8001f3c:	0d76      	lsrs	r6, r6, #21
 8001f3e:	0d52      	lsrs	r2, r2, #21
 8001f40:	0fff      	lsrs	r7, r7, #31
 8001f42:	42a2      	cmp	r2, r4
 8001f44:	d100      	bne.n	8001f48 <__aeabi_dsub+0x40>
 8001f46:	e0b4      	b.n	80020b2 <__aeabi_dsub+0x1aa>
 8001f48:	2401      	movs	r4, #1
 8001f4a:	4067      	eors	r7, r4
 8001f4c:	46bb      	mov	fp, r7
 8001f4e:	42bd      	cmp	r5, r7
 8001f50:	d100      	bne.n	8001f54 <__aeabi_dsub+0x4c>
 8001f52:	e088      	b.n	8002066 <__aeabi_dsub+0x15e>
 8001f54:	1ab4      	subs	r4, r6, r2
 8001f56:	46a4      	mov	ip, r4
 8001f58:	2c00      	cmp	r4, #0
 8001f5a:	dc00      	bgt.n	8001f5e <__aeabi_dsub+0x56>
 8001f5c:	e0b2      	b.n	80020c4 <__aeabi_dsub+0x1bc>
 8001f5e:	2a00      	cmp	r2, #0
 8001f60:	d100      	bne.n	8001f64 <__aeabi_dsub+0x5c>
 8001f62:	e0c5      	b.n	80020f0 <__aeabi_dsub+0x1e8>
 8001f64:	4ab5      	ldr	r2, [pc, #724]	; (800223c <__aeabi_dsub+0x334>)
 8001f66:	4296      	cmp	r6, r2
 8001f68:	d100      	bne.n	8001f6c <__aeabi_dsub+0x64>
 8001f6a:	e28b      	b.n	8002484 <__aeabi_dsub+0x57c>
 8001f6c:	2280      	movs	r2, #128	; 0x80
 8001f6e:	0412      	lsls	r2, r2, #16
 8001f70:	4311      	orrs	r1, r2
 8001f72:	4662      	mov	r2, ip
 8001f74:	2a38      	cmp	r2, #56	; 0x38
 8001f76:	dd00      	ble.n	8001f7a <__aeabi_dsub+0x72>
 8001f78:	e1a1      	b.n	80022be <__aeabi_dsub+0x3b6>
 8001f7a:	2a1f      	cmp	r2, #31
 8001f7c:	dd00      	ble.n	8001f80 <__aeabi_dsub+0x78>
 8001f7e:	e216      	b.n	80023ae <__aeabi_dsub+0x4a6>
 8001f80:	2720      	movs	r7, #32
 8001f82:	000c      	movs	r4, r1
 8001f84:	1abf      	subs	r7, r7, r2
 8001f86:	40bc      	lsls	r4, r7
 8001f88:	0002      	movs	r2, r0
 8001f8a:	46a0      	mov	r8, r4
 8001f8c:	4664      	mov	r4, ip
 8001f8e:	40b8      	lsls	r0, r7
 8001f90:	40e2      	lsrs	r2, r4
 8001f92:	4644      	mov	r4, r8
 8001f94:	4314      	orrs	r4, r2
 8001f96:	0002      	movs	r2, r0
 8001f98:	1e50      	subs	r0, r2, #1
 8001f9a:	4182      	sbcs	r2, r0
 8001f9c:	4660      	mov	r0, ip
 8001f9e:	40c1      	lsrs	r1, r0
 8001fa0:	4322      	orrs	r2, r4
 8001fa2:	1a5b      	subs	r3, r3, r1
 8001fa4:	4649      	mov	r1, r9
 8001fa6:	1a8c      	subs	r4, r1, r2
 8001fa8:	45a1      	cmp	r9, r4
 8001faa:	4192      	sbcs	r2, r2
 8001fac:	4252      	negs	r2, r2
 8001fae:	1a9b      	subs	r3, r3, r2
 8001fb0:	4698      	mov	r8, r3
 8001fb2:	4643      	mov	r3, r8
 8001fb4:	021b      	lsls	r3, r3, #8
 8001fb6:	d400      	bmi.n	8001fba <__aeabi_dsub+0xb2>
 8001fb8:	e117      	b.n	80021ea <__aeabi_dsub+0x2e2>
 8001fba:	4643      	mov	r3, r8
 8001fbc:	025b      	lsls	r3, r3, #9
 8001fbe:	0a5b      	lsrs	r3, r3, #9
 8001fc0:	4698      	mov	r8, r3
 8001fc2:	4643      	mov	r3, r8
 8001fc4:	2b00      	cmp	r3, #0
 8001fc6:	d100      	bne.n	8001fca <__aeabi_dsub+0xc2>
 8001fc8:	e16c      	b.n	80022a4 <__aeabi_dsub+0x39c>
 8001fca:	4640      	mov	r0, r8
 8001fcc:	f000 fc20 	bl	8002810 <__clzsi2>
 8001fd0:	0002      	movs	r2, r0
 8001fd2:	3a08      	subs	r2, #8
 8001fd4:	2120      	movs	r1, #32
 8001fd6:	0020      	movs	r0, r4
 8001fd8:	4643      	mov	r3, r8
 8001fda:	1a89      	subs	r1, r1, r2
 8001fdc:	4093      	lsls	r3, r2
 8001fde:	40c8      	lsrs	r0, r1
 8001fe0:	4094      	lsls	r4, r2
 8001fe2:	4303      	orrs	r3, r0
 8001fe4:	4296      	cmp	r6, r2
 8001fe6:	dd00      	ble.n	8001fea <__aeabi_dsub+0xe2>
 8001fe8:	e157      	b.n	800229a <__aeabi_dsub+0x392>
 8001fea:	1b96      	subs	r6, r2, r6
 8001fec:	1c71      	adds	r1, r6, #1
 8001fee:	291f      	cmp	r1, #31
 8001ff0:	dd00      	ble.n	8001ff4 <__aeabi_dsub+0xec>
 8001ff2:	e1cb      	b.n	800238c <__aeabi_dsub+0x484>
 8001ff4:	2220      	movs	r2, #32
 8001ff6:	0018      	movs	r0, r3
 8001ff8:	0026      	movs	r6, r4
 8001ffa:	1a52      	subs	r2, r2, r1
 8001ffc:	4094      	lsls	r4, r2
 8001ffe:	4090      	lsls	r0, r2
 8002000:	40ce      	lsrs	r6, r1
 8002002:	40cb      	lsrs	r3, r1
 8002004:	1e62      	subs	r2, r4, #1
 8002006:	4194      	sbcs	r4, r2
 8002008:	4330      	orrs	r0, r6
 800200a:	4698      	mov	r8, r3
 800200c:	2600      	movs	r6, #0
 800200e:	4304      	orrs	r4, r0
 8002010:	0763      	lsls	r3, r4, #29
 8002012:	d009      	beq.n	8002028 <__aeabi_dsub+0x120>
 8002014:	230f      	movs	r3, #15
 8002016:	4023      	ands	r3, r4
 8002018:	2b04      	cmp	r3, #4
 800201a:	d005      	beq.n	8002028 <__aeabi_dsub+0x120>
 800201c:	1d23      	adds	r3, r4, #4
 800201e:	42a3      	cmp	r3, r4
 8002020:	41a4      	sbcs	r4, r4
 8002022:	4264      	negs	r4, r4
 8002024:	44a0      	add	r8, r4
 8002026:	001c      	movs	r4, r3
 8002028:	4643      	mov	r3, r8
 800202a:	021b      	lsls	r3, r3, #8
 800202c:	d400      	bmi.n	8002030 <__aeabi_dsub+0x128>
 800202e:	e0df      	b.n	80021f0 <__aeabi_dsub+0x2e8>
 8002030:	4b82      	ldr	r3, [pc, #520]	; (800223c <__aeabi_dsub+0x334>)
 8002032:	3601      	adds	r6, #1
 8002034:	429e      	cmp	r6, r3
 8002036:	d100      	bne.n	800203a <__aeabi_dsub+0x132>
 8002038:	e0fb      	b.n	8002232 <__aeabi_dsub+0x32a>
 800203a:	4642      	mov	r2, r8
 800203c:	4b80      	ldr	r3, [pc, #512]	; (8002240 <__aeabi_dsub+0x338>)
 800203e:	08e4      	lsrs	r4, r4, #3
 8002040:	401a      	ands	r2, r3
 8002042:	0013      	movs	r3, r2
 8002044:	0571      	lsls	r1, r6, #21
 8002046:	0752      	lsls	r2, r2, #29
 8002048:	025b      	lsls	r3, r3, #9
 800204a:	4322      	orrs	r2, r4
 800204c:	0b1b      	lsrs	r3, r3, #12
 800204e:	0d49      	lsrs	r1, r1, #21
 8002050:	0509      	lsls	r1, r1, #20
 8002052:	07ed      	lsls	r5, r5, #31
 8002054:	4319      	orrs	r1, r3
 8002056:	4329      	orrs	r1, r5
 8002058:	0010      	movs	r0, r2
 800205a:	bcf0      	pop	{r4, r5, r6, r7}
 800205c:	46bb      	mov	fp, r7
 800205e:	46b2      	mov	sl, r6
 8002060:	46a9      	mov	r9, r5
 8002062:	46a0      	mov	r8, r4
 8002064:	bdf8      	pop	{r3, r4, r5, r6, r7, pc}
 8002066:	1ab4      	subs	r4, r6, r2
 8002068:	46a4      	mov	ip, r4
 800206a:	2c00      	cmp	r4, #0
 800206c:	dd58      	ble.n	8002120 <__aeabi_dsub+0x218>
 800206e:	2a00      	cmp	r2, #0
 8002070:	d100      	bne.n	8002074 <__aeabi_dsub+0x16c>
 8002072:	e09e      	b.n	80021b2 <__aeabi_dsub+0x2aa>
 8002074:	4a71      	ldr	r2, [pc, #452]	; (800223c <__aeabi_dsub+0x334>)
 8002076:	4296      	cmp	r6, r2
 8002078:	d100      	bne.n	800207c <__aeabi_dsub+0x174>
 800207a:	e13b      	b.n	80022f4 <__aeabi_dsub+0x3ec>
 800207c:	2280      	movs	r2, #128	; 0x80
 800207e:	0412      	lsls	r2, r2, #16
 8002080:	4311      	orrs	r1, r2
 8002082:	4662      	mov	r2, ip
 8002084:	2a38      	cmp	r2, #56	; 0x38
 8002086:	dd00      	ble.n	800208a <__aeabi_dsub+0x182>
 8002088:	e0c1      	b.n	800220e <__aeabi_dsub+0x306>
 800208a:	2a1f      	cmp	r2, #31
 800208c:	dc00      	bgt.n	8002090 <__aeabi_dsub+0x188>
 800208e:	e1bb      	b.n	8002408 <__aeabi_dsub+0x500>
 8002090:	000c      	movs	r4, r1
 8002092:	3a20      	subs	r2, #32
 8002094:	40d4      	lsrs	r4, r2
 8002096:	0022      	movs	r2, r4
 8002098:	4664      	mov	r4, ip
 800209a:	2c20      	cmp	r4, #32
 800209c:	d004      	beq.n	80020a8 <__aeabi_dsub+0x1a0>
 800209e:	2740      	movs	r7, #64	; 0x40
 80020a0:	1b3f      	subs	r7, r7, r4
 80020a2:	40b9      	lsls	r1, r7
 80020a4:	4308      	orrs	r0, r1
 80020a6:	4680      	mov	r8, r0
 80020a8:	4644      	mov	r4, r8
 80020aa:	1e61      	subs	r1, r4, #1
 80020ac:	418c      	sbcs	r4, r1
 80020ae:	4314      	orrs	r4, r2
 80020b0:	e0b1      	b.n	8002216 <__aeabi_dsub+0x30e>
 80020b2:	000c      	movs	r4, r1
 80020b4:	4304      	orrs	r4, r0
 80020b6:	d02a      	beq.n	800210e <__aeabi_dsub+0x206>
 80020b8:	46bb      	mov	fp, r7
 80020ba:	42bd      	cmp	r5, r7
 80020bc:	d02d      	beq.n	800211a <__aeabi_dsub+0x212>
 80020be:	4c61      	ldr	r4, [pc, #388]	; (8002244 <__aeabi_dsub+0x33c>)
 80020c0:	46a4      	mov	ip, r4
 80020c2:	44b4      	add	ip, r6
 80020c4:	4664      	mov	r4, ip
 80020c6:	2c00      	cmp	r4, #0
 80020c8:	d05c      	beq.n	8002184 <__aeabi_dsub+0x27c>
 80020ca:	1b94      	subs	r4, r2, r6
 80020cc:	46a4      	mov	ip, r4
 80020ce:	2e00      	cmp	r6, #0
 80020d0:	d000      	beq.n	80020d4 <__aeabi_dsub+0x1cc>
 80020d2:	e115      	b.n	8002300 <__aeabi_dsub+0x3f8>
 80020d4:	464d      	mov	r5, r9
 80020d6:	431d      	orrs	r5, r3
 80020d8:	d100      	bne.n	80020dc <__aeabi_dsub+0x1d4>
 80020da:	e1c3      	b.n	8002464 <__aeabi_dsub+0x55c>
 80020dc:	1e65      	subs	r5, r4, #1
 80020de:	2c01      	cmp	r4, #1
 80020e0:	d100      	bne.n	80020e4 <__aeabi_dsub+0x1dc>
 80020e2:	e20c      	b.n	80024fe <__aeabi_dsub+0x5f6>
 80020e4:	4e55      	ldr	r6, [pc, #340]	; (800223c <__aeabi_dsub+0x334>)
 80020e6:	42b4      	cmp	r4, r6
 80020e8:	d100      	bne.n	80020ec <__aeabi_dsub+0x1e4>
 80020ea:	e1f8      	b.n	80024de <__aeabi_dsub+0x5d6>
 80020ec:	46ac      	mov	ip, r5
 80020ee:	e10e      	b.n	800230e <__aeabi_dsub+0x406>
 80020f0:	000a      	movs	r2, r1
 80020f2:	4302      	orrs	r2, r0
 80020f4:	d100      	bne.n	80020f8 <__aeabi_dsub+0x1f0>
 80020f6:	e136      	b.n	8002366 <__aeabi_dsub+0x45e>
 80020f8:	0022      	movs	r2, r4
 80020fa:	3a01      	subs	r2, #1
 80020fc:	2c01      	cmp	r4, #1
 80020fe:	d100      	bne.n	8002102 <__aeabi_dsub+0x1fa>
 8002100:	e1c6      	b.n	8002490 <__aeabi_dsub+0x588>
 8002102:	4c4e      	ldr	r4, [pc, #312]	; (800223c <__aeabi_dsub+0x334>)
 8002104:	45a4      	cmp	ip, r4
 8002106:	d100      	bne.n	800210a <__aeabi_dsub+0x202>
 8002108:	e0f4      	b.n	80022f4 <__aeabi_dsub+0x3ec>
 800210a:	4694      	mov	ip, r2
 800210c:	e731      	b.n	8001f72 <__aeabi_dsub+0x6a>
 800210e:	2401      	movs	r4, #1
 8002110:	4067      	eors	r7, r4
 8002112:	46bb      	mov	fp, r7
 8002114:	42bd      	cmp	r5, r7
 8002116:	d000      	beq.n	800211a <__aeabi_dsub+0x212>
 8002118:	e71c      	b.n	8001f54 <__aeabi_dsub+0x4c>
 800211a:	4c4a      	ldr	r4, [pc, #296]	; (8002244 <__aeabi_dsub+0x33c>)
 800211c:	46a4      	mov	ip, r4
 800211e:	44b4      	add	ip, r6
 8002120:	4664      	mov	r4, ip
 8002122:	2c00      	cmp	r4, #0
 8002124:	d100      	bne.n	8002128 <__aeabi_dsub+0x220>
 8002126:	e0cf      	b.n	80022c8 <__aeabi_dsub+0x3c0>
 8002128:	1b94      	subs	r4, r2, r6
 800212a:	46a4      	mov	ip, r4
 800212c:	2e00      	cmp	r6, #0
 800212e:	d100      	bne.n	8002132 <__aeabi_dsub+0x22a>
 8002130:	e15c      	b.n	80023ec <__aeabi_dsub+0x4e4>
 8002132:	4e42      	ldr	r6, [pc, #264]	; (800223c <__aeabi_dsub+0x334>)
 8002134:	42b2      	cmp	r2, r6
 8002136:	d100      	bne.n	800213a <__aeabi_dsub+0x232>
 8002138:	e1ec      	b.n	8002514 <__aeabi_dsub+0x60c>
 800213a:	2680      	movs	r6, #128	; 0x80
 800213c:	0436      	lsls	r6, r6, #16
 800213e:	4333      	orrs	r3, r6
 8002140:	4664      	mov	r4, ip
 8002142:	2c38      	cmp	r4, #56	; 0x38
 8002144:	dd00      	ble.n	8002148 <__aeabi_dsub+0x240>
 8002146:	e1b3      	b.n	80024b0 <__aeabi_dsub+0x5a8>
 8002148:	2c1f      	cmp	r4, #31
 800214a:	dd00      	ble.n	800214e <__aeabi_dsub+0x246>
 800214c:	e238      	b.n	80025c0 <__aeabi_dsub+0x6b8>
 800214e:	2620      	movs	r6, #32
 8002150:	1b36      	subs	r6, r6, r4
 8002152:	001c      	movs	r4, r3
 8002154:	40b4      	lsls	r4, r6
 8002156:	464f      	mov	r7, r9
 8002158:	46a0      	mov	r8, r4
 800215a:	4664      	mov	r4, ip
 800215c:	40e7      	lsrs	r7, r4
 800215e:	4644      	mov	r4, r8
 8002160:	433c      	orrs	r4, r7
 8002162:	464f      	mov	r7, r9
 8002164:	40b7      	lsls	r7, r6
 8002166:	003e      	movs	r6, r7
 8002168:	1e77      	subs	r7, r6, #1
 800216a:	41be      	sbcs	r6, r7
 800216c:	4334      	orrs	r4, r6
 800216e:	4666      	mov	r6, ip
 8002170:	40f3      	lsrs	r3, r6
 8002172:	18c9      	adds	r1, r1, r3
 8002174:	1824      	adds	r4, r4, r0
 8002176:	4284      	cmp	r4, r0
 8002178:	419b      	sbcs	r3, r3
 800217a:	425b      	negs	r3, r3
 800217c:	4698      	mov	r8, r3
 800217e:	0016      	movs	r6, r2
 8002180:	4488      	add	r8, r1
 8002182:	e04e      	b.n	8002222 <__aeabi_dsub+0x31a>
 8002184:	4a30      	ldr	r2, [pc, #192]	; (8002248 <__aeabi_dsub+0x340>)
 8002186:	1c74      	adds	r4, r6, #1
 8002188:	4214      	tst	r4, r2
 800218a:	d000      	beq.n	800218e <__aeabi_dsub+0x286>
 800218c:	e0d6      	b.n	800233c <__aeabi_dsub+0x434>
 800218e:	464a      	mov	r2, r9
 8002190:	431a      	orrs	r2, r3
 8002192:	2e00      	cmp	r6, #0
 8002194:	d000      	beq.n	8002198 <__aeabi_dsub+0x290>
 8002196:	e15b      	b.n	8002450 <__aeabi_dsub+0x548>
 8002198:	2a00      	cmp	r2, #0
 800219a:	d100      	bne.n	800219e <__aeabi_dsub+0x296>
 800219c:	e1a5      	b.n	80024ea <__aeabi_dsub+0x5e2>
 800219e:	000a      	movs	r2, r1
 80021a0:	4302      	orrs	r2, r0
 80021a2:	d000      	beq.n	80021a6 <__aeabi_dsub+0x29e>
 80021a4:	e1bb      	b.n	800251e <__aeabi_dsub+0x616>
 80021a6:	464a      	mov	r2, r9
 80021a8:	0759      	lsls	r1, r3, #29
 80021aa:	08d2      	lsrs	r2, r2, #3
 80021ac:	430a      	orrs	r2, r1
 80021ae:	08db      	lsrs	r3, r3, #3
 80021b0:	e027      	b.n	8002202 <__aeabi_dsub+0x2fa>
 80021b2:	000a      	movs	r2, r1
 80021b4:	4302      	orrs	r2, r0
 80021b6:	d100      	bne.n	80021ba <__aeabi_dsub+0x2b2>
 80021b8:	e174      	b.n	80024a4 <__aeabi_dsub+0x59c>
 80021ba:	0022      	movs	r2, r4
 80021bc:	3a01      	subs	r2, #1
 80021be:	2c01      	cmp	r4, #1
 80021c0:	d005      	beq.n	80021ce <__aeabi_dsub+0x2c6>
 80021c2:	4c1e      	ldr	r4, [pc, #120]	; (800223c <__aeabi_dsub+0x334>)
 80021c4:	45a4      	cmp	ip, r4
 80021c6:	d100      	bne.n	80021ca <__aeabi_dsub+0x2c2>
 80021c8:	e094      	b.n	80022f4 <__aeabi_dsub+0x3ec>
 80021ca:	4694      	mov	ip, r2
 80021cc:	e759      	b.n	8002082 <__aeabi_dsub+0x17a>
 80021ce:	4448      	add	r0, r9
 80021d0:	4548      	cmp	r0, r9
 80021d2:	4192      	sbcs	r2, r2
 80021d4:	185b      	adds	r3, r3, r1
 80021d6:	4698      	mov	r8, r3
 80021d8:	0004      	movs	r4, r0
 80021da:	4252      	negs	r2, r2
 80021dc:	4490      	add	r8, r2
 80021de:	4643      	mov	r3, r8
 80021e0:	2602      	movs	r6, #2
 80021e2:	021b      	lsls	r3, r3, #8
 80021e4:	d500      	bpl.n	80021e8 <__aeabi_dsub+0x2e0>
 80021e6:	e0c4      	b.n	8002372 <__aeabi_dsub+0x46a>
 80021e8:	3e01      	subs	r6, #1
 80021ea:	0763      	lsls	r3, r4, #29
 80021ec:	d000      	beq.n	80021f0 <__aeabi_dsub+0x2e8>
 80021ee:	e711      	b.n	8002014 <__aeabi_dsub+0x10c>
 80021f0:	4643      	mov	r3, r8
 80021f2:	46b4      	mov	ip, r6
 80021f4:	0759      	lsls	r1, r3, #29
 80021f6:	08e2      	lsrs	r2, r4, #3
 80021f8:	430a      	orrs	r2, r1
 80021fa:	08db      	lsrs	r3, r3, #3
 80021fc:	490f      	ldr	r1, [pc, #60]	; (800223c <__aeabi_dsub+0x334>)
 80021fe:	458c      	cmp	ip, r1
 8002200:	d040      	beq.n	8002284 <__aeabi_dsub+0x37c>
 8002202:	4661      	mov	r1, ip
 8002204:	031b      	lsls	r3, r3, #12
 8002206:	0549      	lsls	r1, r1, #21
 8002208:	0b1b      	lsrs	r3, r3, #12
 800220a:	0d49      	lsrs	r1, r1, #21
 800220c:	e720      	b.n	8002050 <__aeabi_dsub+0x148>
 800220e:	4301      	orrs	r1, r0
 8002210:	000c      	movs	r4, r1
 8002212:	1e61      	subs	r1, r4, #1
 8002214:	418c      	sbcs	r4, r1
 8002216:	444c      	add	r4, r9
 8002218:	454c      	cmp	r4, r9
 800221a:	4192      	sbcs	r2, r2
 800221c:	4252      	negs	r2, r2
 800221e:	4690      	mov	r8, r2
 8002220:	4498      	add	r8, r3
 8002222:	4643      	mov	r3, r8
 8002224:	021b      	lsls	r3, r3, #8
 8002226:	d5e0      	bpl.n	80021ea <__aeabi_dsub+0x2e2>
 8002228:	4b04      	ldr	r3, [pc, #16]	; (800223c <__aeabi_dsub+0x334>)
 800222a:	3601      	adds	r6, #1
 800222c:	429e      	cmp	r6, r3
 800222e:	d000      	beq.n	8002232 <__aeabi_dsub+0x32a>
 8002230:	e09f      	b.n	8002372 <__aeabi_dsub+0x46a>
 8002232:	0031      	movs	r1, r6
 8002234:	2300      	movs	r3, #0
 8002236:	2200      	movs	r2, #0
 8002238:	e70a      	b.n	8002050 <__aeabi_dsub+0x148>
 800223a:	46c0      	nop			; (mov r8, r8)
 800223c:	000007ff 	.word	0x000007ff
 8002240:	ff7fffff 	.word	0xff7fffff
 8002244:	fffff801 	.word	0xfffff801
 8002248:	000007fe 	.word	0x000007fe
 800224c:	2a00      	cmp	r2, #0
 800224e:	d100      	bne.n	8002252 <__aeabi_dsub+0x34a>
 8002250:	e160      	b.n	8002514 <__aeabi_dsub+0x60c>
 8002252:	000a      	movs	r2, r1
 8002254:	4302      	orrs	r2, r0
 8002256:	d04d      	beq.n	80022f4 <__aeabi_dsub+0x3ec>
 8002258:	464a      	mov	r2, r9
 800225a:	075c      	lsls	r4, r3, #29
 800225c:	08d2      	lsrs	r2, r2, #3
 800225e:	4322      	orrs	r2, r4
 8002260:	2480      	movs	r4, #128	; 0x80
 8002262:	08db      	lsrs	r3, r3, #3
 8002264:	0324      	lsls	r4, r4, #12
 8002266:	4223      	tst	r3, r4
 8002268:	d007      	beq.n	800227a <__aeabi_dsub+0x372>
 800226a:	08ce      	lsrs	r6, r1, #3
 800226c:	4226      	tst	r6, r4
 800226e:	d104      	bne.n	800227a <__aeabi_dsub+0x372>
 8002270:	465d      	mov	r5, fp
 8002272:	0033      	movs	r3, r6
 8002274:	08c2      	lsrs	r2, r0, #3
 8002276:	0749      	lsls	r1, r1, #29
 8002278:	430a      	orrs	r2, r1
 800227a:	0f51      	lsrs	r1, r2, #29
 800227c:	00d2      	lsls	r2, r2, #3
 800227e:	08d2      	lsrs	r2, r2, #3
 8002280:	0749      	lsls	r1, r1, #29
 8002282:	430a      	orrs	r2, r1
 8002284:	0011      	movs	r1, r2
 8002286:	4319      	orrs	r1, r3
 8002288:	d100      	bne.n	800228c <__aeabi_dsub+0x384>
 800228a:	e1c8      	b.n	800261e <__aeabi_dsub+0x716>
 800228c:	2180      	movs	r1, #128	; 0x80
 800228e:	0309      	lsls	r1, r1, #12
 8002290:	430b      	orrs	r3, r1
 8002292:	031b      	lsls	r3, r3, #12
 8002294:	49d5      	ldr	r1, [pc, #852]	; (80025ec <__aeabi_dsub+0x6e4>)
 8002296:	0b1b      	lsrs	r3, r3, #12
 8002298:	e6da      	b.n	8002050 <__aeabi_dsub+0x148>
 800229a:	49d5      	ldr	r1, [pc, #852]	; (80025f0 <__aeabi_dsub+0x6e8>)
 800229c:	1ab6      	subs	r6, r6, r2
 800229e:	400b      	ands	r3, r1
 80022a0:	4698      	mov	r8, r3
 80022a2:	e6b5      	b.n	8002010 <__aeabi_dsub+0x108>
 80022a4:	0020      	movs	r0, r4
 80022a6:	f000 fab3 	bl	8002810 <__clzsi2>
 80022aa:	0002      	movs	r2, r0
 80022ac:	3218      	adds	r2, #24
 80022ae:	2a1f      	cmp	r2, #31
 80022b0:	dc00      	bgt.n	80022b4 <__aeabi_dsub+0x3ac>
 80022b2:	e68f      	b.n	8001fd4 <__aeabi_dsub+0xcc>
 80022b4:	0023      	movs	r3, r4
 80022b6:	3808      	subs	r0, #8
 80022b8:	4083      	lsls	r3, r0
 80022ba:	2400      	movs	r4, #0
 80022bc:	e692      	b.n	8001fe4 <__aeabi_dsub+0xdc>
 80022be:	4308      	orrs	r0, r1
 80022c0:	0002      	movs	r2, r0
 80022c2:	1e50      	subs	r0, r2, #1
 80022c4:	4182      	sbcs	r2, r0
 80022c6:	e66d      	b.n	8001fa4 <__aeabi_dsub+0x9c>
 80022c8:	4cca      	ldr	r4, [pc, #808]	; (80025f4 <__aeabi_dsub+0x6ec>)
 80022ca:	1c72      	adds	r2, r6, #1
 80022cc:	4222      	tst	r2, r4
 80022ce:	d000      	beq.n	80022d2 <__aeabi_dsub+0x3ca>
 80022d0:	e0ad      	b.n	800242e <__aeabi_dsub+0x526>
 80022d2:	464a      	mov	r2, r9
 80022d4:	431a      	orrs	r2, r3
 80022d6:	2e00      	cmp	r6, #0
 80022d8:	d1b8      	bne.n	800224c <__aeabi_dsub+0x344>
 80022da:	2a00      	cmp	r2, #0
 80022dc:	d100      	bne.n	80022e0 <__aeabi_dsub+0x3d8>
 80022de:	e158      	b.n	8002592 <__aeabi_dsub+0x68a>
 80022e0:	000a      	movs	r2, r1
 80022e2:	4302      	orrs	r2, r0
 80022e4:	d000      	beq.n	80022e8 <__aeabi_dsub+0x3e0>
 80022e6:	e159      	b.n	800259c <__aeabi_dsub+0x694>
 80022e8:	464a      	mov	r2, r9
 80022ea:	0759      	lsls	r1, r3, #29
 80022ec:	08d2      	lsrs	r2, r2, #3
 80022ee:	430a      	orrs	r2, r1
 80022f0:	08db      	lsrs	r3, r3, #3
 80022f2:	e786      	b.n	8002202 <__aeabi_dsub+0x2fa>
 80022f4:	464a      	mov	r2, r9
 80022f6:	0759      	lsls	r1, r3, #29
 80022f8:	08d2      	lsrs	r2, r2, #3
 80022fa:	430a      	orrs	r2, r1
 80022fc:	08db      	lsrs	r3, r3, #3
 80022fe:	e7c1      	b.n	8002284 <__aeabi_dsub+0x37c>
 8002300:	4dba      	ldr	r5, [pc, #744]	; (80025ec <__aeabi_dsub+0x6e4>)
 8002302:	42aa      	cmp	r2, r5
 8002304:	d100      	bne.n	8002308 <__aeabi_dsub+0x400>
 8002306:	e11e      	b.n	8002546 <__aeabi_dsub+0x63e>
 8002308:	2580      	movs	r5, #128	; 0x80
 800230a:	042d      	lsls	r5, r5, #16
 800230c:	432b      	orrs	r3, r5
 800230e:	4664      	mov	r4, ip
 8002310:	2c38      	cmp	r4, #56	; 0x38
 8002312:	dc5d      	bgt.n	80023d0 <__aeabi_dsub+0x4c8>
 8002314:	2c1f      	cmp	r4, #31
 8002316:	dd00      	ble.n	800231a <__aeabi_dsub+0x412>
 8002318:	e0d0      	b.n	80024bc <__aeabi_dsub+0x5b4>
 800231a:	2520      	movs	r5, #32
 800231c:	4667      	mov	r7, ip
 800231e:	1b2d      	subs	r5, r5, r4
 8002320:	464e      	mov	r6, r9
 8002322:	001c      	movs	r4, r3
 8002324:	40fe      	lsrs	r6, r7
 8002326:	40ac      	lsls	r4, r5
 8002328:	4334      	orrs	r4, r6
 800232a:	464e      	mov	r6, r9
 800232c:	40ae      	lsls	r6, r5
 800232e:	0035      	movs	r5, r6
 8002330:	40fb      	lsrs	r3, r7
 8002332:	1e6e      	subs	r6, r5, #1
 8002334:	41b5      	sbcs	r5, r6
 8002336:	1ac9      	subs	r1, r1, r3
 8002338:	432c      	orrs	r4, r5
 800233a:	e04e      	b.n	80023da <__aeabi_dsub+0x4d2>
 800233c:	464a      	mov	r2, r9
 800233e:	1a14      	subs	r4, r2, r0
 8002340:	45a1      	cmp	r9, r4
 8002342:	4192      	sbcs	r2, r2
 8002344:	4252      	negs	r2, r2
 8002346:	4690      	mov	r8, r2
 8002348:	1a5f      	subs	r7, r3, r1
 800234a:	003a      	movs	r2, r7
 800234c:	4647      	mov	r7, r8
 800234e:	1bd2      	subs	r2, r2, r7
 8002350:	4690      	mov	r8, r2
 8002352:	0212      	lsls	r2, r2, #8
 8002354:	d500      	bpl.n	8002358 <__aeabi_dsub+0x450>
 8002356:	e08b      	b.n	8002470 <__aeabi_dsub+0x568>
 8002358:	4642      	mov	r2, r8
 800235a:	4322      	orrs	r2, r4
 800235c:	d000      	beq.n	8002360 <__aeabi_dsub+0x458>
 800235e:	e630      	b.n	8001fc2 <__aeabi_dsub+0xba>
 8002360:	2300      	movs	r3, #0
 8002362:	2500      	movs	r5, #0
 8002364:	e74d      	b.n	8002202 <__aeabi_dsub+0x2fa>
 8002366:	464a      	mov	r2, r9
 8002368:	0759      	lsls	r1, r3, #29
 800236a:	08d2      	lsrs	r2, r2, #3
 800236c:	430a      	orrs	r2, r1
 800236e:	08db      	lsrs	r3, r3, #3
 8002370:	e744      	b.n	80021fc <__aeabi_dsub+0x2f4>
 8002372:	4642      	mov	r2, r8
 8002374:	4b9e      	ldr	r3, [pc, #632]	; (80025f0 <__aeabi_dsub+0x6e8>)
 8002376:	0861      	lsrs	r1, r4, #1
 8002378:	401a      	ands	r2, r3
 800237a:	0013      	movs	r3, r2
 800237c:	2201      	movs	r2, #1
 800237e:	4014      	ands	r4, r2
 8002380:	430c      	orrs	r4, r1
 8002382:	07da      	lsls	r2, r3, #31
 8002384:	085b      	lsrs	r3, r3, #1
 8002386:	4698      	mov	r8, r3
 8002388:	4314      	orrs	r4, r2
 800238a:	e641      	b.n	8002010 <__aeabi_dsub+0x108>
 800238c:	001a      	movs	r2, r3
 800238e:	3e1f      	subs	r6, #31
 8002390:	40f2      	lsrs	r2, r6
 8002392:	0016      	movs	r6, r2
 8002394:	2920      	cmp	r1, #32
 8002396:	d003      	beq.n	80023a0 <__aeabi_dsub+0x498>
 8002398:	2240      	movs	r2, #64	; 0x40
 800239a:	1a51      	subs	r1, r2, r1
 800239c:	408b      	lsls	r3, r1
 800239e:	431c      	orrs	r4, r3
 80023a0:	1e62      	subs	r2, r4, #1
 80023a2:	4194      	sbcs	r4, r2
 80023a4:	2300      	movs	r3, #0
 80023a6:	4334      	orrs	r4, r6
 80023a8:	4698      	mov	r8, r3
 80023aa:	2600      	movs	r6, #0
 80023ac:	e71d      	b.n	80021ea <__aeabi_dsub+0x2e2>
 80023ae:	000c      	movs	r4, r1
 80023b0:	3a20      	subs	r2, #32
 80023b2:	40d4      	lsrs	r4, r2
 80023b4:	0022      	movs	r2, r4
 80023b6:	4664      	mov	r4, ip
 80023b8:	2c20      	cmp	r4, #32
 80023ba:	d004      	beq.n	80023c6 <__aeabi_dsub+0x4be>
 80023bc:	2740      	movs	r7, #64	; 0x40
 80023be:	1b3f      	subs	r7, r7, r4
 80023c0:	40b9      	lsls	r1, r7
 80023c2:	4308      	orrs	r0, r1
 80023c4:	4680      	mov	r8, r0
 80023c6:	4644      	mov	r4, r8
 80023c8:	1e61      	subs	r1, r4, #1
 80023ca:	418c      	sbcs	r4, r1
 80023cc:	4322      	orrs	r2, r4
 80023ce:	e5e9      	b.n	8001fa4 <__aeabi_dsub+0x9c>
 80023d0:	464c      	mov	r4, r9
 80023d2:	4323      	orrs	r3, r4
 80023d4:	001c      	movs	r4, r3
 80023d6:	1e63      	subs	r3, r4, #1
 80023d8:	419c      	sbcs	r4, r3
 80023da:	1b04      	subs	r4, r0, r4
 80023dc:	42a0      	cmp	r0, r4
 80023de:	419b      	sbcs	r3, r3
 80023e0:	425b      	negs	r3, r3
 80023e2:	1acb      	subs	r3, r1, r3
 80023e4:	4698      	mov	r8, r3
 80023e6:	465d      	mov	r5, fp
 80023e8:	0016      	movs	r6, r2
 80023ea:	e5e2      	b.n	8001fb2 <__aeabi_dsub+0xaa>
 80023ec:	464e      	mov	r6, r9
 80023ee:	431e      	orrs	r6, r3
 80023f0:	d100      	bne.n	80023f4 <__aeabi_dsub+0x4ec>
 80023f2:	e0ae      	b.n	8002552 <__aeabi_dsub+0x64a>
 80023f4:	1e66      	subs	r6, r4, #1
 80023f6:	2c01      	cmp	r4, #1
 80023f8:	d100      	bne.n	80023fc <__aeabi_dsub+0x4f4>
 80023fa:	e0fd      	b.n	80025f8 <__aeabi_dsub+0x6f0>
 80023fc:	4f7b      	ldr	r7, [pc, #492]	; (80025ec <__aeabi_dsub+0x6e4>)
 80023fe:	42bc      	cmp	r4, r7
 8002400:	d100      	bne.n	8002404 <__aeabi_dsub+0x4fc>
 8002402:	e107      	b.n	8002614 <__aeabi_dsub+0x70c>
 8002404:	46b4      	mov	ip, r6
 8002406:	e69b      	b.n	8002140 <__aeabi_dsub+0x238>
 8002408:	4664      	mov	r4, ip
 800240a:	2220      	movs	r2, #32
 800240c:	1b12      	subs	r2, r2, r4
 800240e:	000c      	movs	r4, r1
 8002410:	4094      	lsls	r4, r2
 8002412:	0007      	movs	r7, r0
 8002414:	4090      	lsls	r0, r2
 8002416:	46a0      	mov	r8, r4
 8002418:	4664      	mov	r4, ip
 800241a:	1e42      	subs	r2, r0, #1
 800241c:	4190      	sbcs	r0, r2
 800241e:	4662      	mov	r2, ip
 8002420:	40e7      	lsrs	r7, r4
 8002422:	4644      	mov	r4, r8
 8002424:	40d1      	lsrs	r1, r2
 8002426:	433c      	orrs	r4, r7
 8002428:	4304      	orrs	r4, r0
 800242a:	185b      	adds	r3, r3, r1
 800242c:	e6f3      	b.n	8002216 <__aeabi_dsub+0x30e>
 800242e:	4c6f      	ldr	r4, [pc, #444]	; (80025ec <__aeabi_dsub+0x6e4>)
 8002430:	42a2      	cmp	r2, r4
 8002432:	d100      	bne.n	8002436 <__aeabi_dsub+0x52e>
 8002434:	e0d5      	b.n	80025e2 <__aeabi_dsub+0x6da>
 8002436:	4448      	add	r0, r9
 8002438:	185b      	adds	r3, r3, r1
 800243a:	4548      	cmp	r0, r9
 800243c:	4189      	sbcs	r1, r1
 800243e:	4249      	negs	r1, r1
 8002440:	185b      	adds	r3, r3, r1
 8002442:	07dc      	lsls	r4, r3, #31
 8002444:	0840      	lsrs	r0, r0, #1
 8002446:	085b      	lsrs	r3, r3, #1
 8002448:	4698      	mov	r8, r3
 800244a:	0016      	movs	r6, r2
 800244c:	4304      	orrs	r4, r0
 800244e:	e6cc      	b.n	80021ea <__aeabi_dsub+0x2e2>
 8002450:	2a00      	cmp	r2, #0
 8002452:	d000      	beq.n	8002456 <__aeabi_dsub+0x54e>
 8002454:	e082      	b.n	800255c <__aeabi_dsub+0x654>
 8002456:	000a      	movs	r2, r1
 8002458:	4302      	orrs	r2, r0
 800245a:	d140      	bne.n	80024de <__aeabi_dsub+0x5d6>
 800245c:	2380      	movs	r3, #128	; 0x80
 800245e:	2500      	movs	r5, #0
 8002460:	031b      	lsls	r3, r3, #12
 8002462:	e713      	b.n	800228c <__aeabi_dsub+0x384>
 8002464:	074b      	lsls	r3, r1, #29
 8002466:	08c2      	lsrs	r2, r0, #3
 8002468:	431a      	orrs	r2, r3
 800246a:	465d      	mov	r5, fp
 800246c:	08cb      	lsrs	r3, r1, #3
 800246e:	e6c5      	b.n	80021fc <__aeabi_dsub+0x2f4>
 8002470:	464a      	mov	r2, r9
 8002472:	1a84      	subs	r4, r0, r2
 8002474:	42a0      	cmp	r0, r4
 8002476:	4192      	sbcs	r2, r2
 8002478:	1acb      	subs	r3, r1, r3
 800247a:	4252      	negs	r2, r2
 800247c:	1a9b      	subs	r3, r3, r2
 800247e:	4698      	mov	r8, r3
 8002480:	465d      	mov	r5, fp
 8002482:	e59e      	b.n	8001fc2 <__aeabi_dsub+0xba>
 8002484:	464a      	mov	r2, r9
 8002486:	0759      	lsls	r1, r3, #29
 8002488:	08d2      	lsrs	r2, r2, #3
 800248a:	430a      	orrs	r2, r1
 800248c:	08db      	lsrs	r3, r3, #3
 800248e:	e6f9      	b.n	8002284 <__aeabi_dsub+0x37c>
 8002490:	464a      	mov	r2, r9
 8002492:	1a14      	subs	r4, r2, r0
 8002494:	45a1      	cmp	r9, r4
 8002496:	4192      	sbcs	r2, r2
 8002498:	1a5b      	subs	r3, r3, r1
 800249a:	4252      	negs	r2, r2
 800249c:	1a9b      	subs	r3, r3, r2
 800249e:	4698      	mov	r8, r3
 80024a0:	2601      	movs	r6, #1
 80024a2:	e586      	b.n	8001fb2 <__aeabi_dsub+0xaa>
 80024a4:	464a      	mov	r2, r9
 80024a6:	0759      	lsls	r1, r3, #29
 80024a8:	08d2      	lsrs	r2, r2, #3
 80024aa:	430a      	orrs	r2, r1
 80024ac:	08db      	lsrs	r3, r3, #3
 80024ae:	e6a5      	b.n	80021fc <__aeabi_dsub+0x2f4>
 80024b0:	464c      	mov	r4, r9
 80024b2:	4323      	orrs	r3, r4
 80024b4:	001c      	movs	r4, r3
 80024b6:	1e63      	subs	r3, r4, #1
 80024b8:	419c      	sbcs	r4, r3
 80024ba:	e65b      	b.n	8002174 <__aeabi_dsub+0x26c>
 80024bc:	4665      	mov	r5, ip
 80024be:	001e      	movs	r6, r3
 80024c0:	3d20      	subs	r5, #32
 80024c2:	40ee      	lsrs	r6, r5
 80024c4:	2c20      	cmp	r4, #32
 80024c6:	d005      	beq.n	80024d4 <__aeabi_dsub+0x5cc>
 80024c8:	2540      	movs	r5, #64	; 0x40
 80024ca:	1b2d      	subs	r5, r5, r4
 80024cc:	40ab      	lsls	r3, r5
 80024ce:	464c      	mov	r4, r9
 80024d0:	431c      	orrs	r4, r3
 80024d2:	46a2      	mov	sl, r4
 80024d4:	4654      	mov	r4, sl
 80024d6:	1e63      	subs	r3, r4, #1
 80024d8:	419c      	sbcs	r4, r3
 80024da:	4334      	orrs	r4, r6
 80024dc:	e77d      	b.n	80023da <__aeabi_dsub+0x4d2>
 80024de:	074b      	lsls	r3, r1, #29
 80024e0:	08c2      	lsrs	r2, r0, #3
 80024e2:	431a      	orrs	r2, r3
 80024e4:	465d      	mov	r5, fp
 80024e6:	08cb      	lsrs	r3, r1, #3
 80024e8:	e6cc      	b.n	8002284 <__aeabi_dsub+0x37c>
 80024ea:	000a      	movs	r2, r1
 80024ec:	4302      	orrs	r2, r0
 80024ee:	d100      	bne.n	80024f2 <__aeabi_dsub+0x5ea>
 80024f0:	e736      	b.n	8002360 <__aeabi_dsub+0x458>
 80024f2:	074b      	lsls	r3, r1, #29
 80024f4:	08c2      	lsrs	r2, r0, #3
 80024f6:	431a      	orrs	r2, r3
 80024f8:	465d      	mov	r5, fp
 80024fa:	08cb      	lsrs	r3, r1, #3
 80024fc:	e681      	b.n	8002202 <__aeabi_dsub+0x2fa>
 80024fe:	464a      	mov	r2, r9
 8002500:	1a84      	subs	r4, r0, r2
 8002502:	42a0      	cmp	r0, r4
 8002504:	4192      	sbcs	r2, r2
 8002506:	1acb      	subs	r3, r1, r3
 8002508:	4252      	negs	r2, r2
 800250a:	1a9b      	subs	r3, r3, r2
 800250c:	4698      	mov	r8, r3
 800250e:	465d      	mov	r5, fp
 8002510:	2601      	movs	r6, #1
 8002512:	e54e      	b.n	8001fb2 <__aeabi_dsub+0xaa>
 8002514:	074b      	lsls	r3, r1, #29
 8002516:	08c2      	lsrs	r2, r0, #3
 8002518:	431a      	orrs	r2, r3
 800251a:	08cb      	lsrs	r3, r1, #3
 800251c:	e6b2      	b.n	8002284 <__aeabi_dsub+0x37c>
 800251e:	464a      	mov	r2, r9
 8002520:	1a14      	subs	r4, r2, r0
 8002522:	45a1      	cmp	r9, r4
 8002524:	4192      	sbcs	r2, r2
 8002526:	1a5f      	subs	r7, r3, r1
 8002528:	4252      	negs	r2, r2
 800252a:	1aba      	subs	r2, r7, r2
 800252c:	4690      	mov	r8, r2
 800252e:	0212      	lsls	r2, r2, #8
 8002530:	d56b      	bpl.n	800260a <__aeabi_dsub+0x702>
 8002532:	464a      	mov	r2, r9
 8002534:	1a84      	subs	r4, r0, r2
 8002536:	42a0      	cmp	r0, r4
 8002538:	4192      	sbcs	r2, r2
 800253a:	1acb      	subs	r3, r1, r3
 800253c:	4252      	negs	r2, r2
 800253e:	1a9b      	subs	r3, r3, r2
 8002540:	4698      	mov	r8, r3
 8002542:	465d      	mov	r5, fp
 8002544:	e564      	b.n	8002010 <__aeabi_dsub+0x108>
 8002546:	074b      	lsls	r3, r1, #29
 8002548:	08c2      	lsrs	r2, r0, #3
 800254a:	431a      	orrs	r2, r3
 800254c:	465d      	mov	r5, fp
 800254e:	08cb      	lsrs	r3, r1, #3
 8002550:	e698      	b.n	8002284 <__aeabi_dsub+0x37c>
 8002552:	074b      	lsls	r3, r1, #29
 8002554:	08c2      	lsrs	r2, r0, #3
 8002556:	431a      	orrs	r2, r3
 8002558:	08cb      	lsrs	r3, r1, #3
 800255a:	e64f      	b.n	80021fc <__aeabi_dsub+0x2f4>
 800255c:	000a      	movs	r2, r1
 800255e:	4302      	orrs	r2, r0
 8002560:	d090      	beq.n	8002484 <__aeabi_dsub+0x57c>
 8002562:	464a      	mov	r2, r9
 8002564:	075c      	lsls	r4, r3, #29
 8002566:	08d2      	lsrs	r2, r2, #3
 8002568:	4314      	orrs	r4, r2
 800256a:	2280      	movs	r2, #128	; 0x80
 800256c:	08db      	lsrs	r3, r3, #3
 800256e:	0312      	lsls	r2, r2, #12
 8002570:	4213      	tst	r3, r2
 8002572:	d008      	beq.n	8002586 <__aeabi_dsub+0x67e>
 8002574:	08ce      	lsrs	r6, r1, #3
 8002576:	4216      	tst	r6, r2
 8002578:	d105      	bne.n	8002586 <__aeabi_dsub+0x67e>
 800257a:	08c0      	lsrs	r0, r0, #3
 800257c:	0749      	lsls	r1, r1, #29
 800257e:	4308      	orrs	r0, r1
 8002580:	0004      	movs	r4, r0
 8002582:	465d      	mov	r5, fp
 8002584:	0033      	movs	r3, r6
 8002586:	0f61      	lsrs	r1, r4, #29
 8002588:	00e2      	lsls	r2, r4, #3
 800258a:	0749      	lsls	r1, r1, #29
 800258c:	08d2      	lsrs	r2, r2, #3
 800258e:	430a      	orrs	r2, r1
 8002590:	e678      	b.n	8002284 <__aeabi_dsub+0x37c>
 8002592:	074b      	lsls	r3, r1, #29
 8002594:	08c2      	lsrs	r2, r0, #3
 8002596:	431a      	orrs	r2, r3
 8002598:	08cb      	lsrs	r3, r1, #3
 800259a:	e632      	b.n	8002202 <__aeabi_dsub+0x2fa>
 800259c:	4448      	add	r0, r9
 800259e:	185b      	adds	r3, r3, r1
 80025a0:	4548      	cmp	r0, r9
 80025a2:	4192      	sbcs	r2, r2
 80025a4:	4698      	mov	r8, r3
 80025a6:	4252      	negs	r2, r2
 80025a8:	4490      	add	r8, r2
 80025aa:	4643      	mov	r3, r8
 80025ac:	0004      	movs	r4, r0
 80025ae:	021b      	lsls	r3, r3, #8
 80025b0:	d400      	bmi.n	80025b4 <__aeabi_dsub+0x6ac>
 80025b2:	e61a      	b.n	80021ea <__aeabi_dsub+0x2e2>
 80025b4:	4642      	mov	r2, r8
 80025b6:	4b0e      	ldr	r3, [pc, #56]	; (80025f0 <__aeabi_dsub+0x6e8>)
 80025b8:	2601      	movs	r6, #1
 80025ba:	401a      	ands	r2, r3
 80025bc:	4690      	mov	r8, r2
 80025be:	e614      	b.n	80021ea <__aeabi_dsub+0x2e2>
 80025c0:	4666      	mov	r6, ip
 80025c2:	001f      	movs	r7, r3
 80025c4:	3e20      	subs	r6, #32
 80025c6:	40f7      	lsrs	r7, r6
 80025c8:	2c20      	cmp	r4, #32
 80025ca:	d005      	beq.n	80025d8 <__aeabi_dsub+0x6d0>
 80025cc:	2640      	movs	r6, #64	; 0x40
 80025ce:	1b36      	subs	r6, r6, r4
 80025d0:	40b3      	lsls	r3, r6
 80025d2:	464c      	mov	r4, r9
 80025d4:	431c      	orrs	r4, r3
 80025d6:	46a2      	mov	sl, r4
 80025d8:	4654      	mov	r4, sl
 80025da:	1e63      	subs	r3, r4, #1
 80025dc:	419c      	sbcs	r4, r3
 80025de:	433c      	orrs	r4, r7
 80025e0:	e5c8      	b.n	8002174 <__aeabi_dsub+0x26c>
 80025e2:	0011      	movs	r1, r2
 80025e4:	2300      	movs	r3, #0
 80025e6:	2200      	movs	r2, #0
 80025e8:	e532      	b.n	8002050 <__aeabi_dsub+0x148>
 80025ea:	46c0      	nop			; (mov r8, r8)
 80025ec:	000007ff 	.word	0x000007ff
 80025f0:	ff7fffff 	.word	0xff7fffff
 80025f4:	000007fe 	.word	0x000007fe
 80025f8:	464a      	mov	r2, r9
 80025fa:	1814      	adds	r4, r2, r0
 80025fc:	4284      	cmp	r4, r0
 80025fe:	4192      	sbcs	r2, r2
 8002600:	185b      	adds	r3, r3, r1
 8002602:	4698      	mov	r8, r3
 8002604:	4252      	negs	r2, r2
 8002606:	4490      	add	r8, r2
 8002608:	e5e9      	b.n	80021de <__aeabi_dsub+0x2d6>
 800260a:	4642      	mov	r2, r8
 800260c:	4322      	orrs	r2, r4
 800260e:	d100      	bne.n	8002612 <__aeabi_dsub+0x70a>
 8002610:	e6a6      	b.n	8002360 <__aeabi_dsub+0x458>
 8002612:	e5ea      	b.n	80021ea <__aeabi_dsub+0x2e2>
 8002614:	074b      	lsls	r3, r1, #29
 8002616:	08c2      	lsrs	r2, r0, #3
 8002618:	431a      	orrs	r2, r3
 800261a:	08cb      	lsrs	r3, r1, #3
 800261c:	e632      	b.n	8002284 <__aeabi_dsub+0x37c>
 800261e:	2200      	movs	r2, #0
 8002620:	4901      	ldr	r1, [pc, #4]	; (8002628 <__aeabi_dsub+0x720>)
 8002622:	0013      	movs	r3, r2
 8002624:	e514      	b.n	8002050 <__aeabi_dsub+0x148>
 8002626:	46c0      	nop			; (mov r8, r8)
 8002628:	000007ff 	.word	0x000007ff

0800262c <__aeabi_dcmpun>:
 800262c:	b570      	push	{r4, r5, r6, lr}
 800262e:	0005      	movs	r5, r0
 8002630:	480c      	ldr	r0, [pc, #48]	; (8002664 <__aeabi_dcmpun+0x38>)
 8002632:	030c      	lsls	r4, r1, #12
 8002634:	0016      	movs	r6, r2
 8002636:	0049      	lsls	r1, r1, #1
 8002638:	031a      	lsls	r2, r3, #12
 800263a:	005b      	lsls	r3, r3, #1
 800263c:	0b24      	lsrs	r4, r4, #12
 800263e:	0d49      	lsrs	r1, r1, #21
 8002640:	0b12      	lsrs	r2, r2, #12
 8002642:	0d5b      	lsrs	r3, r3, #21
 8002644:	4281      	cmp	r1, r0
 8002646:	d008      	beq.n	800265a <__aeabi_dcmpun+0x2e>
 8002648:	4906      	ldr	r1, [pc, #24]	; (8002664 <__aeabi_dcmpun+0x38>)
 800264a:	2000      	movs	r0, #0
 800264c:	428b      	cmp	r3, r1
 800264e:	d103      	bne.n	8002658 <__aeabi_dcmpun+0x2c>
 8002650:	4332      	orrs	r2, r6
 8002652:	0010      	movs	r0, r2
 8002654:	1e42      	subs	r2, r0, #1
 8002656:	4190      	sbcs	r0, r2
 8002658:	bd70      	pop	{r4, r5, r6, pc}
 800265a:	2001      	movs	r0, #1
 800265c:	432c      	orrs	r4, r5
 800265e:	d1fb      	bne.n	8002658 <__aeabi_dcmpun+0x2c>
 8002660:	e7f2      	b.n	8002648 <__aeabi_dcmpun+0x1c>
 8002662:	46c0      	nop			; (mov r8, r8)
 8002664:	000007ff 	.word	0x000007ff

08002668 <__aeabi_d2iz>:
 8002668:	000a      	movs	r2, r1
 800266a:	b530      	push	{r4, r5, lr}
 800266c:	4c13      	ldr	r4, [pc, #76]	; (80026bc <__aeabi_d2iz+0x54>)
 800266e:	0053      	lsls	r3, r2, #1
 8002670:	0309      	lsls	r1, r1, #12
 8002672:	0005      	movs	r5, r0
 8002674:	0b09      	lsrs	r1, r1, #12
 8002676:	2000      	movs	r0, #0
 8002678:	0d5b      	lsrs	r3, r3, #21
 800267a:	0fd2      	lsrs	r2, r2, #31
 800267c:	42a3      	cmp	r3, r4
 800267e:	dd04      	ble.n	800268a <__aeabi_d2iz+0x22>
 8002680:	480f      	ldr	r0, [pc, #60]	; (80026c0 <__aeabi_d2iz+0x58>)
 8002682:	4283      	cmp	r3, r0
 8002684:	dd02      	ble.n	800268c <__aeabi_d2iz+0x24>
 8002686:	4b0f      	ldr	r3, [pc, #60]	; (80026c4 <__aeabi_d2iz+0x5c>)
 8002688:	18d0      	adds	r0, r2, r3
 800268a:	bd30      	pop	{r4, r5, pc}
 800268c:	2080      	movs	r0, #128	; 0x80
 800268e:	0340      	lsls	r0, r0, #13
 8002690:	4301      	orrs	r1, r0
 8002692:	480d      	ldr	r0, [pc, #52]	; (80026c8 <__aeabi_d2iz+0x60>)
 8002694:	1ac0      	subs	r0, r0, r3
 8002696:	281f      	cmp	r0, #31
 8002698:	dd08      	ble.n	80026ac <__aeabi_d2iz+0x44>
 800269a:	480c      	ldr	r0, [pc, #48]	; (80026cc <__aeabi_d2iz+0x64>)
 800269c:	1ac3      	subs	r3, r0, r3
 800269e:	40d9      	lsrs	r1, r3
 80026a0:	000b      	movs	r3, r1
 80026a2:	4258      	negs	r0, r3
 80026a4:	2a00      	cmp	r2, #0
 80026a6:	d1f0      	bne.n	800268a <__aeabi_d2iz+0x22>
 80026a8:	0018      	movs	r0, r3
 80026aa:	e7ee      	b.n	800268a <__aeabi_d2iz+0x22>
 80026ac:	4c08      	ldr	r4, [pc, #32]	; (80026d0 <__aeabi_d2iz+0x68>)
 80026ae:	40c5      	lsrs	r5, r0
 80026b0:	46a4      	mov	ip, r4
 80026b2:	4463      	add	r3, ip
 80026b4:	4099      	lsls	r1, r3
 80026b6:	000b      	movs	r3, r1
 80026b8:	432b      	orrs	r3, r5
 80026ba:	e7f2      	b.n	80026a2 <__aeabi_d2iz+0x3a>
 80026bc:	000003fe 	.word	0x000003fe
 80026c0:	0000041d 	.word	0x0000041d
 80026c4:	7fffffff 	.word	0x7fffffff
 80026c8:	00000433 	.word	0x00000433
 80026cc:	00000413 	.word	0x00000413
 80026d0:	fffffbed 	.word	0xfffffbed

080026d4 <__aeabi_i2d>:
 80026d4:	b570      	push	{r4, r5, r6, lr}
 80026d6:	2800      	cmp	r0, #0
 80026d8:	d016      	beq.n	8002708 <__aeabi_i2d+0x34>
 80026da:	17c3      	asrs	r3, r0, #31
 80026dc:	18c5      	adds	r5, r0, r3
 80026de:	405d      	eors	r5, r3
 80026e0:	0fc4      	lsrs	r4, r0, #31
 80026e2:	0028      	movs	r0, r5
 80026e4:	f000 f894 	bl	8002810 <__clzsi2>
 80026e8:	4a11      	ldr	r2, [pc, #68]	; (8002730 <__aeabi_i2d+0x5c>)
 80026ea:	1a12      	subs	r2, r2, r0
 80026ec:	280a      	cmp	r0, #10
 80026ee:	dc16      	bgt.n	800271e <__aeabi_i2d+0x4a>
 80026f0:	0003      	movs	r3, r0
 80026f2:	002e      	movs	r6, r5
 80026f4:	3315      	adds	r3, #21
 80026f6:	409e      	lsls	r6, r3
 80026f8:	230b      	movs	r3, #11
 80026fa:	1a18      	subs	r0, r3, r0
 80026fc:	40c5      	lsrs	r5, r0
 80026fe:	0553      	lsls	r3, r2, #21
 8002700:	032d      	lsls	r5, r5, #12
 8002702:	0b2d      	lsrs	r5, r5, #12
 8002704:	0d5b      	lsrs	r3, r3, #21
 8002706:	e003      	b.n	8002710 <__aeabi_i2d+0x3c>
 8002708:	2400      	movs	r4, #0
 800270a:	2300      	movs	r3, #0
 800270c:	2500      	movs	r5, #0
 800270e:	2600      	movs	r6, #0
 8002710:	051b      	lsls	r3, r3, #20
 8002712:	432b      	orrs	r3, r5
 8002714:	07e4      	lsls	r4, r4, #31
 8002716:	4323      	orrs	r3, r4
 8002718:	0030      	movs	r0, r6
 800271a:	0019      	movs	r1, r3
 800271c:	bd70      	pop	{r4, r5, r6, pc}
 800271e:	380b      	subs	r0, #11
 8002720:	4085      	lsls	r5, r0
 8002722:	0553      	lsls	r3, r2, #21
 8002724:	032d      	lsls	r5, r5, #12
 8002726:	2600      	movs	r6, #0
 8002728:	0b2d      	lsrs	r5, r5, #12
 800272a:	0d5b      	lsrs	r3, r3, #21
 800272c:	e7f0      	b.n	8002710 <__aeabi_i2d+0x3c>
 800272e:	46c0      	nop			; (mov r8, r8)
 8002730:	0000041e 	.word	0x0000041e

08002734 <__aeabi_ui2d>:
 8002734:	b510      	push	{r4, lr}
 8002736:	1e04      	subs	r4, r0, #0
 8002738:	d010      	beq.n	800275c <__aeabi_ui2d+0x28>
 800273a:	f000 f869 	bl	8002810 <__clzsi2>
 800273e:	4b0f      	ldr	r3, [pc, #60]	; (800277c <__aeabi_ui2d+0x48>)
 8002740:	1a1b      	subs	r3, r3, r0
 8002742:	280a      	cmp	r0, #10
 8002744:	dc11      	bgt.n	800276a <__aeabi_ui2d+0x36>
 8002746:	220b      	movs	r2, #11
 8002748:	0021      	movs	r1, r4
 800274a:	1a12      	subs	r2, r2, r0
 800274c:	40d1      	lsrs	r1, r2
 800274e:	3015      	adds	r0, #21
 8002750:	030a      	lsls	r2, r1, #12
 8002752:	055b      	lsls	r3, r3, #21
 8002754:	4084      	lsls	r4, r0
 8002756:	0b12      	lsrs	r2, r2, #12
 8002758:	0d5b      	lsrs	r3, r3, #21
 800275a:	e001      	b.n	8002760 <__aeabi_ui2d+0x2c>
 800275c:	2300      	movs	r3, #0
 800275e:	2200      	movs	r2, #0
 8002760:	051b      	lsls	r3, r3, #20
 8002762:	4313      	orrs	r3, r2
 8002764:	0020      	movs	r0, r4
 8002766:	0019      	movs	r1, r3
 8002768:	bd10      	pop	{r4, pc}
 800276a:	0022      	movs	r2, r4
 800276c:	380b      	subs	r0, #11
 800276e:	4082      	lsls	r2, r0
 8002770:	055b      	lsls	r3, r3, #21
 8002772:	0312      	lsls	r2, r2, #12
 8002774:	2400      	movs	r4, #0
 8002776:	0b12      	lsrs	r2, r2, #12
 8002778:	0d5b      	lsrs	r3, r3, #21
 800277a:	e7f1      	b.n	8002760 <__aeabi_ui2d+0x2c>
 800277c:	0000041e 	.word	0x0000041e

08002780 <__aeabi_f2d>:
 8002780:	b570      	push	{r4, r5, r6, lr}
 8002782:	0043      	lsls	r3, r0, #1
 8002784:	0246      	lsls	r6, r0, #9
 8002786:	0fc4      	lsrs	r4, r0, #31
 8002788:	20fe      	movs	r0, #254	; 0xfe
 800278a:	0e1b      	lsrs	r3, r3, #24
 800278c:	1c59      	adds	r1, r3, #1
 800278e:	0a75      	lsrs	r5, r6, #9
 8002790:	4208      	tst	r0, r1
 8002792:	d00c      	beq.n	80027ae <__aeabi_f2d+0x2e>
 8002794:	22e0      	movs	r2, #224	; 0xe0
 8002796:	0092      	lsls	r2, r2, #2
 8002798:	4694      	mov	ip, r2
 800279a:	076d      	lsls	r5, r5, #29
 800279c:	0b36      	lsrs	r6, r6, #12
 800279e:	4463      	add	r3, ip
 80027a0:	051b      	lsls	r3, r3, #20
 80027a2:	4333      	orrs	r3, r6
 80027a4:	07e4      	lsls	r4, r4, #31
 80027a6:	4323      	orrs	r3, r4
 80027a8:	0028      	movs	r0, r5
 80027aa:	0019      	movs	r1, r3
 80027ac:	bd70      	pop	{r4, r5, r6, pc}
 80027ae:	2b00      	cmp	r3, #0
 80027b0:	d114      	bne.n	80027dc <__aeabi_f2d+0x5c>
 80027b2:	2d00      	cmp	r5, #0
 80027b4:	d01b      	beq.n	80027ee <__aeabi_f2d+0x6e>
 80027b6:	0028      	movs	r0, r5
 80027b8:	f000 f82a 	bl	8002810 <__clzsi2>
 80027bc:	280a      	cmp	r0, #10
 80027be:	dc1c      	bgt.n	80027fa <__aeabi_f2d+0x7a>
 80027c0:	230b      	movs	r3, #11
 80027c2:	002a      	movs	r2, r5
 80027c4:	1a1b      	subs	r3, r3, r0
 80027c6:	40da      	lsrs	r2, r3
 80027c8:	0003      	movs	r3, r0
 80027ca:	3315      	adds	r3, #21
 80027cc:	409d      	lsls	r5, r3
 80027ce:	4b0e      	ldr	r3, [pc, #56]	; (8002808 <__aeabi_f2d+0x88>)
 80027d0:	0312      	lsls	r2, r2, #12
 80027d2:	1a1b      	subs	r3, r3, r0
 80027d4:	055b      	lsls	r3, r3, #21
 80027d6:	0b16      	lsrs	r6, r2, #12
 80027d8:	0d5b      	lsrs	r3, r3, #21
 80027da:	e7e1      	b.n	80027a0 <__aeabi_f2d+0x20>
 80027dc:	2d00      	cmp	r5, #0
 80027de:	d009      	beq.n	80027f4 <__aeabi_f2d+0x74>
 80027e0:	0b32      	lsrs	r2, r6, #12
 80027e2:	2680      	movs	r6, #128	; 0x80
 80027e4:	0336      	lsls	r6, r6, #12
 80027e6:	4b09      	ldr	r3, [pc, #36]	; (800280c <__aeabi_f2d+0x8c>)
 80027e8:	076d      	lsls	r5, r5, #29
 80027ea:	4316      	orrs	r6, r2
 80027ec:	e7d8      	b.n	80027a0 <__aeabi_f2d+0x20>
 80027ee:	2300      	movs	r3, #0
 80027f0:	2600      	movs	r6, #0
 80027f2:	e7d5      	b.n	80027a0 <__aeabi_f2d+0x20>
 80027f4:	2600      	movs	r6, #0
 80027f6:	4b05      	ldr	r3, [pc, #20]	; (800280c <__aeabi_f2d+0x8c>)
 80027f8:	e7d2      	b.n	80027a0 <__aeabi_f2d+0x20>
 80027fa:	0003      	movs	r3, r0
 80027fc:	002a      	movs	r2, r5
 80027fe:	3b0b      	subs	r3, #11
 8002800:	409a      	lsls	r2, r3
 8002802:	2500      	movs	r5, #0
 8002804:	e7e3      	b.n	80027ce <__aeabi_f2d+0x4e>
 8002806:	46c0      	nop			; (mov r8, r8)
 8002808:	00000389 	.word	0x00000389
 800280c:	000007ff 	.word	0x000007ff

08002810 <__clzsi2>:
 8002810:	211c      	movs	r1, #28
 8002812:	2301      	movs	r3, #1
 8002814:	041b      	lsls	r3, r3, #16
 8002816:	4298      	cmp	r0, r3
 8002818:	d301      	bcc.n	800281e <__clzsi2+0xe>
 800281a:	0c00      	lsrs	r0, r0, #16
 800281c:	3910      	subs	r1, #16
 800281e:	0a1b      	lsrs	r3, r3, #8
 8002820:	4298      	cmp	r0, r3
 8002822:	d301      	bcc.n	8002828 <__clzsi2+0x18>
 8002824:	0a00      	lsrs	r0, r0, #8
 8002826:	3908      	subs	r1, #8
 8002828:	091b      	lsrs	r3, r3, #4
 800282a:	4298      	cmp	r0, r3
 800282c:	d301      	bcc.n	8002832 <__clzsi2+0x22>
 800282e:	0900      	lsrs	r0, r0, #4
 8002830:	3904      	subs	r1, #4
 8002832:	a202      	add	r2, pc, #8	; (adr r2, 800283c <__clzsi2+0x2c>)
 8002834:	5c10      	ldrb	r0, [r2, r0]
 8002836:	1840      	adds	r0, r0, r1
 8002838:	4770      	bx	lr
 800283a:	46c0      	nop			; (mov r8, r8)
 800283c:	02020304 	.word	0x02020304
 8002840:	01010101 	.word	0x01010101
	...

0800284c <__clzdi2>:
 800284c:	b510      	push	{r4, lr}
 800284e:	2900      	cmp	r1, #0
 8002850:	d103      	bne.n	800285a <__clzdi2+0xe>
 8002852:	f7ff ffdd 	bl	8002810 <__clzsi2>
 8002856:	3020      	adds	r0, #32
 8002858:	e002      	b.n	8002860 <__clzdi2+0x14>
 800285a:	1c08      	adds	r0, r1, #0
 800285c:	f7ff ffd8 	bl	8002810 <__clzsi2>
 8002860:	bd10      	pop	{r4, pc}
 8002862:	46c0      	nop			; (mov r8, r8)

08002864 <Termistor>:
#include "string.h"
#include "ssd1306_tests.h"
#include "DigitalInputOutputs.h"

double Termistor(uint32_t analogValue)
{
 8002864:	b580      	push	{r7, lr}
 8002866:	b086      	sub	sp, #24
 8002868:	af00      	add	r7, sp, #0
 800286a:	6078      	str	r0, [r7, #4]
	double temperature;
	uint32_t adcval = 4096 - analogValue;
 800286c:	687b      	ldr	r3, [r7, #4]
 800286e:	2280      	movs	r2, #128	; 0x80
 8002870:	0152      	lsls	r2, r2, #5
 8002872:	1ad3      	subs	r3, r2, r3
 8002874:	617b      	str	r3, [r7, #20]

	temperature = log((adcval * 10000) / (4095 - adcval));
 8002876:	697b      	ldr	r3, [r7, #20]
 8002878:	4a2b      	ldr	r2, [pc, #172]	; (8002928 <Termistor+0xc4>)
 800287a:	435a      	muls	r2, r3
 800287c:	697b      	ldr	r3, [r7, #20]
 800287e:	492b      	ldr	r1, [pc, #172]	; (800292c <Termistor+0xc8>)
 8002880:	1acb      	subs	r3, r1, r3
 8002882:	0019      	movs	r1, r3
 8002884:	0010      	movs	r0, r2
 8002886:	f7fd fc57 	bl	8000138 <__udivsi3>
 800288a:	0003      	movs	r3, r0
 800288c:	0018      	movs	r0, r3
 800288e:	f7ff ff51 	bl	8002734 <__aeabi_ui2d>
 8002892:	0002      	movs	r2, r0
 8002894:	000b      	movs	r3, r1
 8002896:	0010      	movs	r0, r2
 8002898:	0019      	movs	r1, r3
 800289a:	f008 fde1 	bl	800b460 <log>
 800289e:	0002      	movs	r2, r0
 80028a0:	000b      	movs	r3, r1
 80028a2:	60ba      	str	r2, [r7, #8]
 80028a4:	60fb      	str	r3, [r7, #12]
	temperature = 1 / (0.001129148 + (0.000234125 + (0.0000000876741 * temperature * temperature)) * temperature);
 80028a6:	4a22      	ldr	r2, [pc, #136]	; (8002930 <Termistor+0xcc>)
 80028a8:	4b22      	ldr	r3, [pc, #136]	; (8002934 <Termistor+0xd0>)
 80028aa:	68b8      	ldr	r0, [r7, #8]
 80028ac:	68f9      	ldr	r1, [r7, #12]
 80028ae:	f7ff f8bf 	bl	8001a30 <__aeabi_dmul>
 80028b2:	0002      	movs	r2, r0
 80028b4:	000b      	movs	r3, r1
 80028b6:	0010      	movs	r0, r2
 80028b8:	0019      	movs	r1, r3
 80028ba:	68ba      	ldr	r2, [r7, #8]
 80028bc:	68fb      	ldr	r3, [r7, #12]
 80028be:	f7ff f8b7 	bl	8001a30 <__aeabi_dmul>
 80028c2:	0002      	movs	r2, r0
 80028c4:	000b      	movs	r3, r1
 80028c6:	0010      	movs	r0, r2
 80028c8:	0019      	movs	r1, r3
 80028ca:	4a1b      	ldr	r2, [pc, #108]	; (8002938 <Termistor+0xd4>)
 80028cc:	4b1b      	ldr	r3, [pc, #108]	; (800293c <Termistor+0xd8>)
 80028ce:	f7fe f93f 	bl	8000b50 <__aeabi_dadd>
 80028d2:	0002      	movs	r2, r0
 80028d4:	000b      	movs	r3, r1
 80028d6:	0010      	movs	r0, r2
 80028d8:	0019      	movs	r1, r3
 80028da:	68ba      	ldr	r2, [r7, #8]
 80028dc:	68fb      	ldr	r3, [r7, #12]
 80028de:	f7ff f8a7 	bl	8001a30 <__aeabi_dmul>
 80028e2:	0002      	movs	r2, r0
